:100000000C949E000C94C6000C94C6000C94C60080
:100010000C94C6000C94C6000C94C6000C94C60048
:100020000C94C6000C94C6000C94C6000C94C60038
:100030000C94C6000C94C6000C94C6000C94C60028
:100040000C94410E0C94C6000C940F0E0C94E90D08
:100050000C94C6000C94C6000C94C6000C94C60008
:100060000C948B0E0C94C6005374617274696E67A5
:10007000204475656C2100206861642061206D61F9
:100080006C66756E6374696F6E21005B4552524FEA
:10009000525D205A6F6E653A200000000000240077
:1000A00027002A0000000000250028002B0004047F
:1000B0000404040404040202020202020303030310
:1000C00003030102040810204080010204081020EC
:1000D00001020408102000000008000201000003D3
:1000E000040700000000000000005B424F4F545D19
:1000F00020496E697469616C697A65205A6F6E6512
:100100002000496E697469616C697A6174696F6E07
:1001100020436F6D706C6574650A005B4552524FE9
:10012000525D20496E76616C6964204576656E7417
:10013000205479706521000012108A1311241FBE0B
:10014000CFEFD8E0DEBFCDBF25E0A2E1B2E001C035
:100150001D92A13AB207E1F712E0A0E0B1E0E0E1C0
:10016000F0E302C005900D92A231B107D9F710E07B
:10017000CDE9D0E004C02197FE010E94E715CC39FB
:10018000D107C9F70E94B3100C94FB170C94000020
:10019000E0916202F0916302309729F01092D70249
:1001A0001092D60209940895CF93DF93EC01E09169
:1001B0006002F09161023097F1F09091D902809144
:1001C000D8029817C0F090E0292F30E026173707A3
:1001D00054F4DE01A20FB31F4C912C593D4FD901AD
:1001E0004C939F5FF1CF1092D9026093D802CB015C
:1001F000DF91CF910994DF91CF9108958F929F92D3
:10020000AF92BF92CF92DF92EF92FF920F93CF9374
:10021000DF93EC017B014A018AE48F8781E0888BC0
:10022000198A5E012FE4A20EB11CD5018D919C911B
:100230006E01BFE0CB0ED11CDC01ED91FC9104807E
:10024000F581E02D00E030E020E043E0B6010995C3
:10025000811126C0F50180819181DC01ED91FC9135
:100260000680F781E02D28EE33E040E4B6010995E1
:1002700097FD16C08F85813099F48C89F4018083B5
:1002800080E09C898917C8F4282F30E0FE01E20F36
:10029000F31F95892E0D3F1DD9019C938F5FF1CFE0
:1002A00080E0DF91CF910F91FF90EF90DF90CF90A2
:1002B000BF90AF909F908F90089581E0F2CF80E043
:1002C00008950895AF92BF92CF92DF92EF92FF927E
:1002D0000F931F93CF93DF936C017B018B01040F6E
:1002E000151FEB015E01AE18BF08C017D10759F00A
:1002F0006991D601ED91FC910190F081E02DC6014C
:100300000995892B79F7C501DF91CF911F910F9145
:10031000FF90EF90DF90CF90BF90AF900895FC01D9
:10032000538D448D252F30E0842F90E0821B930B5A
:10033000541710F0CF96089501970895FC01918D00
:10034000828D981761F0A28DAE0FBF2FB11D5D9603
:100350008C91928D9F5F9F73928F90E008958FEFA5
:100360009FEF0895FC01918D828D981731F0828D59
:10037000E80FF11D858D90E008958FEF9FEF0895B0
:10038000FC01918D228D892F90E0805C9F4F821B14
:1003900091098F73992708958AED92E00E94C00118
:1003A00021E0892B09F420E0822F089580E090E07D
:1003B000892B29F00E94CC0181110C940000089532
:1003C000FC01A48DA80FB92FB11DA35ABF4F2C91CA
:1003D000848D90E001968F739927848FA689B789C1
:1003E0002C93A089B1898C91837080648C93938DB8
:1003F000848D981306C00288F389E02D80818F7D5B
:1004000080830895EF92FF920F931F93CF93DF9312
:10041000EC0181E0888F9B8D8C8D98131AC0E88940
:10042000F989808185FF15C09FB7F894EE89FF890F
:100430006083E889F98980818370806480839FBFAD
:1004400081E090E0DF91CF911F910F91FF90EF90AD
:100450000895F62E0B8D10E00F5F1F4F0F731127BD
:10046000E02E8C8D8E110CC00FB607FCFACFE889F8
:10047000F989808185FFF5CFCE010E94E001F1CF9F
:10048000EB8DEC0FFD2FF11DE35AFF4FF0829FB76C
:10049000F8940B8FEA89FB8980818062CFCF0F931C
:1004A0001F93CF93DF938C01D0E0C0E0F801EC0FF5
:1004B000FD1F6491662341F08AED92E00E940202E2
:1004C000892B11F02196F2CFCE01DF91CF911F91B0
:1004D0000F910895CF93DF93EC01888D8823B9F0B5
:1004E000AA89BB89E889F9898C9185FD03C080813F
:1004F00086FD0DC00FB607FCF7CF8C9185FFF2CFBC
:10050000808185FFEDCFCE010E94E001E9CFDF9130
:10051000CF91089590E0FC01EA52FF4F2491FC0135
:10052000EE53FF4F3491FC01E255FF4FE491EE236F
:10053000C9F0222339F0233001F1A8F4213019F158
:10054000223029F1F0E0EE0FFF1FEC55FF4FA5918F
:10055000B4918FB7F894EC91611126C030953E2389
:100560003C938FBF08952730A9F02830C9F024307C
:1005700049F7809180008F7D03C0809180008F7744
:1005800080938000DFCF84B58F7784BDDBCF84B5C7
:100590008F7DFBCF8091B0008F778093B000D2CF5A
:1005A0008091B0008F7DF9CF3E2BDACFCF93DF93D0
:1005B00090E0FC01EE53FF4F249182559F4FFC01C8
:1005C00084918823D1F090E0880F991FFC01E656B2
:1005D000FF4FA591B491FC01EC55FF4FC591D4910B
:1005E00061110EC09FB7F8948C91E22FE0958E2395
:1005F0008C932881E223E8839FBFDF91CF910895F8
:100600008FB7F894EC91E22BEC938FBFF6CF3FB706
:10061000F89480915C0290915D02A0915E02B0918D
:100620005F0226B5A89B05C02F3F19F00196A11DBA
:10063000B11D3FBFBA2FA92F982F8827BC01CD012C
:10064000620F711D811D911D42E0660F771F881F8B
:10065000991F4A95D1F708958F929F92AF92BF92BA
:10066000CF92DF92EF92FF924B015C010E94070351
:100670006B017C010E9407036C197D098E099F099B
:10068000683E734081059105A8F321E0821A910824
:10069000A108B10888EEC80E83E0D81EE11CF11C49
:1006A00081149104A104B10429F7FF90EF90DF9029
:1006B000CF90BF90AF909F908F900895DC01ED9107
:1006C000FC910284F385E02D09950895DC01ED91FC
:1006D000FC910190F081E02D09950895209134025C
:1006E000260F3327331F21323105ECF42091AA0263
:1006F000FC0190E080E0243069F082E00895A09150
:1007000034022191AC014C5E5D4FA40FB52FB11D99
:100710002C930196861798F380913402680F6093AA
:10072000340280E0089581E008951092AA0281E0E9
:100730008093A9021092840261E082E10E948A0201
:1007400061E083E10E948A02E9EBF0E080818E7F24
:10075000808380818D7F808388E48093B80085E4E6
:100760008093BC0008951092D9021092D802109282
:10077000D7021092D6020E94950388EC90E09093E5
:10078000D5028093D40284ED90E09093D3028093BD
:10079000D20208950C94B303CF93DF9391E090932A
:1007A00013028823B9F0C091B800D091BA008091AB
:1007B000BC008A7B8093BC0060E082E10E948A02D8
:1007C00060E083E10E948A020E949503D093BA0000
:1007D000C093B800DF91CF9108958F929F92AF920E
:1007E000BF92CF92DF92EF92FF920F931F93CF931E
:1007F000DF93D091D602D13208F0D7C0182FC09124
:10080000D1020E9407036B017C018091AA02811131
:100810006BC082E08093AA021093A9028FEF8093AD
:10082000A8021092A702D093A602A1EBB2E0E6E8DC
:10083000F2E080E0D81391C0109285028091850289
:10084000CC0FC82BC093850280918402813009F0BF
:1008500088C0109284020E9407036B017C01809182
:1008600085028093BB008091AC029091AD02A09173
:10087000AE02B091AF02892B8A2B8B2BA1F00E9484
:1008800007030091AC021091AD022091AE023091AD
:10089000AF026C197D098E099F09061717072807F3
:1008A000390708F442C08091BC0083FDD8CF85ECA5
:1008B0008093BC000E9407036B017C018091AA0217
:1008C000823009F450C08091A8028F3F09F46FC0B4
:1008D0008091A802803209F46CC08091A802803314
:1008E00009F469C084E026C08091AC029091AD0209
:1008F000A091AE02B091AF02892B8A2B8B2B09F409
:1009000084CF0E9407038090AC029090AD02A0902B
:10091000AE02B090AF026C197D098E099F09861650
:100920009706A806B90608F070CF8091AB020E9426
:10093000CC0385E01092D7021092D6021092B0023A
:10094000DF91CF911F910F91FF90EF90DF90CF90AB
:10095000BF90AF909F908F9008959D9191938F5FDE
:1009600069CF85EEA5CF8091AC029091AD02A091A8
:10097000AE02B091AF02892B8A2B8B2B09F49ECF4C
:100980000E9407030091AC021091AD022091AE02CB
:100990003091AF026C197D098E099F090617170760
:1009A0002807390708F08ACFC0CF81E0C3CF80E0A5
:1009B000C1CF82E0BFCF83E0BDCF81E08093B002A2
:1009C00084E28093D1021092D7021092D60264E1A1
:1009D00070E080E090E00E942C0381E00C94ED0335
:1009E000CF92DF92EF92FF920F931F93CF93DF93FB
:1009F000D82FC62F613208F098C00E9407036B0100
:100A00007C018091AA0281116BC081E08093AA02CF
:100A10008093A9029FEF9093A8021092A7029C0FC7
:100A20009093A6028093850280918502DD0FD82BDA
:100A3000D093850280918402813009F078C01092B1
:100A400084020E9407036B017C01809185028093E0
:100A5000BB008091AC029091AD02A091AE02B0912A
:100A6000AF02892B8A2B8B2BA1F00E9407030091E8
:100A7000AC021091AD022091AE023091AF026C1920
:100A80007D098E099F09061717072807390708F4FB
:100A900048C08091BC0083FDD8CF85EC8093BC001A
:100AA0000E9407036B017C018091AA02813009F446
:100AB00040C08091A7028C1710F4C091A702E6E80D
:100AC000F2E0A4E6B2E080E08C1355C08C2FDF91F9
:100AD000CF911F910F91FF90EF90DF90CF900895ED
:100AE0008091AC029091AD02A091AE02B091AF02A4
:100AF000892B8A2B8B2B09F484CF0E94070300914A
:100B0000AC021091AD022091AE023091AF026C198F
:100B10007D098E099F09061717072807390708F06E
:100B200070CF8091AB020E94CC03C0E0CFCF85EEA6
:100B3000B5CF8091AC029091AD02A091AE02B09180
:100B4000AF02892B8A2B8B2B09F4AECF0E940703AF
:100B50000091AC021091AD022091AE023091AF0233
:100B60006C197D098E099F09061717072807390791
:100B700008F09ACFD6CF91919D938F5FA5CF08951E
:100B8000E091D9028091D802E81730F4F0E0EC59F6
:100B9000FD4F808190E008958FEF9FEF0895909131
:100BA000D9028091D8022FEF3FEF981748F4E92F30
:100BB000F0E0EC59FD4F208130E09F5F9093D90227
:100BC000C90108958091D8029091D902891B990B8F
:100BD0000895CF92DF92EF92FF920F931F93CF93DE
:100BE000DF937C01CB018A012091B002222389F09E
:100BF000EB016B01C40ED51ECC15DD0569F06991C2
:100C0000D701ED91FC910190F081E02DC70109958C
:100C1000F3CF642F0E946E03C801DF91CF911F9123
:100C20000F91FF90EF90DF90CF900895CF93DF93D7
:100C30001F92CDB7DEB769832091B0022223F9F06D
:100C40002091D602203258F021E030E0FC013383BD
:100C5000228390E080E00F90DF91CF910895809102
:100C6000D702E82FF0E0EF54FD4F998190838F5F1A
:100C70008093D7028093D60281E090E0ECCF61E0D0
:100C8000CE0101960E946E03F7CF90E080E00895B8
:100C9000865A9F4FFC01808191E09093B00280932F
:100CA000D1021092D7021092D60281E090E09C010E
:100CB00002C0220F331F6A95E2F7B90188EC93E076
:100CC0000E94160681E00C94ED038F929F92AF92E2
:100CD000BF92CF92DF92EF92FF920F931F93CF9329
:100CE000DF937C018C010F5F1F4FC2E0F80161911F
:100CF0008F018C2F0E948A02CF5FC630B9F79CE02B
:100D0000D92E812C912C5401C8EED3E010E000E0E4
:100D100020E4C22E84E070E060E0C0927C009091FC
:100D20007A00906490937A0090917A0096FDFCCFBF
:100D30009091780020917900322F292F620F731F34
:100D4000815059F776956795769567950617170739
:100D500008F48B016C177D0708F4EB0190E080E04C
:100D60000E94F8139B01AC01C501B4010E94E2147A
:100D70004B015C01DA94D110CDCFC00FD11FBE0161
:100D800090E080E00E94F8139B01AC01C501B40122
:100D90000E94E11420E030E040E251E40E944E1550
:100DA0004B015C0120E030E0A9010E94F31387FDB4
:100DB00034C020E030E04AE754E4C501B4010E94A9
:100DC000C015C1E01816B4F020E030E046E153E46D
:100DD000C501B4010E94F31387FD1FC0C1E020E0EC
:100DE00030E04AEF53E4C501B4010E94C015181663
:100DF0000CF0C0E0F701C08381E0C13009F480E06D
:100E0000DF91CF911F910F91FF90EF90DF90CF90E6
:100E1000BF90AF909F908F900895C2E0EBCFAF92BC
:100E2000BF92CF92DF92EF92FF920F931F93CF93D7
:100E3000DF938C01D62EC72EF42E5901D0E0C0E0EE
:100E400082E0E82EE40E6E2D80E28E1508F460E25A
:100E500084E20E94F0041092D9028093D80281119A
:100E600010C061E070E080E090E00E942C032196C9
:100E7000A114B10441F3AC16BD0628F78FEF9FEF24
:100E800010C0F801828193810E945E0380FFE9CF48
:100E9000F801828193810E945E03882369F08DEFBF
:100EA0009FEFDF91CF911F910F91FF90EF90DF9017
:100EB000CF90BF90AF900895F801828193810E94F6
:100EC0005E038111ECCFF801828193810E945E0361
:100ED0008F3F29F7F801828193810E945E03C82F1A
:100EE000F801828193810E945E038C0FC1F6F801A4
:100EF000D481EE24E394ED0E828193810E945E03FF
:100F0000853D69F6F801828193810E945E03E812B3
:100F1000C6CFC2508CEF9FEFFC1618F2DA52BD2CF0
:100F2000ED2CFC2CF801828193812E2D2B192C178E
:100F300038F40E945E03F70181937F01D80FF2CF4E
:100F40000E945E038D0F09F0AACFF8018281938180
:100F50000E945E038C2F90E0A4CF6115710579F09B
:100F6000FB0101900020E9F73197AF01461B570BB9
:100F7000DC01ED91FC910280F381E02D099490E079
:100F800080E0089542E050E062E471E08AED92E092
:100F90000C946201CF93DF93BC018AED92E00E9432
:100FA000AD07EC010E94C2078C0F9D1FDF91CF910E
:100FB0000895CF93DF930E944F02EC010E94C20775
:100FC0008C0F9D1FDF91CF91089585E491E00E94E1
:100FD000CA0780919305882341F060919105709133
:100FE000920588EC93E00C94AD0780918F058530D5
:100FF000A1F018F48430B9F10895863031F18730CA
:1010000059F464E571E088EC93E00E94AD0781E05B
:101010008093940510928F05089568E571E088EC3F
:1010200093E00E94AD0710928F0560E080919005DB
:101030000E948A026AE070E080E090E00E942C0347
:1010400061E0809190050C948A026CE571E088EC77
:1010500093E00E94AD0781E08093930588E690E0DD
:101060000E94D907D7CF60E671E088EC93E00E9438
:10107000AD07D0CF0F931F93CF93DF938C01EB017C
:10108000FC01808191810097E1F06881798161158F
:101090007105A9F0428153812C813D81421753078C
:1010A00070F00E94E5178C819D81F80195838483FF
:1010B0001D821C82DF91CF911F910F9108950E9494
:1010C000891688819981F801918380838A819B8127
:1010D000938382838C819D81958384831982188276
:1010E0001B821A82E5CFFC0180819181009711F06B
:1010F0000C94891608950F931F93CF93DF93EC01FF
:1011000088819981009759F02A813B8126173707FA
:1011100030F081E0DF91CF911F910F9108958B0105
:101120006F5F7F4F0E941217009759F09983888351
:101130001B830A832C813D81232B59F7FC011082EC
:10114000E8CF80E0E7CFEF92FF920F931F93CF930A
:10115000DF936115710541F480E0DF91CF911F911C
:101160000F91FF90EF90089541155105B1F07B016B
:10117000EC010C811D81040F151FB8010E947B0832
:10118000882351F3288139818C819D81B701820F99
:10119000931F0E94E5171D830C8381E0DECFEF9241
:1011A000FF920F931F93CF93DF93CDB7DEB72897AE
:1011B0000FB6F894DEBF0FBECDBF7C01CB014AE075
:1011C0008E010F5F1F4FB8010E94BE13F8010190FE
:1011D0000020E9F73197AF01401B510BB801C7015F
:1011E0000E94A30828960FB6F894DEBF0FBECDBFAD
:1011F000DF91CF911F910F91FF90EF900895EF92A3
:10120000FF920F931F93CF93DF93EC017B018A0131
:10121000BA010E947B0828813981811114C02115EF
:10122000310519F0C9010E948916198218821D82A0
:101230001C821B821A82CE01DF91CF911F910F91E8
:10124000FF90EF9008951D830C83B701C9010E94A0
:10125000E517F1CF50E040E064E471E00C94FF0842
:101260000F931F93CF93DF9300D0CDB7DEB784E603
:1012700091E00E94CA078091940581114DC0909120
:10128000D8028091D902981739F088EC93E00E9437
:10129000CF0580938F05F3CF80918F05843049F17E
:1012A000883071F18230F1F486EA91E00E94CA0739
:1012B0006DEB71E08AED92E00E94AD0710E000E076
:1012C000E0919105F0919205E00FF11F60818AEDA8
:1012D00092E00E9402020F5F1F4F0D30110581F74F
:1012E0000E94C2070F900F90DF91CF911F910F9135
:1012F00008951092930583E791E00E94CA07F2CF08
:1013000081E08093950584E491E090939205809329
:10131000910587E891E0F1CF86E995E00E942A09DE
:101320009091D8028091D902981781F088EC93E0CF
:101330000E94CF0589831A8241E050E0BE016F5FB1
:101340007F4F86E995E00E94A308EACF6BEC71E03D
:101350008AED92E00E94AD0740919A0550919B055D
:1013600060919605709197058AED92E00E94620166
:1013700089ED91E0C2CFCF93DF93EC01FB0186179B
:10138000970749F0608171816115710541F04481D1
:1013900055810E94FF08CE01DF91CF910895888189
:1013A0009981009711F00E948916198218821D8276
:1013B0001C821B821A82EFCFFC01118210821382E1
:1013C000128215821482FB0101900020E9F7319707
:1013D000AF01461B570B0C94FF08EF92FF920F933F
:1013E0001F93CF93DF93CDB7DEB763970FB6F89413
:1013F000DEBF0FBECDBFF82E8B0164E471E0CE01DD
:101400000E960E94DC0981E0F816C9F092E0F91608
:1014100009F454C08BE191E00E94D907CE010E96E9
:101420000E94730863960FB6F894DEBF0FBECDBF5F
:10143000DF91CF911F910F91FF90EF900895B80128
:10144000CE010E960E94BB090A891B89CE01019626
:101450007C0101151105B1F51982F0929205E09217
:1014600091056BED71E08AED92E00E94AD0710E00E
:1014700000E0E0919105F0919205E00FF11F60818D
:101480008AED92E00E9402020F5F1F4F0D3011059E
:1014900081F70E94C20760E0809190050E948A0255
:1014A0006AE070E080E090E00E942C0361E08091AF
:1014B00090050E948A0210929505B0CFB8016A5F2C
:1014C0007F4FBECF0C30110510F00CE010E06E85A0
:1014D0007F85A801C7010E94EC17F701E00FF11FFB
:1014E0001082BBCF6F927F928F929F92AF92BF92EA
:1014F000CF92DF92EF92FF920F931F93CF93DF93E0
:10150000CDB7DEB7C558D1090FB6F894DEBF0FBE10
:10151000CDBF7C018A01490164E471E00E94DC09CD
:1015200081E5F8019E012F5F3F4F6901D9010190CC
:101530000D928A95E1F7F801EF5AFF4F808163968B
:101540008FAF6397319687E0DE01AD5ABF4F0190B0
:101550000D928A95E1F7F801E75AFF4F80816B966B
:101560008FAF6B97319680816C968FAF6C97C80167
:10157000855A9F4F255A3F4FBC016B5E7F4F47E016
:10158000FC01D90101900D924A95E1F70796295F78
:101590003F4F8617970799F7380130E7630E711CA4
:1015A000D3018C91E2968FAFE2975801B1E7AB0E71
:1015B000B11CF5018081E3968FAFE3978181E496BA
:1015C0008FAFE497E6961FAE1EAEE697E8961FAE85
:1015D0001EAEE897EA961FAE1EAEEA97B5016E5FA3
:1015E0007F4FCE018C589F4F0E94BB09D5011896A2
:1015F0008D919C91EC969FAF8EAFEC975801BBE715
:10160000AB0EB11CF5018081ED968FAFED97818116
:10161000EE968FAFEE97C258DF4F19821882CE57E1
:10162000D040C058DF4F19821882C058D040CE57E2
:10163000DF4F19821882C258D040B5016E5F7F4FCC
:10164000CE0182589F4F0E94BB09D50118968D91FB
:101650009C91CC57DF4F99838883C458D040B1E028
:101660008B16910439F464E070E0059759F462E058
:1016700070E008C0EC968EAD9FADEC9761E070E035
:101680000597A9F3C7010E94CF08CE0182589F4F4A
:101690000E947308CE018C589F4F0E9473088A9451
:1016A000892809F460C0D3018C914AE0B60190E02A
:1016B0000E94BE13F60101900020E9F73197AF01B7
:1016C0004C195D09B601C7010E94A308F801ED5845
:1016D000FF4F4481558160817181C7010E94A30839
:1016E000F801E758FF4F60817181C7010E94CF0860
:1016F000D70114968D919C910B97F0F48BE890E0B4
:101700000E944F02F70184819581029728F0019091
:10171000F081E02D3097E9F510921202E2E1F2E05B
:1017200060818AED92E00E94020287E790E00E94C9
:10173000D907C7010E942A09C701CB57DF4F0FB64F
:10174000F894DEBF0FBECDBFDF91CF911F910F91F7
:10175000FF90EF90DF90CF90BF90AF909F908F90D1
:101760007F906F900895F301608170E06D5F7F4F0F
:10177000C7010E94CF08F801E358FF4F448155810B
:1017800060817181C7010E94A308F801ED57FF4FE6
:10179000AACF3196C5CF5F926F927F928F929F9220
:1017A000AF92BF92CF92DF92EF92FF920F931F936F
:1017B000CF93DF93CDB7DEB72C970FB6F894DEBF8B
:1017C0000FBECDBF7C016B01842EB22E532EFB01C8
:1017D0008081F70184838281938121E02093B0028C
:1017E00024E22093D1021092D7021092D60260E038
:1017F0000E94660360E0F701828193810E94660384
:101800006FEFF701828193810E946603182D100FFC
:1018100061E0610FF701828193810E946603612F6D
:101820006095F701828193810E94660364EDF70160
:10183000828193810E9466038C0C9D2C911C14ED77
:10184000F701828193818C149D04C9F4CB2CD52C93
:101850005601A00EB11CF70182819381AC14BD0426
:1018600099F14601F60160810E946603882371F0B8
:10187000FFEFCF1ADF0AF4018081180FECCF360199
:10188000F60160810E946603811117C08DEF2C96CE
:101890000FB6F894DEBF0FBECDBFDF91CF911F9181
:1018A0000F91FF90EF90DF90CF90BF90AF909F90FF
:1018B0008F907F906F905F900895FFEFCF1ADF0AAF
:1018C000F3018081180FBCCF612F61950E946603E0
:1018D00060E0F701828193810E94660381E00E94AB
:1018E000ED0386E0E6E0F1E0DE01179601900D924F
:1018F0008A95E1F70BE010E067E084E20E94F004D3
:101900001092D9028093D80281110BC061E070E07F
:1019100080E090E00E942C030150110969F78EEFDE
:10192000B6CFF701828193810E945E0380FFEECFE4
:101930008E010F5F1F4F5E01F7E0AF0EB11C680113
:10194000F701828193810E945E03F80181938F01E8
:10195000EA15FB05A9F746E050E0BF01C6010E9469
:10196000CF1721E0892B09F420E0822F81958FCFBA
:1019700085ED8093BC008091AC029091AD02A09166
:10198000AE02B091AF020796A11DB11D23E0B6953E
:10199000A795979587952A95D1F72091BC0024FDAE
:1019A00003C01092AA0208954091AC025091AD027A
:1019B0006091AE027091AF02452B462B472B69F325
:1019C0000097A105B10541F025E32A95F1F7000044
:1019D0000197A109B109E1CF8091AB020C94CC032E
:1019E0006F927F928F929F92AF92BF92CF92DF922F
:1019F000EF92FF920F931F93CF93DF93CDB7DEB794
:101A00006C970FB6F894DEBF0FBECDBF6C017B01A3
:101A100086E0ECE0F1E0DE01519601900D928A95AE
:101A2000E1F73B0121E5620E711CD301BC90FB0183
:101A3000E75AFF4F108186E0FE017196A954B10963
:101A400001900D928A95E1F7412F50E06E5A7F4F39
:101A5000C7010E94DC17F701178380E4878781E0C4
:101A6000808B80E6818BB28AD7015396389686E0C8
:101A700001900D928A95E1F79E2DF7018E2F891B1B
:101A8000811718F48191808FF9CF4701FFE48F0E01
:101A9000911CD4018D919C915701BFE0AB0EB11CFC
:101AA0004AE0410FDC01ED91FC910480F581E02DCD
:101AB00000E030E020E0B5010995811184C0F40117
:101AC00080819181DC01ED91FC910680F781E02D10
:101AD00028EE33E040E4B5010995F70187858111CF
:101AE00072C0D3018C9190E4978791E0908B90E342
:101AF000918B828BF40180819181DC01ED91FC91CD
:101B00000480F581E02D30E020E044E0B501099546
:101B1000811153C0F40180819181DC01ED91FC9130
:101B20000680F781E02D28EE33E040E4B501099509
:101B3000F7018785811141C080E17096DE01119621
:101B400001900D928A95E1F7BE016F5F7F4FCE0144
:101B500047960E94DC098F89988DD60111969C9337
:101B60008E93898D9A8D13969C938E9312978B8D5D
:101B70009C8D15969C938E931497188E1F8A1A8E9F
:101B8000198E1C8E1B8ECE0147960E947308C601CB
:101B90006C960FB6F894DEBF0FBECDBFDF91CF912C
:101BA0001F910F91FF90EF90DF90CF90BF90AF907B
:101BB0009F908F907F906F90089563EF71E08AED12
:101BC00092E00E94AD076BEE71E0C6010E94DC0955
:101BD000DECF1F920F920FB60F9211242F933F93D7
:101BE0004F935F936F937F938F939F93AF93BF9325
:101BF000EF93FF938AED92E00E94E001FF91EF9155
:101C0000BF91AF919F918F917F916F915F914F9114
:101C10003F912F910F900FBE0F901F9018951F921C
:101C20000F920FB60F9211242F938F939F93EF93E0
:101C3000FF93E091EA02F091EB028081E091F002E3
:101C4000F091F10282FD1BC090818091F3028F5FC1
:101C50008F732091F402821741F0E091F302F0E0DB
:101C6000E652FD4F958F8093F302FF91EF919F9184
:101C70008F912F910F900FBE0F901F90189580811C
:101C8000F4CF1F920F920FB60F9211242F933F9310
:101C90008F939F93AF93BF93809158029091590275
:101CA000A0915A02B0915B023091570223E0230FBA
:101CB0002D3758F50196A11DB11D20935702809331
:101CC000580290935902A0935A02B0935B028091FC
:101CD0005C0290915D02A0915E02B0915F0201965C
:101CE000A11DB11D80935C0290935D02A0935E02E2
:101CF000B0935F02BF91AF919F918F913F912F91D0
:101D00000F900FBE0F901F90189526E8230F029694
:101D1000A11DB11DD2CF1F920F920FB60F921124A9
:101D20002F933F934F935F936F937F938F939F93E3
:101D3000AF93BF93EF93FF938091B900887F803674
:101D400009F44AC0F0F5883209F4A7C018F58031CB
:101D500009F49BC0B8F4882309F4F9C0883009F469
:101D600094C0FF91EF91BF91AF919F918F917F911F
:101D70006F915F914F913F912F910F900FBE0F90F8
:101D80001F901895883109F488C0803251F78093EC
:101D9000A80214C0803409F49DC040F48033B9F324
:101DA0008833F9F68093A80285ECB0C0803509F439
:101DB00085C0883509F496C0883499F60E94B80C1D
:101DC000D0CF883909F48CC038F5883729F050F421
:101DD000883611F0803729F683E08093AA021092AA
:101DE000560257C0883809F47BC0803919F0803812
:101DF00009F0B7CF80915602803208F071C0E091AF
:101E0000560281E08E0F809356028091BB00F0E075
:101E1000EA5CFD4F80833DC0803B39F0E0F4803ABE
:101E200009F479C0883A09F09CCF84E08093AA0233
:101E30001092350210923402E091D402F091D50252
:101E400009958091340281110FC081E080933402A2
:101E50001092140209C0803C09F4A6CF883C09F412
:101E6000A3CF883B09F07DCFE091350281E08E0F52
:101E700080933502F0E0EC5EFD4F80818093BB00E3
:101E8000909135028091340229C08091850280931F
:101E9000BB0085EC8093BC0064CF9091A702809139
:101EA000A602981758F5E091A70281E08E0F809363
:101EB000A702F0E0EA57FD4F8081E9CFE091A70249
:101EC00081E08E0F8093A7028091BB00F0E0EA577B
:101ED000FD4F80839091A7028091A6029817C8F2C7
:101EE00085E8D8CFE091A70281E08E0F8093A7020A
:101EF0008091BB00F0E0EA57FD4F80838091A902FA
:101F000081115CCF81E08093840284EA8093BC00DD
:101F10001092AA0226CF85EC8093BC001092AA02F0
:101F200080915602803230F4E0915602F0E0EA5C93
:101F3000FD4F10826091560270E0E091D202F09164
:101F4000D30286E392E00995109256020ACF1092CE
:101F5000A80234CFDF92EF92FF920F931F93CF939B
:101F6000DF93EC01D62EFC01EF5AFF4F84E0808313
:101F7000399680E78083319681E0808311821282D6
:101F80001382148216821582379680831182128200
:101F90001382148221E030E03683258337968083D4
:101FA000118212821382148282E090E096838583EC
:101FB0008E010F581F4FF8011082118264E471E006
:101FC000C80102960E94DC0985E0E82EF12CF80198
:101FD000F186E086065F1F4FF8011082118264E4EB
:101FE00071E0C80102960E94DC09F801F186E086E2
:101FF000C059DF4FD882DF91CF911F910F91FF9091
:10200000EF90DF900895CF93DF93EC0164E471E0EB
:102010000E94DC0964E471E0CE010696DF91CF9165
:102020000C94DC09EF92FF920F931F93CF93DF93F1
:10203000EAEDF2E01382128288EE93E0A0E0B0E0D5
:1020400084839583A683B78326E131E0318320839F
:1020500025EC30E03587248724EC30E0378726876D
:1020600020EC30E0318B208B21EC30E0338B228B65
:1020700022EC30E0358B248B26EC30E0378B268B3E
:10208000118E128E138E148E08EC13E0F801138259
:10209000128284839583A683B78388E291E091833B
:1020A0008083CFE8D5E088E089831C821D821E8270
:1020B00064E471E086E995E00E94DC0961E08981D1
:1020C0000E94D60261E089810E948A0289EDE82E91
:1020D00083E0F82E80E7D7018C9360E08CED93E0ED
:1020E0000E94AA0F61E081E694E00E94AA0F62E0DC
:1020F00086EE94E00E94AA0FCCE0EBE6F5E0DF016B
:102100008C2F1D928A95E9F7CF010E940310E7E713
:10211000F5E0DF018C2F1D928A95E9F7CF010E942F
:102120000310E3E8F5E0DF011D92CA95E9F7CF015E
:102130000E9403108CE995E0F70192838183E4ED1E
:10214000F3E08AE391E09183808313830283148216
:10215000F093C703E093C603DF91CF911F910F91D6
:10216000FF90EF900895CF93DF93CDB7DEB7A1979F
:102170000FB6F894DEBF0FBECDBF789484B58260F1
:1021800084BD84B5816084BD85B5826085BD85B51B
:10219000816085BD80916E00816080936E00109299
:1021A0008100809181008260809381008091810014
:1021B00081608093810080918000816080938000A5
:1021C0008091B10084608093B1008091B000816003
:1021D0008093B00080917A00846080937A0080912F
:1021E0007A00826080937A0080917A008160809387
:1021F0007A0080917A00806880937A001092C10002
:10220000E091EA02F091EB0282E08083E091E60245
:10221000F091E7021082E091E802F091E90280E19A
:1022200080831092F202E091EE02F091EF0286E0DC
:102230008083E091EC02F091ED02808180618083E7
:10224000E091EC02F091ED02808188608083E09162
:10225000EC02F091ED02808180688083E091EC02D5
:10226000F091ED0280818F7D80830E94B30301E0B5
:102270008091D9030093B0028093D1021092D702CB
:102280001092D60281E00E94ED03182F62E370E005
:1022900080E090E00E942C031111EACF61E082E01F
:1022A0000E94D60261E083E00E94D60261E084E0F1
:1022B0000E94D60261E085E00E94D60260E08EE0D6
:1022C0000E94D6024BE2C42E44E0D42E59EDE52EF6
:1022D00053E0F52E6AE0462E512C612C712C72E3EE
:1022E000272EE5E03E2E1FEF99249394FAE08F2EDF
:1022F0008AEE90E00E944F02D60191962C9130E038
:1023000050E040E019A25E01B1E2AB0EB11CCA017F
:10231000B901A30192010E94C515605DF5016293A8
:102320005F01211531054105510589F7BF018AED8E
:1023300092E00E94AD070E94C20781E5E7E7F3E063
:10234000D701139601900D928A95E1F7D6019196E7
:102350006C91683020F4C70103960E944806F6018C
:1023600080819181DC01ED91FC910190F081E02D63
:102370000995F60180819181DC01ED91FC9102804B
:10238000F381E02D099528E5F701228B138AD60108
:102390008D919C915701B2E1AB0EB11CDC01ED9126
:1023A000FC910480F581E02D00E030E020E042E087
:1023B000B5010995F701228A338A148B958A868A9A
:1023C000D6018D919C91DC01ED91FC910480F58109
:1023D000E02D30E020E045E0B501099581110EC007
:1023E000F60180819181DC01ED91FC910680F781FD
:1023F000E02D28EE33E040E4B5010995B5E8EB0E99
:10240000F11CE5E8CE0ED11CF8E6EF16F5E0FF066C
:1024100009F06ECF0E94B30386E18093BA0080E397
:1024200099E0909361028093600285EE97E090932B
:1024300063028093620282E091E00E94D90735E056
:10244000832E912C809194058823F1F01A821982B1
:102450001C821B821E821D8266E975E0CE010196F8
:102460000E94BB090E945F01182FCE0101960E94B5
:102470007308112349F086E995E00E942A0987E054
:1024800080938F051092940580919305882309F419
:10249000F0C005E414E022E9C22EDD24D3947801D3
:1024A00029E6E21AF108C8010E970E946506D801D4
:1024B00018968C93189719969C91199789271996B5
:1024C0008C93C8010E946506F801828B9389892745
:1024D000838B8185B12C882309F460C06AEF70E09A
:1024E00080E090E00E942C03D80118968C918823FC
:1024F000B9F1F8016781683018F4C7010E944806F5
:10250000A80140515109B80167517109C7010E94E2
:10251000FE0081112AC0B701CE0101960E94F00C85
:10252000BE016F5F7F4FC8010A960E943A08CE0134
:1025300001960E9473085801F7E0AF1AB108C5016F
:102540000E946506882309F4A7C0D5018C918823D1
:1025500009F49CC0823009F4A2C085E090E098C0E4
:10256000D80151969C928E9250976091DA037091A7
:10257000DB0330E020E0A701CE0101960E94720A41
:10258000BE016F5F7F4FC60187529C4F0E943A0881
:10259000CE0101960E947308BB24B394D8015396D0
:1025A0008C91882329F16AEF70E080E090E00E942E
:1025B0002C03F8018289811175C0938E828E6091FF
:1025C000DA037091DB0321E030E0A701CE01019630
:1025D0000E94720ABE016F5F7F4FC60181529C4FFD
:1025E0000E943A08CE0101960E94730892E0B92E2B
:1025F000F8018185882319F08389811188C0BB2067
:1026000041F11A8219821C821B821E821D82B60130
:1026100067527C4FCE0101960E94BB0918861F822B
:102620001A8619861C861B86B60161527C4FCE0124
:1026300007960E94BB09BE016F5F7F4F8B2D0E94E2
:10264000ED09CE0107960E947308CE0101960E9403
:1026500073080B571F4FFCE0CF0ED11C26EBC216A0
:1026600021E0D20609F01BCF0E94B30386E18093DC
:10267000BA0080E090E0892B09F4E4CE0E94CC01FE
:10268000882309F4DFCE0E940000DCCE84E090E0D5
:10269000F801918B808B69CF81E090E0F9CF83E0E6
:1026A00090E0F6CF6781683018F4C7010E944806B1
:1026B000A80140515109B80167517109C7010E9431
:1026C000FE0081117CCFB701CE0101960E94F00C73
:1026D000BE016F5F7F4FC8010A960E943A08CE0183
:1026E00001960E947308F8018081882329F08230C6
:1026F00059F085E090E002C082E090E0D801519668
:102700009C938E9350975BCF81E090E0F7CF83E06E
:10271000B82E77CF89E895E00E94730883E895E0AA
:102720000E9473088DE795E00E94730887E795E0A3
:102730000E94730881E795E00E9473088BE695E09C
:102740000E94730883E695E00E94730889E595E08E
:102750000E9473088EED94E00E94730884ED94E06B
:102760000E94730889E594E00E9473088FE494E066
:102770000E94730886E995E00C947308BB274A30E1
:1027800031F4992322F4BDE2909581959F4F0C94EA
:10279000CA13BB27FB015527AA27880F991FAA1F19
:1027A000A41710F0A41B83955051B9F7A05DAA336C
:1027B00008F0A95DA193009779F7B111B193119237
:1027C000CB010C94E313DC01FC01672F719177239B
:1027D000E1F7329704C07C916D9370836291AE17DC
:1027E000BF07C8F308950E94351408F481E00895E6
:1027F000E89409C097FB3EF490958095709561959B
:102800007F4F8F4F9F4F9923A9F0F92F96E9BB2750
:102810009395F695879577956795B795F111F8CFCC
:10282000FAF4BB0F11F460FF1BC06F5F7F4F8F4F37
:102830009F4F16C0882311F096E911C0772321F02D
:102840009EE8872F762F05C0662371F096E8862FC5
:1028500070E060E02AF09A95660F771F881FDAF71C
:10286000880F9695879597F90895990F0008550F49
:10287000AA0BE0E8FEEF16161706E807F907C0F006
:1028800012161306E407F50798F0621B730B840B0E
:10289000950B39F40A2661F0232B242B252B21F4E8
:1028A00008950A2609F4A140A6958FEF811D811D88
:1028B000089597F99F6780E870E060E008959FEFC2
:1028C00080EC089500240A941616170618060906C7
:1028D000089500240A941216130614060506089596
:1028E000092E0394000C11F4882352F0BB0F40F41E
:1028F000BF2B11F460FF04C06F5F7F4F8F4F9F4F5E
:10290000089557FD9058440F551F59F05F3F71F0DF
:102910004795880F97FB991F61F09F3F79F0879546
:102920000895121613061406551FF2CF4695F1DFCF
:1029300008C0161617061806991FF1CF869571055F
:10294000610508940895E894BB2766277727CB0193
:1029500097F908952F923F924F925F926F927F92D4
:102960008F929F92AF92BF92CF92DF92EF92FF929F
:102970000F931F93CF93DF93CDB7DEB7CA1BDB0B4B
:102980000FB6F894DEBF0FBECDBF09942A883988F0
:1029900048885F846E847D848C849B84AA84B984F7
:1029A000C884DF80EE80FD800C811B81AA81B98103
:1029B000CE0FD11D0FB6F894DEBF0FBECDBFED0117
:1029C00008955058BB27AA270E94F9140C9470143C
:1029D0000E94621438F00E94691420F039F49F3F7D
:1029E00019F426F40C945F140EF4E095E7FB0C94B4
:1029F0005914E92F0E94811458F3BA17620773071C
:102A00008407950720F079F4A6F50C94A3140EF42E
:102A1000E0950B2EBA2FA02D0B01B90190010C01EE
:102A2000CA01A0011124FF27591B99F0593F50F406
:102A3000503E68F11A16F040A22F232F342F44275E
:102A4000585FF3CF469537952795A795F040539556
:102A5000C9F77EF41F16BA0B620B730B840BBAF026
:102A60009150A1F0FF0FBB1F661F771F881FC2F791
:102A70000EC0BA0F621F731F841F48F487957795A5
:102A80006795B795F7959E3F08F0B0CF9395880F5F
:102A900008F09927EE0F9795879508950E94621583
:102AA0000C9470140E94691458F00E94621440F053
:102AB00029F45F3F29F00C94591451110C94A4147B
:102AC0000C945F140E94811468F39923B1F3552389
:102AD00091F3951B550BBB27AA2762177307840731
:102AE00038F09F5F5F4F220F331F441FAA1FA9F3C7
:102AF00035D00E2E3AF0E0E832D091505040E695B5
:102B0000001CCAF72BD0FE2F29D0660F771F881F15
:102B1000BB1F261737074807AB07B0E809F0BB0B08
:102B2000802DBF01FF2793585F4F3AF09E3F51051C
:102B300078F00C9459140C94A4145F3FE4F3983E7D
:102B4000D4F3869577956795B795F7959F5FC9F705
:102B5000880F911D9695879597F90895E1E0660F86
:102B6000771F881FBB1F621773078407BA0720F0FF
:102B7000621B730B840BBA0BEE1F88F7E095089568
:102B80000E94351408F48FEF0895A1E21A2EAA1BB3
:102B9000BB1BFD010DC0AA1FBB1FEE1FFF1FA2170D
:102BA000B307E407F50720F0A21BB30BE40BF50B0A
:102BB000661F771F881F991F1A9469F76095709593
:102BC000809590959B01AC01BD01CF010895EE0F5A
:102BD000FF1F0590F491E02D09940F931F93CF935D
:102BE000DF938230910510F482E090E0E0919F0540
:102BF000F091A00530E020E0B0E0A0E0309799F43B
:102C00002115310509F44AC0281B390B2430310540
:102C1000D8F58A819B816115710589F1FB01938348
:102C20008283FE0111C040815181028113814817C6
:102C30005907E0F04817590799F4109761F0129678
:102C40000C93129713961C933296CF01DF91CF917C
:102C50001F910F91089500939F051093A005F4CF45
:102C60002115310551F04217530738F0A901DB0156
:102C70009A01BD01DF01F801C1CFEF01F9CF9093B7
:102C8000A00580939F05CDCFFE01E20FF31F819336
:102C900091932250310939832883D7CF20919D0504
:102CA00030919E05232B41F42091020130910301C4
:102CB00030939E0520939D052091000130910101E4
:102CC0002115310541F42DB73EB7409104015091D3
:102CD0000501241B350BE0919D05F0919E05E2173F
:102CE000F307A0F42E1B3F0B2817390778F0AC012F
:102CF0004E5F5F4F2417350748F04E0F5F1F50930C
:102D00009E0540939D05819391939FCFF0E0E0E075
:102D10009CCFCF93DF930097E9F0FC0132971382A9
:102D20001282A0919F05B091A005ED0130E020E056
:102D30001097A1F420813181820F931F20919D056E
:102D400030919E052817390709F061C0F0939E0560
:102D5000E0939D05DF91CF910895EA01CE17DF073B
:102D6000E8F54A815B819E0141155105B1F7E90102
:102D7000FB83EA8349915991C40FD51FEC17FD07D6
:102D800061F4808191810296840F951FE9019983F6
:102D90008883828193819B838A83F0E0E0E01296AE
:102DA0008D919C9113970097B9F52D913C911197B6
:102DB000CD010296820F931F20919D0530919E05B3
:102DC0002817390739F6309751F51092A00510925F
:102DD0009F05B0939E05A0939D05BCCFD383C2836E
:102DE00040815181840F951FC817D90761F44E5F48
:102DF0005F4F88819981480F591F518340838A8191
:102E00009B81938382832115310509F0B0CFF09324
:102E1000A005E0939F059ECFFD01DC01C0CF13828A
:102E20001282D7CFB0E0A0E0E8E1F7E10C94AC1457
:102E30008C01009751F4CB010E94ED158C01C80163
:102E4000CDB7DEB7E0E10C94C814FC01E60FF71F24
:102E50009C0122503109E217F30708F49DC0D90103
:102E6000CD91DC911197C617D70798F0C530D105E1
:102E700030F3CE0104978617970708F3C61BD70BCC
:102E80002297C193D1936D937C93CF010E948916B1
:102E9000D6CF5B01AC1ABD0A4C018C0E9D1EA091D1
:102EA0009F05B091A005512C412CF12CE12C1097DD
:102EB00031F580919D0590919E058815990509F041
:102EC0005CC04616570608F058C0809100019091EA
:102ED0000101009741F48DB79EB7409104015091D4
:102EE0000501841B950BE817F90708F055C0F0930E
:102EF0009E05E0939D05F90171836083A0CF8D91BC
:102F00009C91119712966C90129713967C90139740
:102F1000A815B90559F56C0142E0C40ED11CCA14BC
:102F2000DB0420F1AC014A195B09DA01129615970E
:102F300080F06282738251834083D9016D937C93C8
:102F4000E114F10471F0D7011396FC93EE931297FC
:102F500076CF22968C0F9D1FF90191838083F30118
:102F6000EFCFF093A005E0939F0569CF481659066F
:102F700008F42C017D01D3019ACFCB010E94ED15FD
:102F80007C01009749F0AE01B8010E94DC17C8012E
:102F90000E948916870153CF10E000E050CFFB015B
:102FA000DC0104C08D910190801921F44150504002
:102FB000C8F7881B990B0895FB01DC0102C0019042
:102FC0000D9241505040D8F70895FB01DC0101906B
:102FD0000D920020E1F70895FB01DC0141505040C3
:102FE00048F001900D920020C9F701C01D92415098
:102FF0005040E0F7089510E0CDE9D0E004C0FE01B4
:103000000E94E7152196CE39D107C9F7F894FFCF72
:103010000000A10580000000FF00FF00FFFFFFFF90
:10302000FFFF00000000020262018F016A02C0017E
:103030009E01B201000000001606E9054506BF0525
:10304000E205CF05C00500000000CA03DD04CB0B7C
:103050000F070D0A0048616E646C6520526571753A
:103060006573740053756200303537004472610037
:10307000676F6E0048616E646C65205265636569B8
:10308000766500546865204475656C20486173203E
:10309000456E64656421004576656E7420526563F3
:1030A0006965766564202D20436C656172696E6781
:1030B000204461746100436F6D6D756E6963617466
:1030C000696F6E204661696C7572652100466169A1
:1030D0006C656420446174613A2000496E636F6DD1
:1030E000696E672049443A20007E0048616E646C36
:1030F000696E6720446174613A20004661696C75AD
:103100007265005B5741524E5D20436F756C6420C1
:103110006E6F74207265616420626C6F636B210A4C
:023120000000AD
:107800000C94343C0C94513C0C94513C0C94513CE1
:107810000C94513C0C94513C0C94513C0C94513CB4
:107820000C94513C0C94513C0C94513C0C94513CA4
:107830000C94513C0C94513C0C94513C0C94513C94
:107840000C94513C0C94513C0C94513C0C94513C84
:107850000C94513C0C94513C0C94513C0C94513C74
:107860000C94513C0C94513C11241FBECFEFD8E036
:10787000DEBFCDBF11E0A0E0B1E0ECE9FFE702C060
:1078800005900D92A230B107D9F712E0A2E0B1E065
:1078900001C01D92AD30B107E1F70E942D3D0C945F
:1078A000CC3F0C94003C982F959595959595959582
:1078B000905D8F708A307CF0282F295A8091C0000B
:1078C00085FFFCCF9093C6008091C00085FFFCCF60
:1078D0002093C6000895282F205DF0CF982F809127
:1078E000C00085FFFCCF9093C6000895EF92FF92F1
:1078F0000F931F93EE24FF2487018091C00087FD22
:1079000017C00894E11CF11C011D111D81E4E8164B
:1079100082E4F8068FE0080780E0180770F3E09132
:107920000401F091050109958091C00087FFE9CF1E
:107930008091C6001F910F91FF90EF9008950E94D3
:10794000763C982F8091C00085FFFCCF9093C600B5
:1079500091362CF490330CF09053892F089597555D
:10796000892F08951F930E949F3C182F0E949F3CCF
:107970001295107F810F1F9108951F93182F882350
:1079800021F00E94763C1150E1F71F9108951F935A
:10799000182F0E94763C803249F0809103018F5F5E
:1079A000809303018530C1F01F9108958091C0003C
:1079B00085FFFCCF84E18093C6008091C00085FFE5
:1079C000FCCF1093C6008091C00085FFFCCF80E102
:1079D0008093C6001F910895E0910401F091050184
:1079E00009951F9108950E94763C803241F0809164
:1079F00003018F5F80930301853081F008958091AA
:107A0000C00085FFFCCF84E18093C6008091C00058
:107A100085FFFCCF80E18093C6000895E0910401CA
:107A2000F09105010995089540E951E08823A1F0FE
:107A30002D9A28EE33E0FA013197F1F721503040CA
:107A4000D1F72D9828EE33E0FA013197F1F7215064
:107A50003040D1F7815061F708953F924F925F9285
:107A60006F927F928F929F92AF92BF92CF92DF924E
:107A7000EF92FF920F931F93CF93DF93000080E16B
:107A80008093C4001092C50088E18093C10086E015
:107A90008093C2005098589A259A81E00E94143D24
:107AA00024E1F22E9EE1E92E85E9D82E0FE0C02ECA
:107AB00010E1B12EAA24A394B1E49B2EA6E58A2E50
:107AC000F2E57F2EE0E26E2E79E4572E63E5462E36
:107AD00050E5352E0E94763C8033B1F18133B9F107
:107AE000803409F46FC0813409F476C0823409F41B
:107AF00085C0853409F488C0803531F1823521F1A3
:107B0000813511F1853509F485C0863509F48DC0BC
:107B1000843609F496C0843709F403C1853709F423
:107B200072C1863709F466C0809103018F5F80932C
:107B30000301853079F6E0910401F0910501099582
:107B40000E94763C803351F60E94F33CC3CF0E94E2
:107B5000763C803249F78091C00085FFFCCFF092DF
:107B6000C6008091C00085FFFCCF9092C600809136
:107B7000C00085FFFCCF8092C6008091C00085FFC9
:107B8000FCCF7092C6008091C00085FFFCCF609250
:107B9000C6008091C00085FFFCCF5092C600809146
:107BA000C00085FFFCCF4092C6008091C00085FFD9
:107BB000FCCF3092C6008091C00085FFFCCFB09210
:107BC000C60088CF0E94763C863808F4BDCF0E945C
:107BD000763C0E94F33C7ECF0E94763C803809F4CC
:107BE0009CC0813809F40BC1823809F43CC1883942
:107BF00009F48FC080E00E94C73C6CCF84E10E94F2
:107C0000BD3C0E94F33C66CF85E00E94BD3C0E94D3
:107C1000F33C60CF0E94763C809306010E94763C44
:107C2000809307010E94F33C55CF0E94763C80333D
:107C300009F41DC183E00E94BD3C80E00E94C73C66
:107C400049CF0E94763C809309020E94763C809343
:107C5000080280910C028E7F80930C020E94763C79
:107C6000853409F415C18091080290910902892B8D
:107C700089F000E010E00E94763CF801E85FFE4FDA
:107C800080830F5F1F4F80910802909109020817AF
:107C9000190788F30E94763C803209F045CF809125
:107CA0000C0280FF01C16091060170910701660F0F
:107CB000771F7093070160930601A0910802B091AD
:107CC00009021097C9F0E8E0F1E09B01AD014E0F09
:107CD0005F1FF999FECF32BD21BD819180BDFA9A17
:107CE000F99A2F5F3F4FE417F50799F76A0F7B1F4B
:107CF00070930701609306018091C00085FFFCCF5F
:107D0000F092C6008091C00085FFFCCFB092C60003
:107D1000E1CE83E00E94C73CDDCE82E00E94C73CFA
:107D2000D9CE0E94763C809309020E94763C8093D3
:107D300008028091060190910701880F991F909386
:107D40000701809306010E94763C853409F4A6C0A1
:107D500080910C028E7F80930C020E94763C8032D0
:107D600009F0B8CE8091C00085FFFCCFF092C6002C
:107D7000609108027091090261157105B9F140E046
:107D800050E080910C02A82FA170B82FB27011C0E2
:107D9000BB2309F45CC0E0910601F0910701319624
:107DA000F0930701E09306014F5F5F4F46175707B7
:107DB000E8F4AA2369F3F999FECF209106013091E6
:107DC000070132BD21BDF89A90B58091C00085FFB2
:107DD000FCCF9093C6002F5F3F4F30930701209355
:107DE00006014F5F5F4F4617570718F38091C00099
:107DF00085FDE5CE8091C00085FFF8CFE0CE81E023
:107E00000E94C73C67CE0E94763C803209F08CCE3F
:107E10008091C00085FFFCCFF092C6008091C00029
:107E200085FFFCCFE092C6008091C00085FFFCCFAB
:107E3000D092C6008091C00085FFFCCFC092C600E2
:107E40008091C00085FFFCCFB092C60043CEE09188
:107E50000601F091070194918091C00085FFFCCF4D
:107E60009093C6009CCF80E10E94C73C33CE0E9415
:107E7000763C0E94763C182F0E94763C112309F430
:107E800083C0113009F484C08FE00E94C73C22CE29
:107E900080910C02816080930C02E5CE80910C02EF
:107EA000816080930C0259CF809107018823880F4D
:107EB000880B8A2180930B02809106019091070123
:107EC000880F991F90930701809306018091080203
:107ED00080FF09C080910802909109020196909359
:107EE000090280930802F894F999FECF1127E091D6
:107EF0000601F0910701C8E0D1E08091080290915D
:107F00000902103091F40091570001700130D9F34B
:107F100003E000935700E89500915700017001308D
:107F2000D9F301E100935700E89509901990009169
:107F3000570001700130D9F301E000935700E89534
:107F40001395103498F011270091570001700130FB
:107F5000D9F305E000935700E895009157000170B0
:107F60000130D9F301E100935700E895329602976A
:107F700009F0C7CF103011F00296E5CF112480919F
:107F8000C00085FFB9CEBCCE8EE10E94C73CA2CD19
:0C7F900085E90E94C73C9ECDF894FFCF0D
:027F9C00800063
:040000030000780081
:00000001FF