:100000000C94A2000C94CA000C94CA000C94CA0070
:100010000C94CA000C94CA000C94CA000C94CA0038
:100020000C94CA000C94CA000C94CA000C94CA0028
:100030000C94CA000C94CA000C94CA000C94CA0018
:100040000C94A50E0C94CA000C94730E0C944D0ED7
:100050000C94CA000C94CA000C94CA000C94CA00F8
:100060000C94EF0E0C94CA005374617274696E673D
:10007000204475656C2100206861642061206D61F9
:100080006C66756E6374696F6E21005B4552524FEA
:10009000525D205A6F6E653A200000000000240077
:1000A00027002A0000000000250028002B0004047F
:1000B0000404040404040202020202020303030310
:1000C00003030102040810204080010204081020EC
:1000D00001020408102000000008000201000003D3
:1000E000040700000000000000005B444542554743
:1000F0005D20005B424F4F545D20496E6974696119
:100100006C697A65205A6F6E652000496E69746962
:10011000616C697A6174696F6E20436F6D706C6594
:1001200074650A005B4552524F525D20496E7661FC
:100130006C6964204576656E742054797065210081
:10014000D410CC1411241FBECFEFD8E0DEBFCDBF3A
:1001500026E0A0E6B2E001C01D92A130B207E1F7AF
:1001600012E0A0E0B1E0E4E9F2E302C005900D92F4
:10017000A036B107D9F710E0C1EAD0E004C021975A
:10018000FE010E942917C03AD107C9F70E947511D4
:100190000C943D190C940000E091B002F091B10272
:1001A000309729F0109225031092240309940895A2
:1001B000CF93DF93EC01E091AE02F091AF02309764
:1001C000F1F090912703809126039817C0F090E0FA
:1001D000292F30E02617370754F4DE01A20FB31F92
:1001E0004C912E543D4FD9014C939F5FF1CF10920B
:1001F000270360932603CB01DF91CF910994DF9110
:10020000CF9108958F929F92AF92BF92CF92DF923B
:10021000EF92FF920F93CF93DF93EC017B014A01A2
:100220008AE48F8781E0888B198A5E012FE4A20E11
:10023000B11CD5018D919C916E01BFE0CB0ED11CFC
:10024000DC01ED91FC910480F581E02D00E030E0CF
:1002500020E043E0B6010995811126C0F5018081B7
:100260009181DC01ED91FC910680F781E02D28EE73
:1002700033E040E4B601099597FD16C08F858130C3
:1002800099F48C89F401808380E09C898917C8F4F3
:10029000282F30E0FE01E20FF31F95892E0D3F1D40
:1002A000D9019C938F5FF1CF80E0DF91CF910F91C7
:1002B000FF90EF90DF90CF90BF90AF909F908F9086
:1002C000089581E0F2CF80E008950895AF92BF9243
:1002D000CF92DF92EF92FF920F931F93CF93DF9312
:1002E0006C017B018B01040F151FEB015E01AE1841
:1002F000BF08C017D10759F06991D601ED91FC9163
:100300000190F081E02DC6010995892B79F7C5018F
:10031000DF91CF911F910F91FF90EF90DF90CF90E1
:10032000BF90AF900895FC01538D448D252F30E090
:10033000842F90E0821B930B541710F0CF960895F2
:1003400001970895FC01918D828D981761F0A28D1F
:10035000AE0FBF2FB11D5D968C91928D9F5F9F73E5
:10036000928F90E008958FEF9FEF0895FC01918D9B
:10037000828D981731F0828DE80FF11D858D90E008
:1003800008958FEF9FEF0895FC01918D228D892FA5
:1003900090E0805C9F4F821B91098F73992708958D
:1003A00088E293E00E94C40121E0892B09F420E057
:1003B000822F089580E090E0892B29F00E94D001DF
:1003C00081110C9400000895FC01A48DA80FB92F91
:1003D000B11DA35ABF4F2C91848D90E001968F736D
:1003E0009927848FA689B7892C93A089B1898C918C
:1003F000837080648C93938D848D981306C00288DB
:10040000F389E02D80818F7D80830895EF92FF92A4
:100410000F931F93CF93DF93EC0181E0888F9B8D27
:100420008C8D98131AC0E889F989808185FF15C0E1
:100430009FB7F894EE89FF896083E889F989808104
:100440008370806480839FBF81E090E0DF91CF91D3
:100450001F910F91FF90EF900895F62E0B8D10E0F5
:100460000F5F1F4F0F731127E02E8C8D8E110CC064
:100470000FB607FCFACFE889F989808185FFF5CFAF
:10048000CE010E94E401F1CFEB8DEC0FFD2FF11DA9
:10049000E35AFF4FF0829FB7F8940B8FEA89FB89EC
:1004A00080818062CFCF682F88E293E00C940602AF
:1004B0000F931F93CF93DF938C01D0E0C0E0F8013E
:1004C000EC0FFD1F6491662341F088E293E00E94E7
:1004D0000602892B11F02196F2CFCE01DF91CF9148
:1004E0001F910F910895CF93DF93EC01888D88239E
:1004F000B9F0AA89BB89E889F9898C9185FD03C087
:10050000808186FD0DC00FB607FCF7CF8C9185FF6B
:10051000F2CF808185FFEDCFCE010E94E401E9CFCB
:10052000DF91CF91089590E0FC01EA52FF4F2491B2
:10053000FC01EE53FF4F3491FC01E255FF4FE49173
:10054000EE23C9F0222339F0233001F1A8F4213041
:1005500019F1223029F1F0E0EE0FFF1FEC55FF4FAB
:10056000A591B4918FB7F894EC91611126C03095A4
:100570003E233C938FBF08952730A9F02830C9F05F
:10058000243049F7809180008F7D03C080918000E6
:100590008F7780938000DFCF84B58F7784BDDBCFEA
:1005A00084B58F7DFBCF8091B0008F778093B000B2
:1005B000D2CF8091B0008F7DF9CF3E2BDACFCF9391
:1005C000DF9390E0FC01EE53FF4F249182559F4F43
:1005D000FC0184918823D1F090E0880F991FFC01E1
:1005E000E656FF4FA591B491FC01EC55FF4FC59124
:1005F000D49161110EC09FB7F8948C91E22FE095D1
:100600008E238C932881E223E8839FBFDF91CF91D3
:1006100008958FB7F894EC91E22BEC938FBFF6CF4F
:100620003FB7F8948091AA029091AB02A091AC02DE
:10063000B091AD0226B5A89B05C02F3F19F00196D9
:10064000A11DB11D3FBFBA2FA92F982F8827BC012C
:10065000CD01620F711D811D911D42E0660F771F54
:10066000881F991F4A95D1F708958F929F92AF9254
:10067000BF92CF92DF92EF92FF924B015C010E94FA
:1006800010036B017C010E9410036C197D098E0917
:100690009F09683E734081059105A8F321E0821A05
:1006A0009108A108B10888EEC80E83E0D81EE11CAD
:1006B000F11C81149104A104B10429F7FF90EF907B
:1006C000DF90CF90BF90AF909F908F900895DC0106
:1006D000ED91FC910284F385E02D09950895DC01EC
:1006E000ED91FC910190F081E02D09950895209104
:1006F0008202260F3327331F21323105ECF420917B
:10070000F802FC0190E080E0243069F082E0089576
:10071000A09182022191AC014E595D4FA40FB52FDB
:10072000B11D2C930196861798F380918202680F71
:100730006093820280E0089581E008951092F802AB
:1007400081E08093F7021092D20261E082E10E9480
:10075000930261E083E10E949302E9EBF0E0808183
:100760008E7F808380818D7F808388E48093B80032
:1007700085E48093BC00089510922703109226030D
:1007800010922503109224030E949E038CEC90E0AB
:10079000909323038093220388ED90E090932103AC
:1007A0008093200308950C94BC03CF93DF9391E0D2
:1007B000909361028823B9F0C091B800D091BA003B
:1007C0008091BC008A7B8093BC0060E082E10E9443
:1007D000930260E083E10E9493020E949E03D09303
:1007E000BA00C093B800DF91CF9108958F929F9285
:1007F000AF92BF92CF92DF92EF92FF920F931F932F
:10080000CF93DF93D0912403D13208F0D7C0182FB3
:10081000C0911F030E9410036B017C018091F802BC
:1008200081116BC082E08093F8021093F7028FEF82
:100830008093F6021092F502D093F402AFEFB2E08B
:10084000E4EDF2E080E0D81391C01092D3028091E1
:10085000D302CC0FC82BC093D3028091D202813037
:1008600009F088C01092D2020E9410036B017C0133
:100870008091D3028093BB008091FA029091FB0299
:10088000A091FC02B091FD02892B8A2B8B2BA1F049
:100890000E9410030091FA021091FB022091FC02C9
:1008A0003091FD026C197D098E099F090617170703
:1008B0002807390708F442C08091BC0083FDD8CFD7
:1008C00085EC8093BC000E9410036B017C01809139
:1008D000F802823009F450C08091F6028F3F09F48B
:1008E0006FC08091F602803209F46CC08091F602EC
:1008F000803309F469C084E026C08091FA029091A7
:10090000FB02A091FC02B091FD02892B8A2B8B2B5C
:1009100009F484CF0E9410038090FA029090FB02A9
:10092000A090FC02B090FD026C197D098E099F0910
:1009300086169706A806B90608F070CF8091F902CE
:100940000E94D50385E01092250310922403109293
:10095000FE02DF91CF911F910F91FF90EF90DF90FA
:10096000CF90BF90AF909F908F9008959D9191935D
:100970008F5F69CF85EEA5CF8091FA029091FB023F
:10098000A091FC02B091FD02892B8A2B8B2B09F4DC
:100990009ECF0E9410030091FA021091FB02209159
:1009A000FC023091FD026C197D098E099F09061722
:1009B00017072807390708F08ACFC0CF81E0C3CFD7
:1009C00080E0C1CF82E0BFCF83E0BDCF81E08093E4
:1009D000FE0284E280931F031092250310922403E9
:1009E00064E170E080E090E00E94350381E00C94C7
:1009F000F603CF92DF92EF92FF920F931F93CF9364
:100A0000DF93D82FC62F613208F098C00E941003E0
:100A10006B017C018091F80281116BC081E08093B1
:100A2000F8028093F7029FEF9093F6021092F5027E
:100A30009C0F9093F4028093D3028091D302DD0F38
:100A4000D82BD093D3028091D202813009F078C0A4
:100A50001092D2020E9410036B017C018091D3029C
:100A60008093BB008091FA029091FB02A091FC025E
:100A7000B091FD02892B8A2B8B2BA1F00E941003D1
:100A80000091FA021091FB022091FC023091FD02CC
:100A90006C197D098E099F09061717072807390762
:100AA00008F448C08091BC0083FDD8CF85EC8093CA
:100AB000BC000E9410036B017C018091F802813020
:100AC00009F440C08091F5028C1710F4C091F50232
:100AD000E4EDF2E0A2EBB2E080E08C1355C08C2F85
:100AE000DF91CF911F910F91FF90EF90DF90CF900A
:100AF00008958091FA029091FB02A091FC02B091BE
:100B0000FD02892B8A2B8B2B09F484CF0E941003C2
:100B10000091FA021091FB022091FC023091FD023B
:100B20006C197D098E099F090617170728073907D1
:100B300008F070CF8091F9020E94D503C0E0CFCFBA
:100B400085EEB5CF8091FA029091FB02A091FC0254
:100B5000B091FD02892B8A2B8B2B09F4AECF0E941A
:100B600010030091FA021091FB022091FC023091D7
:100B7000FD026C197D098E099F09061717072807C2
:100B8000390708F09ACFD6CF91919D938F5FA5CF6B
:100B90000895E091270380912603E81730F4F0E0F0
:100BA000EE54FD4F808190E008958FEF9FEF089500
:100BB00090912703809126032FEF3FEF981748F479
:100BC000E92FF0E0EE54FD4F208130E09F5F9093DD
:100BD0002703C90108958091260390912703891B5B
:100BE000990B0895CF92DF92EF92FF920F931F938C
:100BF000CF93DF937C01CB018A012091FE02222357
:100C000089F0EB016B01C40ED51ECC15DD0569F032
:100C10006991D701ED91FC910190F081E02DC70120
:100C20000995F3CF642F0E947703C801DF91CF911C
:100C30001F910F91FF90EF90DF90CF900895CF9389
:100C4000DF931F92CDB7DEB769832091FE02222386
:100C5000F9F020912403203258F021E030E0FC012B
:100C60003383228390E080E00F90DF91CF9108954D
:100C700080912503E82FF0E0E150FD4F99819083AA
:100C80008F5F809325038093240381E090E0ECCF75
:100C900061E0CE0101960E947703F7CF90E080E0FB
:100CA0000895865A9F4FFC01808191E09093FE0247
:100CB00080931F03109225031092240381E090E09B
:100CC0009C0102C0220F331F6A95E2F7B90186E149
:100CD00094E00E941F0681E00C94F6038F929F928D
:100CE000AF92BF92CF92DF92EF92FF920F931F933A
:100CF000CF93DF937C018C010F5F1F4FC2E0F8019F
:100D000061918F018C2F0E949302CF5FC630B9F79B
:100D10009CE0D92E812C912C5401C8EED3E010E038
:100D200000E020E4C22E84E070E060E0C0927C002D
:100D300090917A00906490937A0090917A0096FD59
:100D4000FCCF9091780020917900322F292F620FEB
:100D5000731F815059F776956795769567950617B5
:100D6000170708F48B016C177D0708F4EB0190E07E
:100D700080E00E943A159B01AC01C501B4010E94BC
:100D800024164B015C01DA94D110CDCFC00FD11FD6
:100D9000BE0190E080E00E943A159B01AC01C501C4
:100DA000B4010E94231620E030E040E251E40E94AA
:100DB00090164B015C0120E030E0A9010E9435153E
:100DC00087FD34C020E030E04AE754E4C501B401B7
:100DD0000E940217C1E01816B4F020E030E046E1AE
:100DE00053E4C501B4010E94351587FD1FC0C1E061
:100DF00020E030E04AEF53E4C501B4010E9402173D
:100E000018160CF0C0E0F701C08381E0C13009F48E
:100E100080E0DF91CF911F910F91FF90EF90DF90D5
:100E2000CF90BF90AF909F908F900895C2E0EBCF8E
:100E3000AF92BF92CF92DF92EF92FF920F931F93E8
:100E4000CF93DF938C01D62EC72EF42E5901D0E01C
:100E5000C0E082E0E82EE40E6E2D80E28E1508F4EC
:100E600060E284E20E94F904109227038093260333
:100E7000811110C061E070E080E090E00E943503D5
:100E80002196A114B10441F3AC16BD0628F78FEFEB
:100E90009FEF10C0F801828193810E94670380FF59
:100EA000E9CFF801828193810E946703882369F06A
:100EB0008DEF9FEFDF91CF911F910F91FF90EF90FA
:100EC000DF90CF90BF90AF900895F8018281938119
:100ED0000E9467038111ECCFF801828193810E9407
:100EE00067038F3F29F7F801828193810E9467038E
:100EF000C82FF801828193810E9467038C0FC1F68D
:100F0000F801D481EE24E394ED0E828193810E9456
:100F10006703853D69F6F801828193810E9467032A
:100F2000E812C6CFC2508CEF9FEFFC1618F2DA52CF
:100F3000BD2CED2CFC2CF801828193812E2D2B19D8
:100F40002C1738F40E946703F70181937F01D80FB3
:100F5000F2CF0E9467038D0F09F0AACFF8018281BA
:100F600093810E9467038C2F90E0A4CF61157105D7
:100F700079F0FB0101900020E9F73197AF01461BA2
:100F8000570BDC01ED91FC910280F381E02D099477
:100F900090E080E008958F929F92AF92BF920F935E
:100FA0001F93CF93DF93CDB7DEB7A1970FB6F89419
:100FB000DEBF0FBECDBF19A2423008F44AE08E0159
:100FC0000F5D1F4F842E912CB12CA12CA5019401F3
:100FD0000E940717E62FB901CA01EA30E4F4E05D88
:100FE000D801EE938D01232B242B252B79F7BD01FE
:100FF00088E293E00E94B607A1960FB6F894DEBF90
:101000000FBECDBFDF91CF911F910F91BF90AF90D9
:101010009F908F900895E95CE3CF42E050E062E456
:1010200071E088E293E00C946601CF93DF93BC01FA
:1010300088E293E00E94B607EC010E940D088C0F35
:101040009D1FDF91CF910895CF93DF930E945802A7
:10105000EC010E940D088C0F9D1FDF91CF91089528
:1010600085E491E00E9415088091F305882341F002
:101070006091F1057091F20586E194E00C94B60759
:101080008091EF058530A1F018F48430B9F108950E
:10109000863031F1873059F464E571E086E194E0FF
:1010A0000E94B60781E08093F4051092EF05089541
:1010B00068E571E086E194E00E94B6071092EF05C2
:1010C00060E08091F0050E9493026AE070E080E0A9
:1010D00090E00E94350361E08091F0050C9493024A
:1010E0006CE571E086E194E00E94B60781E08093B0
:1010F000F30588E690E00E942408D7CF60E671E00F
:1011000086E194E00E94B607D0CF0F931F93CF9350
:10111000DF938C01EB01FC01808191810097E1F06C
:101120006881798161157105A9F0428153812C8113
:101130003D814217530770F00E9427198C819D81D1
:10114000F801958384831D821C82DF91CF911F91CA
:101150000F9108950E94CB1788819981F80191839E
:1011600080838A819B81938382838C819D819583F7
:101170008483198218821B821A82E5CFFC01808148
:101180009181009711F00C94CB1708950F931F9342
:10119000CF93DF93EC0188819981009759F02A81E0
:1011A0003B812617370730F081E0DF91CF911F9107
:1011B0000F9108958B016F5F7F4F0E945418009725
:1011C00059F0998388831B830A832C813D81232BCB
:1011D00059F7FC011082E8CF80E0E7CFEF92FF9251
:1011E0000F931F93CF93DF936115710541F480E056
:1011F000DF91CF911F910F91FF90EF9008954115CE
:101200005105B1F07B01EC010C811D81040F151F0C
:10121000B8010E94C608882351F3288139818C8146
:101220009D81B701820F931F0E9427191D830C8394
:1012300081E0DECFEF92FF920F931F93CF93DF9366
:10124000CDB7DEB728970FB6F894DEBF0FBECDBF7F
:101250007C01CB014AE08E010F5F1F4FB8010E9455
:101260000015F80101900020E9F73197AF01401B0C
:10127000510BB801C7010E94EE0828960FB6F894EA
:10128000DEBF0FBECDBFDF91CF911F910F91FF90B9
:10129000EF900895EF92FF920F931F93CF93DF93F8
:1012A000EC017B018A01BA010E94C60828813981BC
:1012B000811114C02115310519F0C9010E94CB1705
:1012C000198218821D821C821B821A82CE01DF9134
:1012D000CF911F910F91FF90EF9008951D830C8384
:1012E000B701C9010E942719F1CF50E040E064E442
:1012F00071E00C944A090F931F93CF93DF9300D0B2
:10130000CDB7DEB784E691E00E9415088091F40520
:1013100081114BC09091260380912703981739F0D3
:1013200086E194E00E94D8058093EF05F3CF809189
:10133000EF05843039F1883061F18230E1F486EADA
:1013400091E00E9415086DEB71E088E293E00E9445
:10135000B60710E000E0E091F105F091F205E00F32
:10136000F11F80810E9453020F5F1F4F0D30110546
:1013700091F70E940D080F900F90DF91CF911F9170
:101380000F9108951092F30583E791E00E941508EC
:10139000F2CF81E08093F50584E491E09093F2052B
:1013A0008093F10587E891E0F1CF86EF95E00E9408
:1013B00075099091260380912703981781F086E1A3
:1013C00094E00E94D80589831A8241E050E0BE0172
:1013D0006F5F7F4F86EF95E00E94EE08EACF6BECDF
:1013E00071E088E293E00E94B6074091FA055091BF
:1013F000FB056091F6057091F70588E293E00E9485
:10140000660189ED91E0C2CFCF93DF93EC01FB0140
:101410008617970749F0608171816115710541F068
:10142000448155810E944A09CE01DF91CF910895F0
:1014300088819981009711F00E94CB171982188238
:101440001D821C821B821A82EFCFFC011182108246
:101450001382128215821482FB0101900020E9F7A9
:101460003197AF01461B570B0C944A09EF92FF923C
:101470000F931F93CF93DF93CDB7DEB763970FB66C
:10148000F894DEBF0FBECDBFF82E8B0164E471E08F
:10149000CE010E960E94250A81E0F816C9F092E06E
:1014A000F91609F452C084E291E00E942408CE01AA
:1014B0000E960E94BE0863960FB6F894DEBF0FBE6C
:1014C000CDBFDF91CF911F910F91FF90EF900895C5
:1014D000B801CE010E960E94040A0A891B89CE012A
:1014E00001967C0101151105A1F51982F092F20512
:1014F000E092F1056BED71E088E293E00E94B6079F
:1015000010E000E0E091F105F091F205E00FF11F2D
:1015100080810E9453020F5F1F4F0D30110591F71C
:101520000E940D0860E08091F0050E9493026AE03D
:1015300070E080E090E00E94350361E08091F0056A
:101540000E9493021092F505B2CFB8016A5F7F4FF7
:10155000C0CF0C30110510F00CE010E06E857F85D7
:10156000A801C7010E942E19F701E00FF11F108298
:10157000BDCF6F927F928F929F92AF92BF92CF9288
:10158000DF92EF92FF920F931F93CF93DF93CDB72C
:10159000DEB7CB58D1090FB6F894DEBF0FBECDBF72
:1015A0007C018A01490164E471E00E94250A81E519
:1015B000F8019E012F5F3F4F6901D90101900D9203
:1015C0008A95E1F7F801EF5AFF4F808163968FAF5C
:1015D0006397319687E0DE01AD5ABF4F01900D92BF
:1015E0008A95E1F7F801E75AFF4F80816B968FAF3C
:1015F0006B97319680816C968FAF6C97319687E0B0
:10160000DE01A45ABF4F01900D928A95E1F7F801CF
:10161000EE59FF4F87E0DE01AD59BF4F01900D92AB
:101620008A95E1F7F801E759FF4F87E0DE01A659F7
:10163000BF4F01900D928A95E1F7F801E059FF4FF5
:1016400086E0DE01AF58BF4F01900D928A95E1F719
:10165000380136E7630E711CD3018C91E8968FAF89
:10166000E8975801B7E7AB0EB11CF5018081E99608
:101670008FAFE9978181EA968FAFEA97EC961FAE1C
:101680001EAEEC97EE961FAE1EAEEE97C258DF4F21
:1016900019821882CE57D040B5016E5F7F4FCE01C0
:1016A00086589F4F0E94040AD50118968D919C91EF
:1016B000C058DF4F99838883C058D0405801B1E8A3
:1016C000AB0EB11CF5018081CE57DF4F8883C25825
:1016D000D0408181CD57DF4F8883C358D040CC574D
:1016E000DF4F19821882C458D040CA57DF4F198281
:1016F0001882C658D040C857DF4F19821882C85880
:10170000D040B5016E5F7F4FCE018C579F4F0E9436
:10171000040AD50118968D919C91C657DF4F998385
:101720008883CA58D040B1E08B16910439F464E044
:1017300070E0059769F462E070E00AC0C058DF4FBE
:1017400088819981C058D04061E070E0059799F395
:10175000C7010E941A09CE018C579F4F0E94BE08F4
:10176000CE0186589F4F0E94BE088A94892809F4AA
:101770005EC0D3018C914AE0B60190E00E94001552
:10178000F60101900020E9F73197AF014C195D098E
:10179000B601C7010E94EE08F801E758FF4F4481E7
:1017A000558160817181C7010E94EE08F801E158FE
:1017B000FF4F60817181C7010E941A09D7011496F9
:1017C0008D919C910B97E0F48BE890E00E94580279
:1017D000F70184819581029728F00190F081E02D36
:1017E0003097D9F510926002E0E6F2E080810E9425
:1017F000530287E790E00E942408C7010E94750900
:10180000C701C557DF4F0FB6F894DEBF0FBECDBF7F
:10181000DF91CF911F910F91FF90EF90DF90CF90CC
:10182000BF90AF909F908F907F906F900895F3013D
:10183000608170E06D5F7F4FC7010E941A09F80157
:10184000ED57FF4F4481558160817181C7010E942E
:10185000EE08F801E757FF4FACCF3196C7CF5F9244
:101860006F927F928F929F92AF92BF92CF92DF92B0
:10187000EF92FF920F931F93CF93DF93CDB7DEB715
:101880002C970FB6F894DEBF0FBECDBF7C016B0165
:10189000842EB22E532EFB018081F7018483828136
:1018A000938121E02093FE0224E220931F031092F3
:1018B00025031092240360E00E946F0360E0F701AB
:1018C000828193810E946F036FEFF7018281938180
:1018D0000E946F03182D100F61E0610FF7018281E4
:1018E00093810E946F03612F6095F701828193813C
:1018F0000E946F0364EDF701828193810E946F0360
:101900008C0C9D2C911C14EDF701828193818C1419
:101910009D04C9F4CB2CD52C5601A00EB11CF701A7
:1019200082819381AC14BD0499F14601F601608176
:101930000E946F03882371F0FFEFCF1ADF0AF401D2
:101940008081180FECCF3601F60160810E946F0391
:10195000811117C08DEF2C960FB6F894DEBF0FBE25
:10196000CDBFDF91CF911F910F91FF90EF90DF904E
:10197000CF90BF90AF909F908F907F906F905F902F
:101980000895FFEFCF1ADF0AF3018081180FBCCF53
:10199000612F61950E946F0360E0F701828193815E
:1019A0000E946F0381E00E94F60386E0E6E0F1E02A
:1019B000DE01179601900D928A95E1F70BE010E099
:1019C00067E084E20E94F9041092270380932603C3
:1019D00081110BC061E070E080E090E00E9435036F
:1019E0000150110969F78EEFB6CFF701828193811B
:1019F0000E94670380FFEECF8E010F5F1F4F5E01D5
:101A0000F7E0AF0EB11C6801F701828193810E945B
:101A10006703F80181938F01EA15FB05A9F746E0FA
:101A200050E0BF01C6010E94111921E0892B09F481
:101A300020E0822F81958FCF85ED8093BC0080912F
:101A4000FA029091FB02A091FC02B091FD02079670
:101A5000A11DB11D23E0B695A795979587952A9569
:101A6000D1F72091BC0024FD03C01092F802089524
:101A70004091FA025091FB026091FC027091FD02CC
:101A8000452B462B472B69F30097A105B10541F083
:101A900025E32A95F1F700000197A109B109E1CFEB
:101AA0008091F9020C94D5036F927F928F929F924E
:101AB000AF92BF92CF92DF92EF92FF920F931F935C
:101AC000CF93DF93CDB7DEB76C970FB6F894DEBF38
:101AD0000FBECDBF6C017B0186E0ECE0F1E0DE01E2
:101AE000519601900D928A95E1F73B0121E5620E36
:101AF000711CD301BC90FB01E75AFF4F108186E0B7
:101B0000FE017196A954B10901900D928A95E1F7F1
:101B1000412F50E06E5A7F4FC7010E941E19F701F6
:101B2000178380E4878781E0808B80E6818BB28A8F
:101B3000D7015396389686E001900D928A95E1F789
:101B40009E2DF7018E2F891B811718F48191808FAC
:101B5000F9CF4701FFE48F0E911CD4018D919C9128
:101B60005701BFE0AB0EB11C4AE0410FDC01ED9123
:101B7000FC910480F581E02D00E030E020E0B5012B
:101B80000995811184C0F40180819181DC01ED917E
:101B9000FC910680F781E02D28EE33E040E4B501AA
:101BA0000995F7018785811172C0D3018C9190E46A
:101BB000978791E0908B90E3918B828BF4018081E9
:101BC0009181DC01ED91FC910480F581E02D30E004
:101BD00020E044E0B5010995811153C0F4018081F2
:101BE0009181DC01ED91FC910680F781E02D28EEDA
:101BF00033E040E4B5010995F7018785811141C0C3
:101C000080E17096DE01119601900D928A95E1F7C0
:101C1000BE016F5F7F4FCE0147960E94250A8F89D4
:101C2000988DD60111969C938E93898D9A8D1396DB
:101C30009C938E9312978B8D9C8D15969C938E936F
:101C40001497188E1F8A1A8E198E1C8E1B8ECE0129
:101C500047960E94BE08C6016C960FB6F894DEBF88
:101C60000FBECDBFDF91CF911F910F91FF90EF90ED
:101C7000DF90CF90BF90AF909F908F907F906F90AC
:101C8000089563EF71E088E293E00E94B6076BEE7F
:101C900071E0C6010E94250ADECF1F920F920FB697
:101CA0000F9211242F933F934F935F936F937F93E2
:101CB0008F939F93AF93BF93EF93FF9388E293E04B
:101CC0000E94E401FF91EF91BF91AF919F918F919D
:101CD0007F916F915F914F913F912F910F900FBE28
:101CE0000F901F9018951F920F920FB60F9211240C
:101CF0002F938F939F93EF93FF93E0913803F0918D
:101D000039038081E0913E03F0913F0382FD1BC0C7
:101D10009081809141038F5F8F73209142038217DE
:101D200041F0E0914103F0E0E85DFC4F958F809336
:101D30004103FF91EF919F918F912F910F900FBED3
:101D40000F901F9018958081F4CF1F920F920FB6BD
:101D50000F9211242F933F938F939F93AF93BF9331
:101D60008091A6029091A702A091A802B091A90229
:101D70003091A50223E0230F2D3758F50196A11DC0
:101D8000B11D2093A5028093A6029093A702A09371
:101D9000A802B093A9028091AA029091AB02A091EF
:101DA000AC02B091AD020196A11DB11D8093AA02B3
:101DB0009093AB02A093AC02B093AD02BF91AF91F0
:101DC0009F918F913F912F910F900FBE0F901F9079
:101DD000189526E8230F0296A11DB11DD2CF1F92A0
:101DE0000F920FB60F9211242F933F934F935F934F
:101DF0006F937F938F939F93AF93BF93EF93FF93D3
:101E00008091B900887F803609F44AC0F0F58832A5
:101E100009F4A7C018F5803109F49BC0B8F48823F1
:101E200009F4F9C0883009F494C0FF91EF91BF9193
:101E3000AF919F918F917F916F915F914F913F9162
:101E40002F910F900FBE0F901F901895883109F4B5
:101E500088C0803251F78093F60214C0803409F4B0
:101E60009DC040F48033B9F38833F9F68093F602CD
:101E700085ECB0C0803509F485C0883509F496C07A
:101E8000883499F60E941C0DD0CF883909F48CC093
:101E900038F5883729F050F4883611F0803729F664
:101EA00083E08093F8021092A40257C0883809F4A6
:101EB0007BC0803919F0803809F0B7CF8091A40237
:101EC000803208F071C0E091A40281E08E0F80930F
:101ED000A4028091BB00F0E0EC57FD4F80833DC031
:101EE000803B39F0E0F4803A09F479C0883A09F08F
:101EF0009CCF84E08093F8021092830210928202B9
:101F0000E0912203F09123030995809182028111CF
:101F10000FC081E0809382021092620209C0803C6F
:101F200009F4A6CF883C09F4A3CF883B09F07DCF04
:101F3000E091830281E08E0F80938302F0E0EE59FE
:101F4000FD4F80818093BB0090918302809182023B
:101F500029C08091D3028093BB0085EC8093BC00A4
:101F600064CF9091F5028091F402981758F5E091B2
:101F7000F50281E08E0F8093F502F0E0EC52FD4F08
:101F80008081E9CFE091F50281E08E0F8093F50228
:101F90008091BB00F0E0EC52FD4F80839091F50200
:101FA0008091F4029817C8F285E8D8CFE091F50245
:101FB00081E08E0F8093F5028091BB00F0E0EC523F
:101FC000FD4F80838091F70281115CCF81E0809387
:101FD000D20284EA8093BC001092F80226CF85ECEE
:101FE0008093BC001092F8028091A402803230F4F9
:101FF000E091A402F0E0EC57FD4F10826091A40242
:1020000070E0E0912003F091210384E892E00995CB
:102010001092A4020ACF1092F60234CF7F928F92D0
:102020009F92AF92BF92CF92DF92EF92FF920F9367
:102030001F93CF93DF93EC01762EFC01EF5AFF4FF5
:1020400084E08083399680E78083CE01855A9F4F54
:1020500021E0DC012C93FC01118212821382148294
:102060001682158217962C9311961D921D921D9221
:102070001C92149741E050E016965C934E9315978E
:10208000AE0147595F4FFA012083118212821382F9
:10209000148222E030E0368325835E01F0E7AF0E44
:1020A000B11CF501918380836E01F2E7CF0ED11C44
:1020B000F601B183A0837E01F4E7EF0EF11CD70196
:1020C0004D935C938E0109581F4FF80110821182C5
:1020D00064E471E04E960E94250A85E0882E912CDA
:1020E000D80119969C928E921897065F1F4FF8019F
:1020F0001082118264E471E0C80102960E94250AF0
:10210000D80119969C928E921897CA58DF4F788200
:10211000B1E07B1651F0E2E07E1681F130E041E063
:1021200050E081E0712C91E005C041E051E030E0E9
:1021300080E090E0D501ED91FC919183728221E0E5
:1021400023832483D601ED91FC9191838283838341
:102150007482D701ED91FC915183428333832483B0
:10216000DF91CF911F910F91FF90EF90DF90CF9073
:10217000BF90AF909F908F907F90089531E040E0A6
:1021800050E080E077247394CECFCF93DF93EC01BF
:1021900064E471E00E94250A64E471E0CE010696D1
:1021A000DF91CF910C94250AEF92FF920F931F932A
:1021B000CF93DF93E8E2F3E01382128288EE93E09C
:1021C000A0E0B0E084839583A683B78326E131E065
:1021D0003183208325EC30E03587248724EC30E000
:1021E0003787268720EC30E0318B208B21EC30E0E4
:1021F000338B228B22EC30E0358B248B26EC30E0C5
:10220000378B268B118E128E138E148E06E114E0FE
:10221000F8011382128284839583A683B78388E2B0
:1022200091E091838083CFEED5E088E089831C82A2
:102230001D821E8264E471E086EF95E00E94250A0B
:1022400061E089810E94DF0261E089810E9493023E
:1022500087E2E82E84E0F82E80E7D7018C9360E0D7
:102260008AE294E00E940E1061E085EB94E00E9407
:102270000E1062E080E495E00E940E10CCE0EBECE2
:10228000F5E0DF018C2F1D928A95E9F7CF010E94BE
:10229000C510E7EDF5E0DF018C2F1D928A95E9F777
:1022A000CF010E94C510E3EEF5E0DF011D92CA9553
:1022B000E9F7CF010E94C5108CEF95E0F7019283FA
:1022C0008183E2E2F4E08AE391E0918380831383E7
:1022D00002831482F0931504E0931404DF91CF91EC
:1022E0001F910F91FF90EF900895CF93DF93CDB79B
:1022F000DEB72C970FB6F894DEBF0FBECDBF789433
:1023000084B5826084BD84B5816084BD85B58260FA
:1023100085BD85B5816085BD80916E0081608093AB
:102320006E00109281008091810082608093810014
:102330008091810081608093810080918000816024
:10234000809380008091B10084608093B10080917F
:10235000B00081608093B00080917A0084608093A7
:102360007A0080917A00826080937A0080917A006E
:10237000816080937A0080917A00806880937A00EF
:102380001092C100E0913803F091390382E080831C
:10239000E0913403F09135031082E0913603F0911F
:1023A000370380E1808310924003E0913C03F09179
:1023B0003D0386E08083E0913A03F0913B03808106
:1023C00080618083E0913A03F0913B0380818860D3
:1023D0008083E0913A03F0913B03808180688083A1
:1023E000E0913A03F0913B0380818F7D80830E94CE
:1023F000BC0301E0809127040093FE0280931F0339
:10240000109225031092240381E00E94F603182FF6
:1024100062E370E080E090E00E9435031111EACFA2
:1024200061E082E00E94DF0261E083E00E94DF025F
:1024300061E084E00E94DF0261E085E00E94DF024B
:1024400060E08EE00E94DF0279E7C72E74E0D72EAD
:10245000E8EC2E2EE5E03E2EF7E2EF2EF4E0FF2E24
:10246000A8E54A2E12E3B5E07B2E66246A94552433
:10247000539483EF90E00E945802D60197966C9196
:1024800070E090E080E04AE00E94CB070E940D08D7
:1024900081E5E5ECF3E0D701139601900D928A9562
:1024A000E1F7F60167A1683020F4C70103960E94A6
:1024B0005106D6018D919C91DC01ED91FC9101902A
:1024C000F081E02D0995F60180819181DC01ED918B
:1024D000FC910280F381E02D0995F701428A138A6D
:1024E000D6018D919C915701B2E1AB0EB11CDC017C
:1024F000ED91FC910480F581E02D00E030E020E0DA
:1025000042E0B5010995F701128B738A648A558AF6
:102510008AE0868BD6018D919C91DC01ED91FC9136
:102520000480F581E02D30E020E045E0B50109951B
:1025300081110EC0F60180819181DC01ED91FC9149
:102540000680F781E02D28EE33E040E4B5010995DF
:102550008AEE90E00E94580282E08093D40380913A
:10256000140490911504DC01ED91FC910480F58137
:10257000E02D00E030E020E041E064ED73E00995FB
:10258000882309F4FDC061E172E088E293E00E94D3
:10259000B607F60167A170E090E080E04AE00E9493
:1025A000CB070E940D08812C912C540162E372E04C
:1025B00088E293E00E94B6076B2D7727882799273A
:1025C00040E10E94CB070E940D0861E472E088E2BE
:1025D00093E00E94B6076A2D70E090E080E04AE048
:1025E0000E94CB078EE20E945302692D70E090E0BA
:1025F00080E04AE00E94CB070E940D0880E592E04F
:102600000E94150880E592E00E94150880E592E09E
:102610000E941508BBE8EB0EF11CEBE8CE0ED11CB6
:102620002E143F0409F025CF0E94BC0386E180935D
:10263000BA008BE799E09093AF028093AE0280E3FB
:1026400098E09093B1028093B0028BE091E00E94F9
:10265000240835E0832E912C8091F4058823F1F035
:102660001A8219821C821B821E821D8266EF75E00F
:10267000CE0101960E94040A0E946301182FCE0128
:1026800001960E94BE08112349F086EF95E00E9452
:10269000750987E08093EF051092F4058091F305AA
:1026A000882309F429C10CE714E024EAC22EDD24B2
:1026B000D3947801F2E5EF1AF108D8015E968D9176
:1026C0009C910E946E06F80185A396A1892786A396
:1026D00082A193A10E946E06D8019F968C939F972A
:1026E000D0969C91D0978927D0968C93D097969628
:1026F0008C91B12C882309F491C06AEF70E080E0DE
:1027000090E00E943503D80195968C91882309F4B6
:1027100069C0D80194966C91683018F4C7010E9482
:102720005106A801495F5F4FB801C7010E9402012D
:1027300081115BC0B701CE0101960E94540DBE010C
:102740006F5F7F4FC80187960E948508CE01019672
:102750000E94BE08F80180A191A10E946E06882304
:1027600009F4DDC0D8019096ED91FC918081882319
:1027700009F4CFC0823009F4D5C085E090E0CBC029
:102780008091140490911504DC01ED91FC91068078
:10279000F781E02D28EE33E040E464ED73E0099525
:1027A00097FDF1CE8091D4039091D5039827892786
:1027B0009827B0E0A0E0BA2FA92F982F8827209162
:1027C000D603822BBA2FA92F982F88272091D703C1
:1027D0004C015D01822A81149104A104B10409F025
:1027E000E5CED1CEF80196A685A660912804709119
:1027F000290430E020E0A701CE0101960E94B90A29
:10280000BE016F5F7F4FC601895D9B4F0E948508A7
:10281000CE0101960E94BE08BB24B394D801D09685
:102820008C91882329F16AEF70E080E090E00E94AB
:102830003503F80187A5811178C090AE87AA609111
:1028400028047091290421E030E0A701CE0101960F
:102850000E94B90ABE016F5F7F4FC601835D9B4F27
:102860000E948508CE0101960E94BE0892E0B92E12
:10287000D80196968C919697882321F0D0968C91CA
:10288000811187C0BB2041F11A8219821C821B82F0
:102890001E821D82B601695D7B4FCE0101960E94AA
:1028A000040A18861F821A8619861C861B86B601A2
:1028B000635D7B4FCE0107960E94040ABE016F5FE5
:1028C0007F4F8B2D0E94360ACE0107960E94BE08CC
:1028D000CE0101960E94BE0805571F4FBCE0CB0EEB
:1028E000D11CE8ECCE16E1E0DE0609F0E2CE0E9453
:1028F000BC0386E18093BA0080E090E0892B09F464
:10290000ABCE0E94D001882309F4A6CE0E9400001D
:10291000A3CE84E090E0F80196A785A766CF81E07A
:1029200090E0F9CF83E090E0F6CF64A1683018F42E
:10293000C7010E945106A801495F5F4FB801C70156
:102940000E94020181117BCFB701CE0101960E9446
:10295000540DBE016F5F7F4FC80187960E948508A6
:10296000CE0101960E94BE08D8019296ED91FC918D
:102970008081882329F0823049F085E090E002C010
:1029800082E090E0F80196A785A759CF81E090E01A
:10299000F9CF83E0B82E78CF89EE95E00E94BE088B
:1029A00083EE95E00E94BE088DED95E00E94BE0882
:1029B00087ED95E00E94BE0881ED95E00E94BE087B
:1029C0008BEC95E00E94BE0883EC95E00E94BE0867
:1029D00089EB95E00E94BE0888E395E00E94BE085E
:1029E0008EE295E00E94BE088DEA94E00E94BE0847
:1029F00083EA94E00E94BE0886EF95E00C94BE083E
:102A0000BB274A3031F4992322F4BDE29095819599
:102A10009F4F0C940C15BB27FB015527AA27880F45
:102A2000991FAA1FA41710F0A41B83955051B9F742
:102A3000A05DAA3308F0A95DA193009779F7B111C1
:102A4000B1931192CB010C942515DC01FC01672F89
:102A500071917723E1F7329704C07C916D93708375
:102A60006291AE17BF07C8F308950E94771508F466
:102A700081E00895E89409C097FB3EF49095809515
:102A8000709561957F4F8F4F9F4F9923A9F0F92F34
:102A900096E9BB279395F695879577956795B795B2
:102AA000F111F8CFFAF4BB0F11F460FF1BC06F5F98
:102AB0007F4F8F4F9F4F16C0882311F096E911C0AA
:102AC000772321F09EE8872F762F05C0662371F0CB
:102AD00096E8862F70E060E02AF09A95660F771FDF
:102AE000881FDAF7880F9695879597F90895990FBB
:102AF0000008550FAA0BE0E8FEEF16161706E807C8
:102B0000F907C0F012161306E407F50798F0621BE8
:102B1000730B840B950B39F40A2661F0232B242BBD
:102B2000252B21F408950A2609F4A140A6958FEFDC
:102B3000811D811D089597F99F6780E870E060E02E
:102B400008959FEF80EC089500240A941616170646
:102B500018060906089500240A941216130614068E
:102B600005060895092E0394000C11F4882352F0F1
:102B7000BB0F40F4BF2B11F460FF04C06F5F7F4FA9
:102B80008F4F9F4F089557FD9058440F551F59F090
:102B90005F3F71F04795880F97FB991F61F09F3F4A
:102BA00079F087950895121613061406551FF2CF73
:102BB0004695F1DF08C0161617061806991FF1CFC3
:102BC00086957105610508940895E894BB276627EA
:102BD0007727CB0197F908952F923F924F925F92FA
:102BE0006F927F928F929F92AF92BF92CF92DF921D
:102BF000EF92FF920F931F93CF93DF93CDB7DEB782
:102C0000CA1BDB0B0FB6F894DEBF0FBECDBF099415
:102C10002A88398848885F846E847D848C849B846C
:102C2000AA84B984C884DF80EE80FD800C811B817A
:102C3000AA81B981CE0FD11D0FB6F894DEBF0FBEA9
:102C4000CDBFED0108955058BB27AA270E943B161F
:102C50000C94B2150E94A41538F00E94AB1520F018
:102C600039F49F3F19F426F40C94A1150EF4E09565
:102C7000E7FB0C949B15E92F0E94C31558F3BA1774
:102C8000620773078407950720F079F4A6F50C9482
:102C9000E5150EF4E0950B2EBA2FA02D0B01B9010E
:102CA00090010C01CA01A0011124FF27591B99F0C2
:102CB000593F50F4503E68F11A16F040A22F232FCE
:102CC000342F4427585FF3CF469537952795A7951E
:102CD000F0405395C9F77EF41F16BA0B620B730BC5
:102CE000840BBAF09150A1F0FF0FBB1F661F771F36
:102CF000881FC2F70EC0BA0F621F731F841F48F4EB
:102D0000879577956795B795F7959E3F08F0B0CF73
:102D10009395880F08F09927EE0F9795879508955A
:102D20000E94A4160C94B2150E94AB1558F00E9494
:102D3000A41540F029F45F3F29F00C949B15511124
:102D40000C94E6150C94A1150E94C31568F3992301
:102D5000B1F3552391F3951B550BBB27AA27621797
:102D60007307840738F09F5F5F4F220F331F441FA4
:102D7000AA1FA9F335D00E2E3AF0E0E832D09150D8
:102D80005040E695001CCAF72BD0FE2F29D0660FC5
:102D9000771F881FBB1F261737074807AB07B0E808
:102DA00009F0BB0B802DBF01FF2793585F4F3AF00E
:102DB0009E3F510578F00C949B150C94E6155F3FEF
:102DC000E4F3983ED4F3869577956795B795F79594
:102DD0009F5FC9F7880F911D9695879597F908957C
:102DE000E1E0660F771F881FBB1F62177307840718
:102DF000BA0720F0621B730B840BBA0BEE1F88F727
:102E0000E09508950E94771508F48FEF0895A1E2E8
:102E10001A2EAA1BBB1BFD010DC0AA1FBB1FEE1F54
:102E2000FF1FA217B307E407F50720F0A21BB30B9F
:102E3000E40BF50B661F771F881F991F1A9469F71B
:102E400060957095809590959B01AC01BD01CF0177
:102E50000895EE0FFF1F0590F491E02D09940F9354
:102E60001F93CF93DF938230910510F482E090E0BE
:102E7000E091FF05F091000630E020E0B0E0A0E036
:102E8000309799F42115310509F44AC0281B390BF4
:102E900024303105D8F58A819B816115710589F14E
:102EA000FB0193838283FE0111C040815181028125
:102EB000138148175907E0F04817590799F41097FC
:102EC00061F012960C93129713961C933296CF01D1
:102ED000DF91CF911F910F9108950093FF051093FB
:102EE0000006F4CF2115310551F04217530738F091
:102EF000A901DB019A01BD01DF01F801C1CFEF019A
:102F0000F9CF909300068093FF05CDCFFE01E20F2D
:102F1000F31F819391932250310939832883D7CFAE
:102F20002091FD053091FE05232B41F420910201F3
:102F3000309103013093FE052093FD05209100019F
:102F4000309101012115310541F42DB73EB7409173
:102F5000040150910501241B350BE091FD05F09112
:102F6000FE05E217F307A0F42E1B3F0B28173907C5
:102F700078F0AC014E5F5F4F2417350748F04E0FD5
:102F80005F1F5093FE054093FD05819391939FCF62
:102F9000F0E0E0E09CCFCF93DF930097E9F0FC01F5
:102FA000329713821282A091FF05B0910006ED01C5
:102FB00030E020E01097A1F420813181820F931F2F
:102FC0002091FD053091FE052817390709F061C0F1
:102FD000F093FE05E093FD05DF91CF910895EA019E
:102FE000CE17DF07E8F54A815B819E014115510547
:102FF000B1F7E901FB83EA8349915991C40FD51FC9
:10300000EC17FD0761F4808191810296840F951F72
:10301000E90199838883828193819B838A83F0E08D
:10302000E0E012968D919C9113970097B9F52D9140
:103030003C911197CD010296820F931F2091FD05BF
:103040003091FE052817390739F6309751F510925F
:1030500000061092FF05B093FE05A093FD05BCCFBE
:10306000D383C28340815181840F951FC817D9072C
:1030700061F44E5F5F4F88819981480F591F5183DA
:1030800040838A819B81938382832115310509F0D6
:10309000B0CFF0930006E093FF059ECFFD01DC0169
:1030A000C0CF13821282D7CFB0E0A0E0EAE5F8E10A
:1030B0000C94EE158C01009751F4CB010E942F1750
:1030C0008C01C801CDB7DEB7E0E10C940A16FC0113
:1030D000E60FF71F9C0122503109E217F30708F4AD
:1030E0009DC0D901CD91DC911197C617D70798F0F3
:1030F000C530D10530F3CE0104978617970708F342
:10310000C61BD70B2297C193D1936D937C93CF01AC
:103110000E94CB17D6CF5B01AC1ABD0A4C018C0EB6
:103120009D1EA091FF05B0910006512C412CF12C61
:10313000E12C109731F58091FD059091FE058815E1
:10314000990509F05CC04616570608F058C08091F2
:10315000000190910101009741F48DB79EB7409115
:10316000040150910501841B950BE817F90708F03D
:1031700055C0F093FE05E093FD05F901718360836E
:10318000A0CF8D919C91119712966C9012971396E7
:103190007C901397A815B90559F56C0142E0C40E4F
:1031A000D11CCA14DB0420F1AC014A195B09DA0115
:1031B0001296159780F06282738251834083D90101
:1031C0006D937C93E114F10471F0D7011396FC9395
:1031D000EE93129776CF22968C0F9D1FF901918363
:1031E0008083F301EFCFF0930006E093FF0569CFF2
:1031F0004816590608F42C017D01D3019ACFCB0162
:103200000E942F177C01009749F0AE01B8010E947F
:103210001E19C8010E94CB17870153CF10E000E0B0
:1032200050CFFB01DC0104C08D910190801921F485
:1032300041505040C8F7881B990B0895FB01DC01F1
:1032400002C001900D9241505040D8F70895FB0103
:10325000DC0101900D920020E1F70895FB01DC01F3
:103260004150504048F001900D920020C9F701C034
:103270001D9241505040E0F7089510E0C1EAD0E0BF
:1032800004C0FE010E9429172196C23AD107C9F74E
:04329000F894FFCFE0
:103294000000010680000000FF00FF00FFFFFFFFA9
:1032A400FFFF000000000602660193017302C401DF
:1032B400A201B601000000001F06F2054E06C80573
:1032C400EB05D805C90500000000D303E6042F0C64
:1032D40018070D0A0048616E646C652052657175AB
:1032E40065737400537562003035370044726100B1
:1032F400676F6E0048616E646C6520526563656932
:10330400766500546865204475656C2048617320B7
:10331400456E64656421004576656E74205265636C
:103324006965766564202D20436C656172696E67FA
:10333400204461746100436F6D6D756E69636174DF
:10334400696F6E204661696C75726521004661691A
:103354006C656420446174613A2000496E636F6D4A
:10336400696E672049443A20007E0048616E646CAF
:10337400696E6720446174613A20004661696C7526
:103384007265005B5741524E5D20436F756C64203B
:103394006E6F74207265616420626C6F636B210AC6
:1033A400004469646E27742066696E6420504E354B
:1033B400337820626F617264206F6E205A6F6E657D
:1033C4002000466F756E64206368697020504E3526
:1033D400004669726D77617265207665722E2000F1
:1033E40053656E736F7220576F726B696E6700005E
:00000001FF
