:100000000C9490000C94B8000C94B8000C94B800B8
:100010000C94B8000C94B8000C94B8000C94B80080
:100020000C94B8000C94B8000C94B8000C94B80070
:100030000C94B8000C94B8000C94B8000C94B80060
:100040000C94AF0E0C94B8000C947D0E0C94570ECB
:100050000C94B8000C94B8000C94B8000C94B80040
:100060000C94F90E0C94B8005374617274696E6745
:10007000204475656C210000000000240027002A40
:100080000000000000250028002B000404040404E4
:100090000404040202020202020303030303030135
:1000A000020408102040800102040810200102040C
:1000B00008102000000008000201000003040700EF
:1000C000000000000000005B424F4F545D20496E6D
:1000D000697469616C697A65205A6F6E65200049A0
:1000E0006E697469616C697A6174696F6E20436FBF
:1000F0006D706C6574650A00206861642061206D14
:10010000616C66756E6374696F6E21005B45525257
:100110004F525D205A6F6E653A2000004610481518
:1001200011241FBECFEFD8E0DEBFCDBF26E0ACE18B
:10013000B3E001C01D92AC3AB207E1F713E0A0E0D2
:10014000B1E0E0E4F0E302C005900D92AC31B107FC
:10015000D9F710E0CFE8D0E004C02197FE010E945B
:10016000F615CE38D107C9F70E94C8100C941318A1
:100170000C9400008AE030E020E060E460937C00B2
:1001800090917A00906490937A0090917A0096FD15
:10019000FCCF9091780040917900542F492F240F83
:1001A000351F815059F781E0223933410CF480E04A
:1001B0000895E0916B03F0916C03309729F0109251
:1001C000C1031092E30309940895CF93DF93EC01E8
:1001D000E0916903F0916A033097F1F090919303F5
:1001E000809192039817C0F090E0292F30E02617F5
:1001F000370754F4DE01A20FB31F4C9122593C4F34
:10020000D9014C939F5FF1CF1092930360939203B7
:10021000CB01DF91CF910994DF91CF910895FC013B
:10022000248135816217730720F4808191810097C2
:1002300029F410926D038DE693E00895860F971FC1
:1002400008950895AF92BF92CF92DF92EF92FF92FE
:100250000F931F93CF93DF936C017B018B01040FEE
:10026000151FEB015E01AE18BF08C017D10759F08A
:100270006991D601ED91FC910190F081E02DC601CC
:100280000995892B79F7C501DF91CF911F910F91C6
:10029000FF90EF90DF90CF90BF90AF900895FC015A
:1002A000538D448D252F30E0842F90E0821B930BDB
:1002B000541710F0CF96089501970895FC01918D81
:1002C000828D981761F0A28DAE0FBF2FB11D5D9684
:1002D0008C91928D9F5F9F73928F90E008958FEF26
:1002E0009FEF0895FC01918D828D981731F0828DDA
:1002F000E80FF11D858D90E008958FEF9FEF089531
:10030000FC01918D228D892F90E0805C9F4F821B94
:1003100091098F739927089584EE93E00E948001DC
:1003200021E0892B09F420E0822F089580E090E0FD
:10033000892B29F00E948C0181110C9400000895F2
:10034000FC01A48DA80FB92FB11DA35ABF4F2C914A
:10035000848D90E001968F739927848FA689B78941
:100360002C93A089B1898C91837080648C93938D38
:10037000848D981306C00288F389E02D80818F7DDB
:1003800080830895EF92FF920F931F93CF93DF9393
:10039000EC0181E0888F9B8D8C8D98131AC0E889C1
:1003A000F989808185FF15C09FB7F894EE89FF8990
:1003B0006083E889F98980818370806480839FBF2E
:1003C00081E090E0DF91CF911F910F91FF90EF902E
:1003D0000895F62E0B8D10E00F5F1F4F0F7311273E
:1003E000E02E8C8D8E110CC00FB607FCFACFE88979
:1003F000F989808185FFF5CFCE010E94A001F1CF60
:10040000EB8DEC0FFD2FF11DE35AFF4FF0829FB7EC
:10041000F8940B8FEA89FB8980818062CFCF682FA7
:1004200084EE93E00C94C2010F931F93CF93DF935C
:100430008C01D0E0C0E0F801EC0FFD1F6491662351
:1004400041F084EE93E00E94C201892B11F02196C5
:10045000F2CFCE01DF91CF911F910F910895CF93ED
:10046000DF93EC01888D8823B9F0AA89BB89E889DC
:10047000F9898C9185FD03C0808186FD0DC00FB682
:1004800007FCF7CF8C9185FFF2CF808185FFEDCF00
:10049000CE010E94A001E9CFDF91CF91089590E0B5
:1004A000FC01ED54FF4F2491FC01E156FF4F3491C4
:1004B000FC01E557FF4FE491EE23C9F0222339F008
:1004C000233001F1A8F4213019F1223029F1F0E0B4
:1004D000EE0FFF1FEF57FF4FA591B4918FB7F89420
:1004E000EC91611126C030953E233C938FBF089557
:1004F0002730A9F02830C9F0243049F780918000D6
:100500008F7D03C0809180008F7780938000DFCF44
:1005100084B58F7784BDDBCF84B58F7DFBCF809191
:10052000B0008F778093B000D2CF8091B0008F7DE4
:10053000F9CF3E2BDACFCF93DF9390E0FC01E15669
:10054000FF4F249185579F4FFC0184918823D1F060
:1005500090E0880F991FFC01E958FF4FA591B491D5
:10056000FC01EF57FF4FC591D49161110EC09FB7A9
:10057000F8948C91E22FE0958E238C932881E223CE
:10058000E8839FBFDF91CF9108958FB7F894EC91E6
:10059000E22BEC938FBFF6CF3FB7F89480916503C1
:1005A00090916603A0916703B091680326B5A89B5C
:1005B00005C02F3F19F00196A11DB11D3FBFBA2FF5
:1005C000A92F982F8827BC01CD01620F711D811DB5
:1005D000911D42E0660F771F881F991F4A95D1F73A
:1005E00008958F929F92AF92BF92CF92DF92EF9237
:1005F000FF924B015C010E94CC026B017C010E94C6
:10060000CC026C197D098E099F09683E73408105F3
:100610009105A8F321E0821A9108A108B10888EE9B
:10062000C80E83E0D81EE11CF11C81149104A104C2
:10063000B10429F7FF90EF90DF90CF90BF90AF907B
:100640009F908F900895DC01ED91FC910284F385D9
:10065000E02D09950895DC01ED91FC910190F08168
:10066000E02D0995089520913D03260F3327331F70
:1006700021323105ECF42091BA03FC0190E080E0D6
:10068000243069F082E00895A0913D032191AC01EE
:10069000435E5C4FA40FB52FB11D2C9301968617B6
:1006A00098F380913D03680F60933D0380E00895C7
:1006B00081E008951092BA0381E08093B90310920B
:1006C000940361E082E10E944F0261E083E10E94B5
:1006D0004F02E9EBF0E080818E7F808380818D7F07
:1006E000808388E48093B80085E48093BC000895FB
:1006F00010929303109292031092C1031092E3039D
:100700000E945A0389ED90E09093910380939003A7
:1007100085EE90E090938F0380938E0308950C9460
:100720007803CF93DF9391E090931C038823B9F073
:10073000C091B800D091BA008091BC008A7B8093B0
:10074000BC0060E082E10E944F0260E083E10E9411
:100750004F020E945A03D093BA00C093B800DF91B1
:10076000CF9108958F929F92AF92BF92CF92DF92D6
:10077000EF92FF920F931F93CF93DF93D091E303F8
:10078000D13208F0D7C0182FC091E2030E94CC02EA
:100790006B017C018091BA0381116BC082E0809370
:1007A000BA031093B9038FEF8093B8031092B70385
:1007B000D093B603A2ECB3E0E6E9F3E080E0D8130F
:1007C00091C01092950380919503CC0FC82BC093D4
:1007D000950380919403813009F088C010929403AE
:1007E0000E94CC026B017C01809195038093BB0039
:1007F0008091BC039091BD03A091BE03B091BF0353
:10080000892B8A2B8B2BA1F00E94CC020091BC0378
:100810001091BD032091BE033091BF036C197D0977
:100820008E099F09061717072807390708F442C0E1
:100830008091BC0083FDD8CF85EC8093BC000E94E2
:10084000CC026B017C018091BA03823009F450C064
:100850008091B8038F3F09F46FC08091B803803254
:1008600009F46CC08091B803803309F469C084E056
:1008700026C08091BC039091BD03A091BE03B091AE
:10088000BF03892B8A2B8B2B09F484CF0E94CC02C7
:100890008090BC039090BD03A090BE03B090BF03B6
:1008A0006C197D098E099F0986169706A806B90658
:1008B00008F070CF8091BB030E94910385E01092F5
:1008C000C1031092E3031092C003DF91CF911F91F7
:1008D0000F91FF90EF90DF90CF90BF90AF909F90DF
:1008E0008F9008959D9191938F5F69CF85EEA5CFED
:1008F0008091BC039091BD03A091BE03B091BF0352
:10090000892B8A2B8B2B09F49ECF0E94CC0200915D
:10091000BC031091BD032091BE033091BF036C193D
:100920007D098E099F09061717072807390708F060
:100930008ACFC0CF81E0C3CF80E0C1CF82E0BFCFFC
:1009400083E0BDCF81E08093C00384E28093E20323
:100950001092C1031092E30364E170E080E090E044
:100960000E94F10281E00C94B203CF92DF92EF92E9
:10097000FF920F931F93CF93DF93D82FC62F61322F
:1009800008F098C00E94CC026B017C018091BA03F0
:1009900081116BC081E08093BA038093B9039FEF0C
:1009A0009093B8031092B7039C0F9093B603809373
:1009B000950380919503DD0FD82BD09395038091FB
:1009C0009403813009F078C0109294030E94CC0205
:1009D0006B017C01809195038093BB008091BC03E7
:1009E0009091BD03A091BE03B091BF03892B8A2BC8
:1009F0008B2BA1F00E94CC020091BC031091BD038F
:100A00002091BE033091BF036C197D098E099F09A7
:100A1000061717072807390708F448C08091BC005B
:100A200083FDD8CF85EC8093BC000E94CC026B0183
:100A30007C018091BA03813009F440C08091B703F2
:100A40008C1710F4C091B703E6E9F3E0AEE6B3E02B
:100A500080E08C1355C08C2FDF91CF911F910F91A7
:100A6000FF90EF90DF90CF9008958091BC0390911C
:100A7000BD03A091BE03B091BF03892B8A2B8B2BA2
:100A800009F484CF0E94CC020091BC031091BD03F5
:100A90002091BE033091BF036C197D098E099F0917
:100AA000061717072807390708F070CF8091BB0396
:100AB0000E949103C0E0CFCF85EEB5CF8091BC03FB
:100AC0009091BD03A091BE03B091BF03892B8A2BE7
:100AD0008B2B09F4AECF0E94CC020091BC03109185
:100AE000BD032091BE033091BF036C197D098E09AF
:100AF0009F09061717072807390708F09ACFD6CF9E
:100B000091919D938F5FA5CF0895E091930380917C
:100B10009203E81730F4F0E0E259FC4F808190E056
:100B200008958FEF9FEF0895909193038091920322
:100B30002FEF3FEF981748F4E92FF0E0E259FC4F10
:100B4000208130E09F5F90939303C90108958091C5
:100B5000920390919303891B990B0895CF92DF9292
:100B6000EF92FF920F931F93CF93DF937C01CB0102
:100B70008A012091C003222389F0EB016B01C40E8E
:100B8000D51ECC15DD0569F06991D701ED91FC9179
:100B90000190F081E02DC7010995F3CF642F0E94E9
:100BA0003303C801DF91CF911F910F91FF90EF9018
:100BB000DF90CF900895CF93DF931F92CDB7DEB72C
:100BC00069832091C0032223F9F02091E3032032AE
:100BD00058F021E030E0FC013383228390E080E094
:100BE0000F90DF91CF9108958091C103E82FF0E03D
:100BF000EE53FC4F998190838F5F8093C103809364
:100C0000E30381E090E0ECCF61E0CE0101960E9429
:100C10003303F7CF9091E30421E02093C003909336
:100C2000E2031092C1031092E30361E070E001C09F
:100C3000660F8A95EAF782ED94E00E94DB0581E079
:100C40000C94B20390E080E00895CF92DF92EF928F
:100C5000FF920F93CF93DF93EC018AE48F8781E0BB
:100C6000888B198A6E012FE4C20ED11CD6018D919A
:100C70009C917E01BFE0EB0EF11CDC01ED91FC913B
:100C80000480F581E02D00E030E020E043E0B70192
:100C90000995811125C0F60180819181DC01ED91DA
:100CA000FC910680F781E02D28EE33E040E4B701A7
:100CB000099597FD15C08F85813091F48C89FE01CF
:100CC000E75AFF4F808380E09C89891790F4FE01EA
:100CD000E80FF11D9589EE5AFF4F90838F5FF4CF97
:100CE00080E0DF91CF910F91FF90EF90DF90CF9058
:100CF000089581E0F6CFAF92BF92CF92DF92EF924C
:100D0000FF920F931F93CF93DF938C01D62EC72EA4
:100D1000F42E5901D0E0C0E082E0E82EE40E6E2D02
:100D200080E28E1508F460E284E20E94B50410921D
:100D3000930380939203811110C061E070E080E022
:100D400090E00E94F1022196A114B10441F3AC1687
:100D5000BD0628F78FEF9FEF10C0F80182819381C5
:100D60000E94230380FFE9CFF801828193810E94D2
:100D70002303882369F08DEF9FEFDF91CF911F91BF
:100D80000F91FF90EF90DF90CF90BF90AF900895BC
:100D9000F801828193810E9423038111ECCFF80135
:100DA000828193810E9423038F3F29F7F80182817A
:100DB00093810E942303C82FF801828193810E94AE
:100DC00023038C0FC1F6F801D481EE24E394ED0ED9
:100DD000828193810E942303853D69F6F801828117
:100DE00093810E942303E812C6CFC2508CEF9FEF7D
:100DF000FC1618F2DA52BD2CED2CFC2CF801828185
:100E000093812E2D2B192C1738F40E942303F70100
:100E100081937F01D80FF2CF0E9423038D0F09F039
:100E2000AACFF801828193810E9423038C2F90E046
:100E3000A4CF6115710579F0FB0101900020E9F75D
:100E40003197AF01461B570BDC01ED91FC910280FD
:100E5000F381E02D099490E080E00895BC0184EED8
:100E600093E00C94190742E050E06BE871E084EEE7
:100E700093E00C942201CF93DF93BC0184EE93E0C6
:100E80000E941907EC010E9433078C0F9D1FDF9110
:100E9000CF910895CF93DF930E941402EC010E943A
:100EA00033078C0F9D1FDF91CF910895CF93DF9370
:100EB000FC01448155816081718184EE93E00E9440
:100EC0002201EC010E9433078C0F9D1FDF91CF910F
:100ED0000895CF92DF92EF92FF920F931F93CF93DB
:100EE000DF93CDB7DEB7A1970FB6F894DEBF0FBE84
:100EF000CDBF282F30E050E040E019A28E010F5DF9
:100F00001F4F8AE0C82ED12CE12CF12CCA01B90167
:100F1000A70196010E94D415605DF80162938F01CC
:100F2000211531054105510589F7BF0184EE93E094
:100F30000E9419078C010E943307800F911FA19610
:100F40000FB6F894DEBF0FBECDBFDF91CF911F91DA
:100F50000F91FF90EF90DF90CF900895CF92DF92A6
:100F6000EF92FF920F931F93CF93DF93CDB7DEB72E
:100F70002D970FB6F894DEBF0FBECDBF8EE891E07F
:100F80000E943B0780919F06882309F44AC0CE0146
:100F900001966C018DE0F60111928A95E9F78DE9D1
:100FA00091E00E942E07760110E000E0B80187E989
:100FB00096E00E940F01FC018081E0919D06F09176
:100FC0009E06E00FF11F9081891323C0F7018083F3
:100FD00081917F010E940F020F5F1F4F0D3011059D
:100FE00029F70E9433074DE050E0B60182ED94E00E
:100FF0000E94AE052D960FB6F894DEBF0FBECDBF92
:10100000DF91CF911F910F91FF90EF90DF90CF90E4
:101010000895B80187E996E00E940F01FC018081E4
:10102000D5CF809195068530D1F048F4843011F702
:1010300063EB71E082ED94E00E9419070DC08630E9
:1010400039F18730B9F667EA71E082ED94E00E94E9
:10105000190781E08093A00610929506CBCF6BEA2A
:1010600071E082ED94E00E9419071092950660E00D
:10107000809196060E944F026AE070E080E090E066
:101080000E94F10261E0809196060E944F02B2CF69
:101090006FEA71E082ED94E00E94190781E080938D
:1010A0009F0688E690E00E944A07D6CFCF92DF9253
:1010B000EF92FF920F931F93CF93DF93EC01142FC6
:1010C0006C0128E0C20ED11C86E0F701D601019028
:1010D0000D928A95E1F750E0CE010E94EB171F8335
:1010E00080E48F8781E0888B80E6898B0A8BDE0124
:1010F000539686E0F60101900D928A95E1F79C2FB8
:10110000EC2FFD2F8E2F891B811718F48191808F72
:10111000F9CF6E01BFE4CB0ED11CF6018081918125
:101120007E01FFE0EF0EF11C4AE0410FDC01ED9182
:10113000FC910480F581E02D00E030E020E0B70173
:101140000995811111C0F60180819181DC01ED9139
:10115000FC910680F781E02D28EE33E040E4B701F2
:10116000099581E09F85911180E0DF91CF911F91DA
:101170000F91FF90EF90DF90CF900895CF92DF9284
:10118000EF92FF920F931F93CF93DF9300D000D085
:1011900000D01F92CDB7DEB76C0187EB91E00E94C3
:1011A0002E07C6010E94560786E0E6E0F1E0DE0168
:1011B000119601900D928A95E1F70091750510E066
:1011C00030E020E0CE0101967C0140917D0566E78C
:1011D00075E084E295E00E945608182F84EC91E0B7
:1011E0000E942E07812F0E94690780E0113009F0CC
:1011F00060C0F12CE12CB701C6010E940F011F81D4
:10120000DC018C91180F1F83BFEFEB1AFB0AE9E09A
:10121000EE16F10481F789ED91E00E942E07812FEF
:101220000E9469078091750590E49093330591E0E1
:101230009093340590EA909335058093360580E1CC
:10124000FE013796A7E3B5E001900D928A95E1F78C
:101250008091730590917405DC01ED91FC910480FF
:10126000F581E02D00E030E020E044E163E375E04B
:101270000995811114C08091730590917405DC016A
:10128000ED91FC910680F781E02D28EE33E040E4FB
:1012900063E375E0099511E0181619060CF010E0EB
:1012A00088EE91E00E942E07812F0E946907812F0E
:1012B000817027960FB6F894DEBF0FBECDBFDF91C9
:1012C000CF911F910F91FF90EF90DF90CF900895F5
:1012D000CF92DF92EF92FF920F931F93CF93DF9302
:1012E000CDB7DEB72D970FB6F894DEBF0FBECDBFDA
:1012F0006C0188EF91E00E942E07C6010E945607FC
:10130000F60104811581CE0101967C0101151105BC
:1013100051F51982F0929E06E0929D0687E192E0D7
:101320000E942E0710E000E0E0919D06F0919E06DD
:10133000E00FF11F80810E940F020F5F1F4F0D30E1
:10134000110591F70E9433072D960FB6F894DEBF72
:101350000FBECDBFDF91CF911F910F91FF90EF9006
:10136000DF90CF9008950C30110510F00CE010E0E4
:10137000F60160817181A801C7010E940418F7017C
:10138000E00FF11F1082C6CFFC0124813581FB01E3
:101390004481558124173507E1F4FC018081918156
:1013A000FB01608171810097D1F061157105A1F495
:1013B000232BC1F0FC01808190E008C0232B91F029
:1013C000FB01808190E091958195910921E0892B25
:1013D00009F020E0822F08950E94F417F7CF6115DD
:1013E000710561F721E0F6CF0F931F93CF93DF9341
:1013F0008C01EB01FC01808191810097E1F0688113
:10140000798161157105A9F0428153812C813D815B
:101410004217530770F00E94FD178C819D81F801DF
:10142000958384831D821C82DF91CF911F910F9140
:1014300008950E94981688819981F801918380838C
:101440008A819B81938382838C819D819583848310
:10145000198218821B821A82E5CFFC01808191815A
:10146000009711F00C94981608950F931F93CF9343
:10147000DF93EC0188819981009759F02A813B81A3
:101480002617370730F081E0DF91CF911F910F9140
:1014900008958B016F5F7F4F0E942117009759F0CD
:1014A000998388831B830A832C813D81232B59F7E1
:1014B000FC011082E8CF80E0E7CFEF92FF920F931C
:1014C0001F93CF93DF936115710541F480E0DF91A5
:1014D000CF911F910F91FF90EF9008954115510505
:1014E000B1F07B01EC010C811D81040F151FB801C7
:1014F0000E94350A882351F3288139818C819D818E
:10150000B701820F931F0E94FD171D830C8381E09A
:10151000DECFEF92FF920F931F93CF93DF93CDB760
:10152000DEB728970FB6F894DEBF0FBECDBF7C01A3
:10153000CB014AE08E010F5F1F4FB8010E94681572
:10154000F80101900020E9F73197AF01401B510BE2
:10155000B801C7010E945D0A28960FB6F894DEBF55
:101560000FBECDBFDF91CF911F910F91FF90EF90F4
:101570000895EF92FF920F931F93CF93DF93EC01A7
:101580007B018A01BA010E94350A288139818111C3
:1015900014C02115310519F0C9010E94981619824D
:1015A00018821D821C821B821A82CE01DF91CF918C
:1015B0001F910F91FF90EF9008951D830C83B70149
:1015C000C9010E94FD17F1CF50E040E06DE871E0E5
:1015D0000C94B90A0F931F93CF93DF9300D0CDB72C
:1015E000DEB788E292E00E943B078091A00681115D
:1015F00043C09091920380919303981739F082ED44
:1016000094E00E94940580939506F3CF809195060F
:10161000843029F1883051F18230D1F488E692E0AB
:101620000E943B078FE792E00E942E0710E000E047
:10163000E0919D06F0919E06E00FF11F80810E94CF
:101640000F020F5F1F4F0D30110591F70E943307F6
:101650000F900F90DF91CF911F910F9108951092ED
:101660009F0687E392E00E943B07F2CF81E08093E0
:10167000A1068BE492E0F7CF82EA96E00E94E40AAA
:101680009091920380919303981781F082ED94E0FA
:101690000E94940589831A8241E050E0BE016F5F89
:1016A0007F4F82EA96E00E945D0AEACF8DE892E0E1
:1016B0000E942E074091A6065091A7066091A206AF
:1016C0007091A30684EE93E00E9422018BE992E0E0
:1016D000CACFCF93DF93EC01FB018617970749F040
:1016E000608171816115710541F0448155810E94CD
:1016F000B90ACE01DF91CF91089588819981009731
:1017000011F00E949816198218821D821C821B8279
:101710001A82EFCFFC01118210821382128215828D
:1017200014820C94690B0F931F93CF93DF9300D017
:1017300000D000D0CDB7DEB78C01BC0187E996E0C0
:101740000E94690BB801CE0101960E948A0BCE015E
:1017500001960E946809CE0101960E942D0A05E9B2
:1017600016E060E0F80181810E944F026AE070E0BB
:1017700080E090E00E94F10261E0F80181810E9426
:101780004F02F801148626960FB6F894DEBF0FBEFE
:10179000CDBFDF91CF911F910F9108950F931F93AC
:1017A000CF93DF93EC018A018D589F4F0E94690B04
:1017B000C758DF4F19830883DF91CF911F910F9195
:1017C00008950F931F93CF93DF93EC018A018559FE
:1017D0009F4F0E94690BCF58DF4F19830883DF9119
:1017E000CF911F910F910895FC01118210821382F5
:1017F000128215821482FB0101900020E9F73197D3
:10180000AF01461B570B0C94B90A8F929F92AF926F
:10181000BF92CF92DF92EF92FF920F931F93CF93DD
:10182000DF93CDB7DEB76C970FB6F894DEBF0FBE6F
:10183000CDBF5C016B0186E0E6E0F1E0DE01519690
:1018400001900D928A95E1F74B0121E5820E911CE2
:10185000D4010C9110E030E020E0FB01E75AFF4F8B
:101860006E5A7F4FCE0141967C014081C6010E9495
:101870005608811106C06DE972E0C5010E94F40BA3
:101880005AC0D4018C9190E4F601978791E0908B37
:1018900090E3918B828B7601FFE4EF0EF11CD70170
:1018A0008D919C914601BFE08B0E911CDC01ED9166
:1018B000FC910480F581E02D00E030E020E044E080
:1018C000B401099581114BC0F70180819181DC0140
:1018D000ED91FC910680F781E02D28EE33E040E4A5
:1018E000B4010995F6018785811139C080E17096B0
:1018F000DE01119601900D928A95E1F7BE016F5FAE
:101900007F4FCE0147960E94F40BD50111961C9291
:101910001E9213961C921E92129715961C921E925E
:101920001497BE01695E7F4FC5010E94F409CE0184
:1019300047960E942D0AC5016C960FB6F894DEBF3B
:101940000FBECDBFDF91CF911F910F91FF90EF9010
:10195000DF90CF90BF90AF909F908F90089585EAD1
:1019600092E00E942E0787CFEF92FF921F93CF93B2
:10197000DF9300D000D000D0CDB7DEB7DC011496E5
:101980002D913C911597232B09F46AC0ED91FC91A0
:101990002081222309F464C07C0180E00E940A06B1
:1019A00084E295E00E942506182F811117C083EC70
:1019B00092E00E943B0760ED77E080E090E00E94BB
:1019C000F102812F26960FB6F894DEBF0FBECDBF71
:1019D000DF91CF911F91FF90EF90089584ED92E0F9
:1019E0000E943B0760ED77E080E090E00E94F1020A
:1019F000B701CE0101960E948A0BCE0101960E948A
:101A0000BE08182FCE0101960E942D0A80EE92E0AA
:101A10000E942E071123F9F064E275E0CE010196D1
:101A20000E94050CCE0101960E945607CE01019638
:101A30000E942D0A84E295E00E942506882309F27F
:101A40008AEF92E00E943B0760ED77E080E090E053
:101A50000E94F102EFCF8DEE92E00E943B07B1CFE2
:101A600010E0AFCF5F926F927F928F929F92AF9272
:101A7000BF92CF92DF92EF92FF920F931F93CF937B
:101A8000DF93CDB7DEB72C970FB6F894DEBF0FBE4D
:101A9000CDBF7C016B01842EB22E532EFB018081C1
:101AA000F70184838281938121E02093C00324E2A3
:101AB0002093E2031092C1031092E30360E00E94BE
:101AC0002B0360E0F701828193810E942B036FEF6B
:101AD000F701828193810E942B03182D100F61E082
:101AE000610FF701828193810E942B03612F609522
:101AF000F701828193810E942B0364EDF7018281BB
:101B000093810E942B038C0C9D2C911C14EDF701EA
:101B1000828193818C149D04C9F4CB2CD52C560161
:101B2000A00EB11CF70182819381AC14BD0499F120
:101B30004601F60160810E942B03882371F0FFEFBC
:101B4000CF1ADF0AF4018081180FECCF3601F601BD
:101B500060810E942B03811117C08DEF2C960FB668
:101B6000F894DEBF0FBECDBFDF91CF911F910F91D3
:101B7000FF90EF90DF90CF90BF90AF909F908F90AD
:101B80007F906F905F900895FFEFCF1ADF0AF30107
:101B90008081180FBCCF612F61950E942B0360E0FC
:101BA000F701828193810E942B0381E00E94B2039E
:101BB00086E0ECE0F1E0DE01179601900D928A9547
:101BC000E1F70BE010E067E084E20E94B5041092B8
:101BD00093038093920381110BC061E070E080E079
:101BE00090E00E94F1020150110969F78EEFB6CF23
:101BF000F701828193810E94230380FFEECF8E0143
:101C00000F5F1F4F5E01F7E0AF0EB11C6801F701D7
:101C1000828193810E942303F80181938F01EA1549
:101C2000FB05A9F746E050E0BF01C6010E94DE17A0
:101C300021E0892B09F420E0822F81958FCF85ED5B
:101C40008093BC008091BC039091BD03A091BE0322
:101C5000B091BF030796A11DB11D23E0B695A795CE
:101C6000979587952A95D1F72091BC0024FD03C054
:101C70001092BA0308954091BC035091BD03609146
:101C8000BE037091BF03452B462B472B69F300978A
:101C9000A105B10541F025E32A95F1F70000019770
:101CA000A109B109E1CF8091BB030C9491031F926C
:101CB0000F920FB60F9211242F933F934F935F9380
:101CC0006F937F938F939F93AF93BF93EF93FF9304
:101CD00084EE93E00E94A001FF91EF91BF91AF913C
:101CE0009F918F917F916F915F914F913F912F9134
:101CF0000F900FBE0F901F9018951F920F920FB666
:101D00000F9211242F938F939F93EF93FF93E09162
:101D1000F403F091F5038081E091FA03F091FB0365
:101D200082FD1BC090818091FD038F5F8F73209196
:101D3000FE03821741F0E091FD03F0E0EC51FC4F0F
:101D4000958F8093FD03FF91EF919F918F912F913C
:101D50000F900FBE0F901F9018958081F4CF1F92A7
:101D60000F920FB60F9211242F933F938F939F934F
:101D7000AF93BF938091610390916203A09163033D
:101D8000B09164033091600323E0230F2D3758F5A1
:101D90000196A11DB11D2093600380936103909370
:101DA0006203A0936303B0936403809165039091F1
:101DB0006603A0916703B09168030196A11DB11D50
:101DC0008093650390936603A0936703B0936803C1
:101DD000BF91AF919F918F913F912F910F900FBE27
:101DE0000F901F90189526E8230F0296A11DB11D94
:101DF000D2CF1F920F920FB60F9211242F933F93C1
:101E00004F935F936F937F938F939F93AF93BF9302
:101E1000EF93FF938091B900887F803609F44AC020
:101E2000F0F5883209F4A7C018F5803109F49BC099
:101E3000B8F4882309F4F9C0883009F494C0FF91FC
:101E4000EF91BF91AF919F918F917F916F915F9132
:101E50004F913F912F910F900FBE0F901F901895AB
:101E6000883109F488C0803251F78093B80314C0D8
:101E7000803409F49DC040F48033B9F38833F9F617
:101E80008093B80385ECB0C0803509F485C08835EF
:101E900009F496C0883499F60E941F0ED0CF883975
:101EA00009F48CC038F5883729F050F4883611F0E1
:101EB000803729F683E08093BA0310925F0357C0FE
:101EC000883809F47BC0803919F0803809F0B7CF21
:101ED00080915F03803208F071C0E0915F0381E080
:101EE0008E0F80935F038091BB00F0E0E15CFC4FBC
:101EF00080833DC0803B39F0E0F4803A09F479C03A
:101F0000883A09F09CCF84E08093BA0310923E0394
:101F100010923D03E0919003F09191030995809117
:101F20003D0381110FC081E080933D0310921D039A
:101F300009C0803C09F4A6CF883C09F4A3CF883BB4
:101F400009F07DCFE0913E0381E08E0F80933E0348
:101F5000F0E0E35EFC4F80818093BB0090913E03F4
:101F600080913D0329C0809195038093BB0085EC4F
:101F70008093BC0064CF9091B7038091B60398170B
:101F800058F5E091B70381E08E0F8093B703F0E03E
:101F9000EA56FC4F8081E9CFE091B70381E08E0FD4
:101FA0008093B7038091BB00F0E0EA56FC4F80833A
:101FB0009091B7038091B6039817C8F285E8D8CFFF
:101FC000E091B70381E08E0F8093B7038091BB004F
:101FD000F0E0EA56FC4F80838091B90381115CCF19
:101FE00081E08093940384EA8093BC001092BA034A
:101FF00026CF85EC8093BC001092BA0380915F03DA
:10200000803230F4E0915F03F0E0E15CFC4F10823D
:1020100060915F0370E0E0918E03F0918F038FE396
:1020200093E0099510925F030ACF1092B80334CF62
:102030000F931F93CF93DF93EC01FC01EF5AFF4FF7
:1020400084E08083779610823196108231961082D8
:102050006DE871E0CE0185599F4F0E94F40BFE019F
:10206000EF58FF4F05E010E0118300836DE871E049
:10207000CE018D589F4F0E94F40BC758DF4F198334
:102080000883DF91CF911F910F9108950F931F93B4
:10209000CF93DF93E4EEF3E01382128288EE93E0B5
:1020A000A0E0B0E084839583A683B7832FE531E079
:1020B0003183208325EC30E03587248724EC30E021
:1020C0003787268720EC30E0318B208B21EC30E005
:1020D000338B228B22EC30E0358B248B26EC30E0E6
:1020E000378B268B118E128E138E148E02ED14E018
:1020F000F8011382128284839583A683B78381E7D4
:1021000091E091838083C5E9D6E088E089836DE81A
:1021100071E087E996E00E94F40B1A861B861C8604
:102120006DE871E082EA96E00E94F40B61E089813B
:102130000E949B0261E089810E944F0280E78093A8
:10214000E30480E4E2E1F1E0A4EEB4E001900D925A
:102150008A95E1F784E295E00E9418108FE995E0F6
:102160000E9418108AE196E00E941810EEEDF4E04B
:1021700083E891E091838083138302831482F09338
:10218000D104E093D004DF91CF911F910F91089576
:10219000CF93DF93CDB7DEB7C358D1090FB6F8940C
:1021A000DEBF0FBECDBF789484B5826084BD84B598
:1021B000816084BD85B5826085BD85B5816085BD42
:1021C00080916E00816080936E00109281008091FA
:1021D0008100826080938100809181008160809382
:1021E0008100809180008160809380008091B100A7
:1021F00084608093B1008091B00081608093B000D2
:1022000080917A00846080937A0080917A00826065
:1022100080937A0080917A00816080937A00809127
:102220007A00806880937A001092C100E091F403F4
:10223000F091F50382E08083E091F003F091F103E7
:102240001082E091F203F091F30380E18083109219
:10225000FC03E091F803F091F90386E08083E091BC
:10226000F603F091F703808180618083E091F603AB
:10227000F091F703808188608083E091F603F0910C
:10228000F703808180688083E091F603F091F70383
:1022900080818F7D80830E94780301E08091E30438
:1022A0000093C0038093E2031092C1031092E303F2
:1022B00081E00E94B203182F62E370E080E090E0BA
:1022C0000E94F1021111EACF61E082E00E949B02BC
:1022D00061E083E00E949B0261E084E00E949B0237
:1022E00061E085E00E949B0260E08EE00E949B021C
:1022F00072E5872E71E0972EE5E5AE2EE1E0BE2E69
:10230000F8E56F2EF1E07F2EAEE7EA2EA5E0FA2E7B
:10231000D12CC12C11E05C2C8C2D0E940A068091DE
:10232000D0049091D104DC01ED91FC910190F081F9
:10233000E02D09958091D0049091D104DC01ED91BC
:10234000FC910280F381E02D0995B8E5B0939004EB
:10235000109291048091D0049091D104DC01ED9110
:10236000FC910480F581E02D00E030E020E042E0C7
:1023700060E974E00995B2E3B0939004E5E0E0937E
:102380009104FFEFF0939204109393042AE02093BA
:1023900094048091D0049091D104DC01ED91FC91E2
:1023A0000480F581E02D30E020E045E060E974E054
:1023B0000995811110C08091D0049091D104DC0165
:1023C000ED91FC910680F781E02D28EE33E040E4AA
:1023D00060E974E00995F40141904F01D501ED9158
:1023E0005D01CE57DF4FE883C258D040D3010D9135
:1023F0003D0187EC90E00E941402852D0E94690740
:10240000D701AA55B10981E5E1E8F4E001900D9208
:102410008A95E1F7F701D586C486F4E00F9FC001E5
:1024200011248C519B4FD70111969C938E93129639
:102430001C93129713961C93CE57DF4FE881C25816
:10244000D040B4E0EB9FC00111248C519B4FD701C9
:1024500015969C938E93149782E016968C931697FC
:1024600017961C93B4E04B9EC00111248C519B4FD6
:10247000F7019187808723E0228713873FEFC31AF4
:10248000D30A8BE7E80EF11C93E0C916D10409F0DA
:1024900042CF6AE070E080E090E00E94F1020E948A
:1024A000780386E18093BA008AEE9AE090936A03FB
:1024B000809369038EEA97E090936C0380936B039B
:1024C0008FED90E00E944A078091A0068823D1F00A
:1024D00062EA76E0CE0101960E948A0BCE01019657
:1024E0000E94B40C182FCE0101960E942D0A1123D0
:1024F00049F082EA96E00E94E40A87E0809395061C
:102500001092A00680919F06882309F439C253EEE9
:10251000C52E54E0D52E64E2E62E65E0F62E05E7E2
:1025200015E0CE57DF4F1882C258D0405601ABE9B4
:10253000AA0EB11C712C612C55245394912C812C22
:10254000D501ED91FC91E80DF91D608182E0880DC7
:102550000E944F02BFEF8B1A9B0AE4E08E16910493
:1025600079F7D50112968C918150833020F40E9426
:10257000BA00282E312CF50183818215130439F01D
:102580002382F301E755FF4FEC0DFD1D5082FFEF55
:102590006F1A7F0A24E0A20EB11C33E063167104A7
:1025A00069F6360184EB680E711C26019CEA490E1F
:1025B000511C912C812CF401E755FF4FEC0DFD1DB2
:1025C0008081882391F16AEF70E080E090E00E94C2
:1025D000F102CE57DF4F8881C258D0400E940A06D0
:1025E000C7010E942506CD57DF4F8882C358D040CF
:1025F000A82DA23009F0A6C0F8019489992309F406
:10260000FBC1923009F4FEC1B301CE0101960E94D4
:102610008A0B45E050E0BE016F5F7F4FC7010E940B
:10262000CE0BCE0101960E942D0A8FEF881A980AD0
:1026300093E08916910409F0BECF5601A9EAAA0ECB
:10264000B11C912CF50181915F01882309F473C1BC
:10265000319710826DE871E0CE0184589F4F0E943F
:10266000F40B81E5F701DE01119601900D928A9538
:10267000E1F7F801819163968FAF639787E0DE0100
:10268000AD5ABF4F01900D928A95E1F7D801189687
:102690008C9118976B968FAF6B9719968D919D9132
:1026A0000D90BC91A02D6F968CAF9DAFAEAFBFAF1C
:1026B0006F97F80185859685A785B089A3968CAF1D
:1026C0009DAFAEAFBFAFA39781899289A389B4892B
:1026D000A7968CAF9DAFAEAFBFAFA7978589968900
:1026E000A9969FAF8EAFA9978789908DA18DAC9643
:1026F0008DAF9EAFAFAFAC97B201CE0184599F4F63
:102700000E948A0BD80190968D919C91E4969FAF80
:102710008EAFE497B301CE018C589F4F0E948A0B75
:10272000F80180A591A5EC969FAF8EAFEC97F2E0F3
:102730009F1295C064E070E0059709F099C062E0CF
:1027400070E096C0D80150969C9124E0A22EB12C46
:10275000992341F045E0A42EB12C923019F433E0D6
:10276000A32EB12CF8019485992309F48DC18823F7
:1027700069F0F5E0AF16B10409F04AC1CD57DF4F5B
:102780002881C358D040223009F43ECFB201CE0197
:1027900001960E948A0B45E050E0BE016F5F7F4FBB
:1027A000C7010E94E10B3DCF64E670E080E090E05D
:1027B0000E94F102B701CE0101960E94050CBE01F4
:1027C0006F5F7F4FCE0184589F4F0E94F409CE0166
:1027D00001960E942D0AB201CE0184589F4F0E949B
:1027E000C409882309F43DC1CE0184589F4F1BCFF3
:1027F000B301CE0184589F4F0E94C40981110FC0BC
:10280000BE0164587F4FCE0101960E948A0BA5013C
:10281000BE016F5F7F4FC7010E94E10B30C164E6CC
:1028200070E080E090E00E94F102B701CE010196D5
:102830000E94050CBE016F5F7F4FCE0184589F4FF1
:102840000E94F409CE0101960E942D0AB301CE0127
:1028500084589F4F0E94C4098111C6CFD1CFE496FE
:102860008EAD9FADE49761E070E0059709F467CF06
:10287000CE0184589F4F0E94890ACE018C589F4FE9
:102880000E942D0ACE0184599F4F0E942D0AD80123
:1028900055966D917C91B2E09B1609F47EC0CE01F5
:1028A00084589F4F0E94890AF801468D578D628D8A
:1028B000738DCE0184589F4F0E945D0AD801909677
:1028C0006D917C91CE0184589F4F0E94890AC05817
:1028D000DF4F88819981C058D0400B97C0F48CE0BD
:1028E00091E00E94140261E070E0CE0184589F4F95
:1028F0000E940F01FC0180810E940F0288EF90E08E
:102900000E944A07CE0184589F4F0E94E40AC05893
:10291000DF4F88819981C058D040892B39F0EE96DD
:10292000EEADFFADEE97808181114DC0CE01845890
:102930009F4F0E942D0A9394F3E09F1283CE2BE7C2
:10294000C20ED11C3BE7E30EF11CCE57DF4F88814E
:10295000C258D0408F5FCE57DF4F8883C258D040D7
:1029600005581F4F833009F0E1CD0E94780386E1BE
:102970008093BA0064E670E080E090E00E94F1028B
:1029800080E090E0892B09F49FCD0E948C01882380
:1029900009F49ACD0E94000097CD6D5F7F4FCE0164
:1029A00084589F4F0E94890AF80146A157A162A14D
:1029B00073A1CE0184589F4F0E945D0AD80198965A
:1029C0006D917C917FCFBE0164587F4FCE010196FF
:1029D0000E948A0BCE0101960E94930BCE010196B4
:1029E0000E942D0A8DE093E00E942E07CE018458AC
:1029F0009F4F0E9456079ACF92E0A92EB12C8111C9
:102A000007C002CE882309F4FFCDAA24A394B12CD9
:102A1000B701CE0184589F4F0E94050CC058DF4F6C
:102A200088819981C058D040892B59F06DE972E0B6
:102A3000EE968EAD9FADEE970E94F417892B09F4A8
:102A4000D3CECD57DF4F3881C358D040323009F054
:102A5000CFCEB201CE0184589F4F0E94C40981118C
:102A6000A3CEBE0164587F4FCE0101960E948A0B0F
:102A7000A501BE016F5F7F4FC7010E94CE0BCE0143
:102A800001960E942D0AB0CE882309F47FCEBDCFD7
:102A90008DE896E00E942D0A85E896E00E942D0AB6
:102AA00082E196E00E942D0A8AE096E00E942D0ABB
:102AB00087E995E00E942D0A8FE895E00E942D0A93
:102AC00082EA96E00E942D0A87E996E00C942D0A8E
:102AD000BB274A3031F4992322F4BDE290958195C9
:102AE0009F4F0C947415BB27FB015527AA27880F0D
:102AF000991FAA1FA41710F0A41B83955051B9F772
:102B0000A05DAA3308F0A95DA193009779F7B111F0
:102B1000B1931192CB010C948D15DC01FC01672F50
:102B200071917723E1F7329704C07C916D937083A4
:102B30006291AE17BF07C8F308952F923F924F924C
:102B40005F926F927F928F929F92AF92BF92CF923D
:102B5000DF92EF92FF920F931F93CF93DF93CDB746
:102B6000DEB7CA1BDB0B0FB6F894DEBF0FBECDBFBE
:102B700009942A88398848885F846E847D848C848F
:102B80009B84AA84B984C884DF80EE80FD800C8198
:102B90001B81AA81B981CE0FD11D0FB6F894DEBF7B
:102BA0000FBECDBFED010895A1E21A2EAA1BBB1BDB
:102BB000FD010DC0AA1FBB1FEE1FFF1FA217B30709
:102BC000E407F50720F0A21BB30BE40BF50B661F1F
:102BD000771F881F991F1A9469F7609570958095E3
:102BE00090959B01AC01BD01CF010895EE0FFF1F31
:102BF0000590F491E02D09940F931F93CF93DF93E9
:102C00008230910510F482E090E0E091AA06F09104
:102C1000AB0630E020E0B0E0A0E0309799F4211559
:102C2000310509F44AC0281B390B24303105D8F589
:102C30008A819B816115710589F1FB0193838283F0
:102C4000FE0111C04081518102811381481759074B
:102C5000E0F04817590799F4109761F012960C9319
:102C6000129713961C933296CF01DF91CF911F914B
:102C70000F9108950093AA061093AB06F4CF211587
:102C8000310551F04217530738F0A901DB019A01D1
:102C9000BD01DF01F801C1CFEF01F9CF9093AB0681
:102CA0008093AA06CDCFFE01E20FF31F819391938B
:102CB0002250310939832883D7CF2091A80630913B
:102CC000A906232B41F42091020130910301309396
:102CD000A9062093A8062091000130910101211539
:102CE000310541F42DB73EB74091040150910501E3
:102CF000241B350BE091A806F091A906E217F30713
:102D0000A0F42E1B3F0B2817390778F0AC014E5F5B
:102D10005F4F2417350748F04E0F5F1F5093A906E9
:102D20004093A806819391939FCFF0E0E0E09CCF81
:102D3000CF93DF930097E9F0FC0132971382128260
:102D4000A091AA06B091AB06ED0130E020E010970B
:102D5000A1F420813181820F931F2091A806309128
:102D6000A9062817390709F061C0F093A906E09376
:102D7000A806DF91CF910895EA01CE17DF07E8F5A5
:102D80004A815B819E0141155105B1F7E901FB8341
:102D9000EA8349915991C40FD51FEC17FD0761F4DF
:102DA000808191810296840F951FE9019983888320
:102DB000828193819B838A83F0E0E0E012968D917B
:102DC0009C9113970097B9F52D913C911197CD01E6
:102DD0000296820F931F2091A8063091A90628170A
:102DE000390739F6309751F51092AB061092AA06C2
:102DF000B093A906A093A806BCCFD383C283408119
:102E00005181840F951FC817D90761F44E5F5F4F3A
:102E100088819981480F591F518340838A819B8102
:102E2000938382832115310509F0B0CFF093AB066F
:102E3000E093AA069ECFFD01DC01C0CF138212826F
:102E4000D7CFB0E0A0E0E7E2F7E10C949F158C014A
:102E5000009751F4CB010E94FC158C01C801CDB73D
:102E6000DEB7E0E10C94BB15FC01E60FF71F9C01F7
:102E700022503109E217F30708F49DC0D901CD9122
:102E8000DC911197C617D70798F0C530D10530F3FC
:102E9000CE0104978617970708F3C61BD70B229716
:102EA000C193D1936D937C93CF010E949816D6CF96
:102EB0005B01AC1ABD0A4C018C0E9D1EA091AA06A6
:102EC000B091AB06512C412CF12CE12C109731F52F
:102ED0008091A8069091A9068815990509F05CC013
:102EE0004616570608F058C08091000190910101E4
:102EF000009741F48DB79EB74091040150910501B0
:102F0000841B950BE817F90708F055C0F093A90644
:102F1000E093A806F90171836083A0CF8D919C9105
:102F2000119712966C90129713967C901397A81590
:102F3000B90559F56C0142E0C40ED11CCA14DB047A
:102F400020F1AC014A195B09DA011296159780F05D
:102F50006282738251834083D9016D937C93E11423
:102F6000F10471F0D7011396FC93EE93129776CF8C
:102F700022968C0F9D1FF90191838083F301EFCF7F
:102F8000F093AB06E093AA0669CF4816590608F4F9
:102F90002C017D01D3019ACFCB010E94FC157C014D
:102FA000009749F0AE01B8010E94EB17C8010E94DA
:102FB0009816870153CF10E000E050CFFB01DC01F1
:102FC00004C08D910190801921F441505040C8F700
:102FD000881B990B0895FB01DC0102C001900D9242
:102FE00041505040D8F70895FB01DC018D910190CC
:102FF00080190110D9F3990B0895FB01DC010190B0
:103000000D920020E1F70895FB01DC014150504092
:1030100048F001900D920020C9F701C01D92415067
:103020005040E0F7089510E0CFE8D0E004C0FE0182
:103030000E94F6152196C039D107C9F7F894FFCF41
:103040000000AC068000FFFFFFFFFFFF0000FF0055
:10305000FF0000000000010000000001000001016D
:103060000000000001000100010000010100010159
:103070000100000000010100000100010001010148
:103080000001000001010100010100010101010135
:1030900001010A0B0C0708090D0E0F00000000C209
:1030A0000122014F012F0280015E01720100000028
:1030B00000DB05AE0522068405A7059405850500FD
:1030C0000000008F03A204320D7B060D0A00486148
:1030D0006E646C6520526571756573740053656E1E
:1030E00064696E673A2000537562003035370044DA
:1030F000726100676F6E0057726974696E6720496C
:10310000443A200041757468656E74696361746542
:103110002057726974653A20004174656D70746956
:103120006E672049443A20005772697465205375D0
:1031300063636573733A20004F76657277726974C2
:1031400074696E67204576656E74204461746120F1
:10315000776974683A20004E6577204576656E740D
:1031600020446174613A200048616E646C652052AD
:1031700065636569766500546865204475656C20F3
:1031800048617320456E64656421004576656E7400
:103190002052656369657665642053756363657362
:1031A0007366756C6C792100436F6D6D756E696324
:1031B0006174696F6E204661696C757265210046A5
:1031C00061696C656420446174613A2000496E63F2
:1031D0006F6D696E672049443A20007E0046616940
:1031E0006C757265005B5741524E5D20436F756C84
:1031F00064206E6F74207265616420626C6F636B13
:10320000210A0057616974696E6720466F72204316
:10321000617264004361726420466F756E642100C0
:103220005772697474656E2049443A200057726978
:103230007465204661696C656400506C65617365F6
:103240002052656D6F76652043617264000A457691
:0C325000656E7420496E666F3A20000025
:00000001FF
