:100000000C9495000C94BD000C94BD000C94BD00A4
:100010000C94BD000C94BD000C94BD000C94BD006C
:100020000C94BD000C94BD000C94BD000C94BD005C
:100030000C94BD000C94BD000C94BD000C94BD004C
:100040000C94BC0D0C94BD000C948A0D0C94640DA2
:100050000C94BD000C94BD000C94BD000C94BD002C
:100060000C94060E0C94BD005374617274696E6733
:10007000204475656C210000000000240027002A40
:100080000000000000250028002B005B424F4F5469
:100090005D20496E697469616C697A65205A6F6E7A
:1000A000652000496E697469616C697A6174696F71
:1000B0006E20436F6D706C6574650A002068616422
:1000C0002061206D616C66756E6374696F6E2100CE
:1000D0005B4552524F525D205A6F6E653A200000C8
:1000E0000000002300260029000404040404040482
:1000F00004020202020202030303030303010204D7
:100100000810204080010204081020010204081099
:1001100020000000080002010000030407000000A6
:10012000000000000000530FB51411241FBECFEFD4
:10013000D8E0DEBFCDBF25E0AEE5B2E001C01D9244
:10014000A73EB207E1F712E0A0E0B1E0E2E6FFE28D
:1001500002C005900D92AE35B107D9F710E0C4E9A1
:10016000D0E004C02197FE010E948715C339D10752
:10017000C9F70E94CE0F0C94A4170C94000080E4E1
:1001800080937C0080917A00806480937A008091D3
:100190007A0086FDFCCF80917800909179000895D7
:1001A000E091AD02F091AE02309729F01092030376
:1001B0001092250309940895CF93DF93EC01E09109
:1001C000AB02F091AC023097F1F09091D5028091A2
:1001D000D4029817C0F090E0292F30E02617370797
:1001E00054F4DE01A20FB31F4C9121553D4FD901AC
:1001F0004C939F5FF1CF1092D5026093D402CB0154
:10020000DF91CF910994DF91CF9108950895AF9236
:10021000BF92CF92DF92EF92FF920F931F93CF93F3
:10022000DF936C017B018B01040F151FEB015E0155
:10023000AE18BF08C017D10759F06991D601ED91EA
:10024000FC910190F081E02DC6010995892B79F789
:10025000C501DF91CF911F910F91FF90EF90DF903B
:10026000CF90BF90AF900895FC01538D448D252F02
:1002700030E0842F90E0821B930B541710F0CF9640
:10028000089501970895FC01918D828D981761F072
:10029000A28DAE0FBF2FB11D5D968C91928D9F5F89
:1002A0009F73928F90E008958FEF9FEF0895FC0168
:1002B000918D828D981731F0828DE80FF11D858D1B
:1002C00090E008958FEF9FEF0895FC01918D228DAE
:1002D000892F90E0805C9F4F821B91098F73992733
:1002E000089586E293E00E94650121E0892B09F4DC
:1002F00020E0822F089580E090E0892B29F00E9471
:10030000710181110C9400000895FC01A48DA80FC7
:10031000B92FB11DA35ABF4F2C91848D90E0019647
:100320008F739927848FA689B7892C93A089B18967
:100330008C91837080648C93938D848D981306C008
:100340000288F389E02D80818F7D80830895EF926C
:10035000FF920F931F93CF93DF93EC0181E0888F7F
:100360009B8D8C8D98131AC0E889F989808185FF4F
:1003700015C09FB7F894EE89FF896083E889F989F1
:1003800080818370806480839FBF81E090E0DF91F3
:10039000CF911F910F91FF90EF900895F62E0B8D46
:1003A00010E00F5F1F4F0F731127E02E8C8D8E1101
:1003B0000CC00FB607FCFACFE889F989808185FF68
:1003C000F5CFCE010E948501F1CFEB8DEC0FFD2F13
:1003D000F11DE35AFF4FF0829FB7F8940B8FEA8923
:1003E000FB8980818062CFCF0F931F93CF93DF93E0
:1003F0008C01D0E0C0E0F801EC0FFD1F6491662392
:1004000041F086E293E00E94A701892B11F021962A
:10041000F2CFCE01DF91CF911F910F910895CF932D
:10042000DF93EC01888D8823B9F0AA89BB89E8891C
:10043000F9898C9185FD03C0808186FD0DC00FB6C2
:1004400007FCF7CF8C9185FFF2CF808185FFEDCF40
:10045000CE010E948501E9CFDF91CF9108958330CD
:1004600081F028F4813099F08230A9F00895873026
:10047000A9F08830C9F08430B1F4809180008F7D7C
:1004800003C0809180008F7780938000089584B5A9
:100490008F7784BD089584B58F7DFBCF8091B000A8
:1004A0008F778093B00008958091B0008F7DF9CF51
:1004B0001F93CF93DF93282F30E0F901EF5EFE4FBB
:1004C0008491F901E350FF4FD491F901E751FF4FB7
:1004D000C491CC23A9F0162F81110E942F02EC2F7A
:1004E000F0E0EE0FFF1FEF57FF4FA591B4918FB7CC
:1004F000F894EC91111108C0D095DE23DC938FBFE6
:10050000DF91CF911F910895DE2BF8CFCF93DF932A
:1005100090E0FC01E350FF4F249187519F4FFC0175
:1005200084918823D1F090E0880F991FFC01E9584D
:10053000FF4FA591B491FC01EF57FF4FC591D491A6
:1005400061110EC09FB7F8948C91E22FE0958E2335
:100550008C932881E223E8839FBFDF91CF91089598
:100560008FB7F894EC91E22BEC938FBFF6CF3FB7A7
:10057000F8948091A7029091A802A091A902B0914D
:10058000AA0226B5A89B05C02F3F19F00196A11D10
:10059000B11D3FBFBA2FA92F982F8827BC01CD01CD
:1005A000620F711D811D911D42E0660F771F881F2C
:1005B000991F4A95D1F708958F929F92AF92BF925B
:1005C000CF92DF92EF92FF924B015C010E94B70243
:1005D0006B017C010E94B7026C197D098E099F098D
:1005E000683E734081059105A8F321E0821A9108C5
:1005F000A108B10888EEC80E83E0D81EE11CF11CEA
:1006000081149104A104B10429F7FF90EF90DF90C9
:10061000CF90BF90AF909F908F900895DC01ED91A7
:10062000FC910284F385E02D09950895DC01ED919C
:10063000FC910190F081E02D0995089520917F02B1
:10064000260F3327331F21323105ECF42091FC02B1
:10065000FC0190E080E0243069F082E00895A091F0
:100660007F022191AC01415A5D4FA40FB52FB11DFE
:100670002C930196861798F380917F02680F609300
:100680007F0280E0089581E008951092FC0281E0ED
:100690008093FB021092D60261E082E10E94580230
:1006A00061E083E10E945802E9EBF0E080818E7FF7
:1006B000808380818D7F808388E48093B80085E487
:1006C0008093BC0008951092D5021092D40210922B
:1006D0000303109225030E94450380ED90E0909360
:1006E000D3028093D2028CED90E09093D10280935C
:1006F000D00208950C946303CF93DF9391E090931D
:100700005E028823B9F0C091B800D091BA00809100
:10071000BC008A7B8093BC0060E082E10E945802AA
:1007200060E083E10E9458020E944503D093BA0022
:10073000C093B800DF91CF9108958F929F92AF92AE
:10074000BF92CF92DF92EF92FF920F931F93CF93BE
:10075000DF93D0912503D13208F0D7C0182FC09174
:1007600024030E94B7026B017C018091FC0281117D
:100770006BC082E08093FC021093FB028FEF8093AA
:10078000FA021092F902D093F802A4E0B3E0E8ED87
:10079000F2E080E0D81391C01092D7028091D70286
:1007A000CC0FC82BC093D7028091D602813009F0BC
:1007B00088C01092D6020E94B7026B017C01809122
:1007C000D7028093BB008091FE029091FF02A0911E
:1007D0000003B0910103892B8A2B8B2BA1F00E947F
:1007E000B7020091FE021091FF02209100033091A8
:1007F00001036C197D098E099F0906171707280741
:10080000390708F442C08091BC0083FDD8CF85EC45
:100810008093BC000E94B7026B017C018091FC02B6
:10082000823009F450C08091FA028F3F09F46FC002
:100830008091FA02803209F46CC08091FA02803310
:1008400009F469C084E026C08091FE029091FF0205
:10085000A0910003B0910103892B8A2B8B2B09F403
:1008600084CF0E94B7028090FE029090FF02A09079
:100870000003B09001036C197D098E099F0986164B
:100880009706A806B90608F070CF8091FD020E9475
:100890007C0385E01092030310922503109202035B
:1008A000DF91CF911F910F91FF90EF90DF90CF904C
:1008B000BF90AF909F908F9008959D9191938F5F7F
:1008C00069CF85EEA5CF8091FE029091FF02A091A5
:1008D0000003B0910103892B8A2B8B2B09F49ECF47
:1008E0000E94B7020091FE021091FF0220910003C6
:1008F000309101036C197D098E099F0906171707AE
:100900002807390708F08ACFC0CF81E0C3CF80E045
:10091000C1CF82E0BFCF83E0BDCF81E080930203EF
:1009200084E280932403109203031092250364E170
:1009300070E080E090E00E94DC0281E00C949D0376
:10094000CF92DF92EF92FF920F931F93CF93DF939B
:10095000D82FC62F613208F098C00E94B7026B01F1
:100960007C018091FC0281116BC081E08093FC02CC
:100970008093FB029FEF9093FA021092F9029C0F72
:100980009093F8028093D7028091D702DD0FD82B85
:10099000D093D7028091D602813009F078C01092AE
:1009A000D6020E94B7026B017C018091D70280932E
:1009B000BB008091FE029091FF02A0910003B091D4
:1009C0000103892B8A2B8B2BA1F00E94B702009187
:1009D000FE021091FF0220910003309101036C1977
:1009E0007D098E099F09061717072807390708F49C
:1009F00048C08091BC0083FDD8CF85EC8093BC00BB
:100A00000E94B7026B017C018091FC02813009F4E5
:100A100040C08091F9028C1710F4C091F902E8ED02
:100A2000F2E0AFEAB2E080E08C1355C08C2FDF918A
:100A3000CF911F910F91FF90EF90DF90CF9008958D
:100A40008091FE029091FF02A0910003B0910103FA
:100A5000892B8A2B8B2B09F484CF0E94B70200913B
:100A6000FE021091FF0220910003309101036C19E6
:100A70007D098E099F09061717072807390708F00F
:100A800070CF8091FD020E947C03C0E0CFCF85EE45
:100A9000B5CF8091FE029091FF02A0910003B0912A
:100AA0000103892B8A2B8B2B09F4AECF0E94B7024E
:100AB0000091FE021091FF0220910003309101038A
:100AC0006C197D098E099F09061717072807390732
:100AD00008F09ACFD6CF91919D938F5FA5CF0895BF
:100AE000E091D5028091D402E81730F4F0E0E155AE
:100AF000FD4F808190E008958FEF9FEF08959091D2
:100B0000D5028091D4022FEF3FEF981748F4E92FD8
:100B1000F0E0E155FD4F208130E09F5F9093D502DA
:100B2000C90108958091D4029091D502891B990B37
:100B30000895CF92DF92EF92FF920F931F93CF937E
:100B4000DF937C01CB018A0120910203222389F0EB
:100B5000EB016B01C40ED51ECC15DD0569F0699162
:100B6000D701ED91FC910190F081E02DC70109952D
:100B7000F3CF642F0E941E03C801DF91CF911F9114
:100B80000F91FF90EF90DF90CF900895CF93DF9378
:100B90001F92CDB7DEB76983209102032223F9F0BB
:100BA00020912503203258F021E030E0FC0133830E
:100BB000228390E080E00F90DF91CF9108958091A3
:100BC0000303E82FF0E0EC5FFC4F998190838F5F87
:100BD000809303038093250381E090E0ECCF61E0F4
:100BE000CE0101960E941E03F7CF9091250421E0CB
:100BF0002093020390932403109203031092250381
:100C000061E070E001C0660F8A95EAF784E194E044
:100C10000E94C60581E00C949D0390E080E0089559
:100C2000CF92DF92EF92FF920F93CF93DF93EC017D
:100C30008AE48F8781E0888B198A6E012FE4C20EC7
:100C4000D11CD6018D919C917E01BFE0EB0EF11C71
:100C5000DC01ED91FC910480F581E02D00E030E0B5
:100C600020E043E0B7010995811125C0F60180819C
:100C70009181DC01ED91FC910680F781E02D28EE59
:100C800033E040E4B701099597FD15C08F858130A9
:100C900091F48C89FE01E75AFF4F808380E09C89A4
:100CA000891790F4FE01E80FF11D9589EE5AFF4F68
:100CB00090838F5FF4CF80E0DF91CF910F91FF9011
:100CC000EF90DF90CF90089581E0F6CFAF92BF9282
:100CD000CF92DF92EF92FF920F931F93CF93DF9308
:100CE0008C01D62EC72EF42E5901D0E0C0E082E050
:100CF000E82EE40E6E2D80E28E1508F460E284E2A8
:100D00000E94A0041092D5028093D402811110C0D9
:100D100061E070E080E090E00E94DC022196A11486
:100D2000B10441F3AC16BD0628F78FEF9FEF10C05A
:100D3000F801828193810E940E0380FFE9CFF801C0
:100D4000828193810E940E03882369F08DEF9FEFCB
:100D5000DF91CF911F910F91FF90EF90DF90CF9097
:100D6000BF90AF900895F801828193810E940E0395
:100D70008111ECCFF801828193810E940E038F3F95
:100D800029F7F801828193810E940E03C82FF80190
:100D9000828193810E940E038C0FC1F6F801D481E9
:100DA000EE24E394ED0E828193810E940E03853D33
:100DB00069F6F801828193810E940E03E812C6CF82
:100DC000C2508CEF9FEFFC1618F2DA52BD2CED2CBE
:100DD000FC2CF801828193812E2D2B192C1738F4CD
:100DE0000E940E03F70181937F01D80FF2CF0E947A
:100DF0000E038D0F09F0AACFF801828193810E9422
:100E00000E038C2F90E0A4CF6115710579F0FB01E2
:100E100001900020E9F73197AF01461B570BDC0129
:100E2000ED91FC910280F381E02D099490E080E047
:100E3000089542E050E06BE871E086E293E00C94A4
:100E40000701CF93DF930E94F401EC010E94190780
:100E50008C0F9D1FDF91CF9108958091DB05882332
:100E600041F06091D9057091DA0584E194E00C9429
:100E700004078091D7058530B1F028F46AE971E064
:100E8000843099F008958630A9F0873059F46EE8DF
:100E900071E084E194E00E94040781E08093DC0526
:100EA0001092D705089562E971E084E194E00E9410
:100EB0000407F6CF66E971E084E194E00E9404073C
:100EC00081E08093DB0588E690E00E942107E8CF6F
:100ED000CF93DF93FC01448155816081718186E26B
:100EE00093E00E940701EC010E9419078C0F9D1FDF
:100EF000DF91CF910895CF92DF92EF92FF920F93FF
:100F00001F93CF93DF93CDB7DEB7A1970FB6F894B9
:100F1000DEBF0FBECDBF282F30E050E040E019A269
:100F20008E010F5D1F4F8AE0C82ED12CE12CF12CD1
:100F3000CA01B901A70196010E945115605DF8012F
:100F400062938F01211531054105510589F7BF01D4
:100F500086E293E00E9404078C010E941907800F2B
:100F6000911FA1960FB6F894DEBF0FBECDBFDF91E3
:100F7000CF911F910F91FF90EF90DF90CF90089548
:100F8000CF93DF93BC0186E293E00E940407EC015B
:100F90000E9419078C0F9D1FDF91CF910895CF926A
:100FA000DF92EF92FF920F931F93CF93DF93EC01A9
:100FB000142F6C0128E0C20ED11C86E0F701D60187
:100FC00001900D928A95E1F750E0CE010E947C17C6
:100FD0001F8380E48F8781E0888B80E6898B0A8B72
:100FE000DE01539686E0F60101900D928A95E1F7B5
:100FF0009C2FEC2FFD2F8E2F891B811718F48191C8
:10100000808FF9CF6E01BFE4CB0ED11CF601808139
:1010100091817E01FFE0EF0EF11C4AE0410FDC01FF
:10102000ED91FC910480F581E02D00E030E020E0BE
:10103000B7010995811111C0F60180819181DC0110
:10104000ED91FC910680F781E02D28EE33E040E43D
:10105000B701099581E09F85911180E0DF91CF91E3
:101060001F910F91FF90EF90DF90CF900895CF9256
:10107000DF92EF92FF920F931F93CF93DF9300D0F5
:1010800000D000D01F92CDB7DEB76C016EE971E0E1
:1010900086E293E00E940407C6010E94680786E08A
:1010A000E6E0F1E0DE01119601900D928A95E1F7FC
:1010B0000091B70410E030E020E0CE0101967C0101
:1010C0004091BF0468EB74E086E694E00E94CF078D
:1010D000182F6BEA71E086E293E00E940407812FEB
:1010E0000E947B0780E0113009F06DC0D601149694
:1010F0004D915C911F8190E080E08417950730F45A
:10110000D601ED91FC91309709F06CC01092CF029E
:10111000EFECF2E02081120F01968930910569F71A
:101120001F8360EC71E086E293E00E940407812F48
:101130000E947B078091B70490E49093750491E03E
:101140009093760490EA909377048093780480E1FA
:10115000FE013796A9E7B4E001900D928A95E1F778
:101160008091B5049091B604DC01ED91FC9104806E
:10117000F581E02D00E030E020E044E165E774E037
:101180000995811114C08091B5049091B604DC01D9
:10119000ED91FC910680F781E02D28EE33E040E4EC
:1011A00065E774E0099511E0181619060CF010E0D7
:1011B0006FEC71E086E293E00E940407812F0E94A9
:1011C0007B07812F817027960FB6F894DEBF0FBE84
:1011D000CDBFDF91CF911F910F91FF90EF90DF90E6
:1011E000CF900895E80FF91F95CFEF92FF920F93DC
:1011F0001F93CF93DF93CDB7DEB72D970FB6F8943B
:10120000DEBF0FBECDBFFC01048115819E012F5FA3
:101210003F4F79010115110511F51982F092DA0598
:10122000E092D90560E08091D8050E9458026AE0FA
:1012300070E080E090E00E94DC0261E08091D805DF
:101240000E9458022D960FB6F894DEBF0FBECDBF98
:10125000DF91CF911F910F91FF90EF9008950C3087
:10126000110510F00CE010E0FC0160817181A80113
:10127000C7010E949517F701E00FF11F1082CECF32
:10128000FC0124813581FB014481558124173507F8
:10129000E1F4FC0180819181FB0160817181009703
:1012A000D1F061157105A1F4232BC1F0FC018081FF
:1012B00090E008C0232B91F0FB01808190E0919594
:1012C0008195910921E0892B09F020E0822F089572
:1012D0000E948517F7CF6115710561F721E0F6CF00
:1012E0000F931F93CF93DF938C01EB01FC0180815F
:1012F00091810097E1F06881798161157105A9F00C
:10130000428153812C813D814217530770F00E9426
:101310008E178C819D81F801958384831D821C82A8
:10132000DF91CF911F910F9108950E942916888116
:101330009981F801918380838A819B819383828341
:101340008C819D8195838483198218821B821A82E5
:10135000E5CFFC0180819181009711F00C94291652
:1013600008950F931F93CF93DF93EC0188819981A8
:10137000009759F02A813B812617370730F081E02A
:10138000DF91CF911F910F9108958B016F5F7F4F78
:101390000E94B216009759F0998388831B830A83B1
:1013A0002C813D81232B59F7FC011082E8CF80E08E
:1013B000E7CFEF92FF920F931F93CF93DF936115C7
:1013C000710541F480E0DF91CF911F910F91FF9063
:1013D000EF90089541155105B1F07B01EC010C81AE
:1013E0001D81040F151FB8010E94B109882351F314
:1013F000288139818C819D81B701820F931F0E94C2
:101400008E171D830C8381E0DECFEF92FF920F9346
:101410001F93CF93DF93CDB7DEB728970FB6F8941D
:10142000DEBF0FBECDBF7C01CB014AE08E010F5F56
:101430001F4FB8010E94D114F80101900020E9F774
:101440003197AF01401B510BB801C7010E94D90968
:1014500028960FB6F894DEBF0FBECDBFDF91CF91B7
:101460001F910F91FF90EF900895EF92FF920F93CD
:101470001F93CF93DF93EC017B018A01BA010E9495
:10148000B10928813981811114C02115310519F064
:10149000C9010E942916198218821D821C821B8292
:1014A0001A82CE01DF91CF911F910F91FF90EF90A3
:1014B00008951D830C83B701C9010E948E17F1CFD7
:1014C00050E040E06DE871E00C94350ACF93DF9373
:1014D00000D0CDB7DEB78091DC058823D1F08DED4B
:1014E00095E00E94600A9091D4028091D5029817ED
:1014F00071F184E194E00E947F0589831A8241E0C2
:1015000050E0BE016F5F7F4F8DED95E00E94D909DD
:10151000EACF9091D4028091D502981739F084E1F6
:1015200094E00E947F058093D705F3CF8091D70583
:10153000843059F0883011F0823049F48DE891E020
:101540009093DA058093D90502C01092DB050F90C5
:101550000F90DF91CF910895CF93DF93EC01FB01C2
:101560008617970749F0608171816115710541F017
:10157000448155810E94350ACE01DF91CF910895B3
:1015800088819981009711F00E942916198218828A
:101590001D821C821B821A82EFCFFC0111821082F5
:1015A00013821282158214820C94AC0A0F931F933B
:1015B000CF93DF93EC018A018D589F4F0E94AC0AB4
:1015C000C758DF4F19830883DF91CF911F910F9187
:1015D00008950F931F93CF93DF93EC018A018559F0
:1015E0009F4F0E94AC0ACF58DF4F19830883DF91C9
:1015F000CF911F910F910895FC01118210821382E7
:10160000128215821482FB0101900020E9F73197C4
:10161000AF01461B570B0C94350A8F929F92AF92E5
:10162000BF92CF92DF92EF92FF920F931F93CF93CF
:10163000DF93CDB7DEB76C970FB6F894DEBF0FBE61
:10164000CDBF5C016B0186E0E6E0F1E0DE01519682
:1016500001900D928A95E1F74B0121E5820E911CD4
:10166000D4010C9110E030E020E0FB01E75AFF4F7D
:101670006E5A7F4FCE0141967C014081C6010E9487
:10168000CF07811106C06FED71E0C5010E94FC0A11
:101690005AC0D4018C9190E4F601978791E0908B29
:1016A00090E3918B828B7601FFE4EF0EF11CD70162
:1016B0008D919C914601BFE08B0E911CDC01ED9158
:1016C000FC910480F581E02D00E030E020E044E072
:1016D000B401099581114BC0F70180819181DC0132
:1016E000ED91FC910680F781E02D28EE33E040E497
:1016F000B4010995F6018785811139C080E17096A2
:10170000DE01119601900D928A95E1F7BE016F5F9F
:101710007F4FCE0147960E94FC0AD50111961C927C
:101720001E9213961C921E92129715961C921E9250
:101730001497BE01695E7F4FC5010E947009CE01FA
:1017400047960E94A909C5016C960FB6F894DEBFB2
:101750000FBECDBFDF91CF911F910F91FF90EF9002
:10176000DF90CF90BF90AF909F908F90089567EEDD
:1017700071E086E293E00E94040785CFEF92FF922A
:101780001F93CF93DF9300D000D000D0CDB7DEB74A
:10179000DC0114962D913C911597232B09F46DC013
:1017A000ED91FC912081222309F467C07C0180E047
:1017B0000E94F50586E694E00E941006182F81111C
:1017C00017C085E092E00E94C00760ED77E080E0FE
:1017D00090E00E94DC02812F26960FB6F894DEBFBF
:1017E0000FBECDBFDF91CF911F91FF90EF90089575
:1017F00086E192E00E94C00760ED77E080E090E033
:101800000E94DC02B701CE0101960E94CD0ACE01F2
:1018100001960E943708182FCE0101960E94A9094F
:1018200062E272E086E293E00E940407112301F174
:1018300066E674E0CE0101960E940D0BCE01019682
:101840000E946807CE0101960E94A90986E694E0ED
:101850000E941006882309F4BECF8CE392E00E9418
:10186000C00760ED77E080E090E00E94DC02EECF00
:101870008FE292E00E94C007AECF10E0ACCF5F9243
:101880006F927F928F929F92AF92BF92CF92DF9290
:10189000EF92FF920F931F93CF93DF93CDB7DEB7F5
:1018A0002C970FB6F894DEBF0FBECDBF7C016B0145
:1018B000842EB22E532EFB018081F7018483828116
:1018C000938121E02093020324E2209324031092C9
:1018D00003031092250360E00E94160360E0F70105
:1018E000828193810E9416036FEFF70182819381B9
:1018F0000E941603182D100F61E0610FF70182811D
:1019000093810E941603612F6095F7018281938174
:101910000E94160364EDF701828193810E941603F1
:101920008C0C9D2C911C14EDF701828193818C14F9
:101930009D04C9F4CB2CD52C5601A00EB11CF70187
:1019400082819381AC14BD0499F14601F601608156
:101950000E941603882371F0FFEFCF1ADF0AF4010B
:101960008081180FECCF3601F60160810E941603CA
:10197000811117C08DEF2C960FB6F894DEBF0FBE05
:10198000CDBFDF91CF911F910F91FF90EF90DF902E
:10199000CF90BF90AF909F908F907F906F905F900F
:1019A0000895FFEFCF1ADF0AF3018081180FBCCF33
:1019B000612F61950E94160360E0F7018281938197
:1019C0000E94160381E00E949D0386E0ECE0F1E0B6
:1019D000DE01179601900D928A95E1F70BE010E079
:1019E00067E084E20E94A0041092D5028093D402A2
:1019F00081110BC061E070E080E090E00E94DC02A9
:101A00000150110969F78EEFB6CFF70182819381FA
:101A10000E940E0380FFEECF8E010F5F1F4F5E010D
:101A2000F7E0AF0EB11C6801F701828193810E943B
:101A30000E03F80181938F01EA15FB05A9F746E033
:101A400050E0BF01C6010E946F1721E0892B09F405
:101A500020E0822F81958FCF85ED8093BC0080910F
:101A6000FE029091FF02A0910003B091010307963E
:101A7000A11DB11D23E0B695A795979587952A9549
:101A8000D1F72091BC0024FD03C01092FC02089500
:101A90004091FE025091FF0260910003709101039A
:101AA000452B462B472B69F30097A105B10541F063
:101AB00025E32A95F1F700000197A109B109E1CFCB
:101AC0008091FD020C947C031F920F920FB60F922F
:101AD00011242F933F934F935F936F937F938F9333
:101AE0009F93AF93BF93EF93FF9386E293E00E949F
:101AF0008501FF91EF91BF91AF919F918F917F9160
:101B00006F915F914F913F912F910F900FBE0F906A
:101B10001F9018951F920F920FB60F9211242F93BA
:101B20008F939F93EF93FF93E0913603F0913703E8
:101B30008081E0913C03F0913D0382FD1BC09081C8
:101B400080913F038F5F8F7320914003821741F094
:101B5000E0913F03F0E0EA5DFC4F958F80933F03F7
:101B6000FF91EF919F918F912F910F900FBE0F904A
:101B70001F9018958081F4CF1F920F920FB60F928D
:101B800011242F933F938F939F93AF93BF93809193
:101B9000A3029091A402A091A502B091A602309157
:101BA000A20223E0230F2D3758F50196A11DB11D88
:101BB0002093A2028093A3029093A402A093A50273
:101BC000B093A6028091A7029091A802A091A902C9
:101BD000B091AA020196A11DB11D8093A702909316
:101BE000A802A093A902B093AA02BF91AF919F91BE
:101BF0008F913F912F910F900FBE0F901F901895CE
:101C000026E8230F0296A11DB11DD2CF1F920F927D
:101C10000FB60F9211242F933F934F935F936F93BF
:101C20007F938F939F93AF93BF93EF93FF93809195
:101C3000B900887F803609F44AC0F0F5883209F48B
:101C4000A7C018F5803109F49BC0B8F4882309F4C3
:101C5000F9C0883009F494C0FF91EF91BF91AF9122
:101C60009F918F917F916F915F914F913F912F91B4
:101C70000F900FBE0F901F901895883109F488C0FF
:101C8000803251F78093FA0214C0803409F49DC069
:101C900040F48033B9F38833F9F68093FA0285EC87
:101CA000B0C0803509F485C0883509F496C0883401
:101CB00099F60E942C0DD0CF883909F48CC038F5E4
:101CC000883729F050F4883611F0803729F683E000
:101CD0008093FC021092A10257C0883809F47BC09F
:101CE000803919F0803809F0B7CF8091A102803295
:101CF00008F071C0E091A10281E08E0F8093A102F3
:101D00008091BB00F0E0EF57FD4F80833DC0803BEA
:101D100039F0E0F4803A09F479C0883A09F09CCFB0
:101D200084E08093FC021092800210927F02E09186
:101D3000D202F091D302099580917F0281110FC0E8
:101D400081E080937F0210925F0209C0803C09F419
:101D5000A6CF883C09F4A3CF883B09F07DCFE09162
:101D6000800281E08E0F80938002F0E0E15AFD4F07
:101D700080818093BB009091800280917F0229C076
:101D80008091D7028093BB0085EC8093BC0064CF28
:101D90009091F9028091F802981758F5E091F902B4
:101DA00081E08E0F8093F902F0E0E852FD4F8081D0
:101DB000E9CFE091F90281E08E0F8093F9028091E2
:101DC000BB00F0E0E852FD4F80839091F9028091D2
:101DD000F8029817C8F285E8D8CFE091F90281E0BF
:101DE0008E0F8093F9028091BB00F0E0E852FD4F26
:101DF00080838091FB0281115CCF81E08093D602C9
:101E000084EA8093BC001092FC0226CF85EC80937C
:101E1000BC001092FC028091A102803230F4E0916B
:101E2000A102F0E0EF57FD4F10826091A10270E037
:101E3000E091D002F091D10281E892E009951092F0
:101E4000A1020ACF1092FA0234CF0F931F93CF93BF
:101E5000DF93EC01FC01EF5AFF4F84E0808377961B
:101E6000108231961082319610826DE871E0CE01B9
:101E700085599F4F0E94FC0AFE01EF58FF4F05E075
:101E800010E0118300836DE871E0CE018D589F4F03
:101E90000E94FC0AC758DF4F19830883DF91CF9156
:101EA0001F910F9108950F931F93CF93DF93E6E255
:101EB000F3E01382128288EE93E0A0E0B0E0848326
:101EC0009583A683B7832FE531E03183208325EC0A
:101ED00030E03587248724EC30E03787268720ECF4
:101EE00030E0318B208B21EC30E0338B228B22ECE5
:101EF00030E0358B248B26EC30E0378B268B118E2F
:101F0000128E138E148E04E114E0F80113821282F3
:101F100084839583A683B78381E791E0918380834F
:101F2000C7EDD5E088E089831C821D826DE871E0F1
:101F30008DED95E00E94FC0A61E089810E94860295
:101F400061E089810E94580280E78093250480E443
:101F5000E2E1F1E0A6E2B4E001900D928A95E1F7AA
:101F600086E694E00E94250F81EE94E00E94250F02
:101F70008CE595E00E94250FE0E2F4E083E891E033
:101F800091838083138302831482F0931304E0937C
:101F90001204DF91CF911F910F910895CF93DF939A
:101FA000CDB7DEB7C358D1090FB6F894DEBF0FBE68
:101FB000CDBF789484B5826084BD84B5816084BDD2
:101FC00085B5826085BD85B5816085BD80916E00D7
:101FD000816080936E001092810080918100826008
:101FE0008093810080918100816080938100809145
:101FF00080008160809380008091B1008460809334
:10200000B1008091B00081608093B00080917A002F
:10201000846080937A0080917A00826080937A0055
:1020200080917A00816080937A0080917A00806844
:1020300080937A001092C100E0913603F09137034B
:1020400082E08083E0913203F09133031082E091CB
:102050003403F091350380E1808310923E03E091D8
:102060003A03F0913B0386E08083E0913803F091DE
:102070003903808180618083E0913803F0913903D6
:10208000808188608083E0913803F09139038081FA
:1020900080688083E0913803F091390380818F7DDF
:1020A00080830E94630301E0809125040093020372
:1020B00080932403109203031092250381E00E9471
:1020C0009D03182F62E370E080E090E00E94DC0244
:1020D0001111EACF61E082E00E94860261E083E0B4
:1020E0000E94860261E084E00E94860261E085E051
:1020F0000E94860260E08EE00E948602B2E58B2E8E
:10210000B1E09B2E15E5A12E11E0B12E08E5402E81
:1021100001E0502E80ECE82E84E0F82ED12CC12C6A
:1021200011E03C2C8C2D0E94F505809112049091B9
:102130001304DC01ED91FC910190F081E02D0995F3
:102140008091120490911304DC01ED91FC910280C6
:10215000F381E02D0995B8E5B093D2031092D30333
:102160008091120490911304DC01ED91FC910480A4
:10217000F581E02D00E030E020E042E062ED73E028
:102180000995B2E3B093D203E5E0E093D303FFEF08
:10219000F093D4031093D5032AE02093D6038091C3
:1021A000120490911304DC01ED91FC910480F581FF
:1021B000E02D30E020E045E062ED73E0099581110B
:1021C00010C08091120490911304DC01ED91FC91F8
:1021D0000680F781E02D28EE33E040E462ED73E005
:1021E0000995F40121904F01D501ED915D01CE5784
:1021F000DF4FE883C258D040D2010D912D018BE80A
:1022000090E00E94F401832D0E947B07D701AA551C
:10221000B10981E5E3ECF3E001900D928A95E1F7D5
:10222000F701D586C486F4E00F9FC00111248A5DB2
:102230009B4FD70111969C938E9312961C931297E5
:1022400013961C93CE57DF4FE881C258D040B4E0BC
:10225000EB9FC00111248A5D9B4FD70115969C937B
:102260008E93149782E016968C93169717961C936C
:10227000B4E02B9EC00111248A5D9B4FF70191872A
:10228000808723E0228713873FEFC31AD30A8BE7A7
:10229000E80EF11C93E0C916D10409F042CF6AE0C0
:1022A00070E080E090E00E94DC020E94630386E11F
:1022B0008093BA0086E69AE09093AC028093AB02DA
:1022C0008DE297E09093AE028093AD0283EA90E0B6
:1022D0000E9421078091DC058823D1F06DED75E027
:1022E000CE0101960E94CD0ACE0101960E94BE0B3E
:1022F000182FCE0101960E94A909112349F08DEDF6
:1023000095E00E94600A87E08093D7051092DC0573
:102310008091DB05882309F49CC2F5E2CF2EF4E01E
:10232000DF2EA6E6EA2EA4E0FA2E07EB14E0CE5745
:10233000DF4F1882C258D0404601ABE98A0E911C8B
:10234000512C412CEAE02E2E312CB12CA12CD401A1
:10235000ED91FC91EA0DFB1D608182E08A0D0E94E7
:102360005802BFEFAB1ABB0AE4E0AE16B10479F72E
:10237000D40112968C91823009F40EC1833009F495
:1023800025C1813001F5EFE1F1E08491EBE0F1E06E
:10239000A490E7EFF0E0B490712C612CBB2099F091
:1023A00081110E942F02EB2DF0E0EE0FFF1FE15292
:1023B000FF4FA591B4918C91A82291E080E009F49F
:1023C00090E0692E782ED40113968C911397861580
:1023D000170449F013966C92F201E755FF4FEC0D8C
:1023E000FD1DB1E0B083EFEF4E1A5E0AF4E08F0EF0
:1023F000911C23E04216510409F0A7CF260134EBCB
:10240000430E511C16018CEA280E311C912C812C94
:10241000F401E755FF4FEC0DFD1D8081882399F1F4
:102420006AEF70E080E090E00E94DC02CE57DF4F60
:102430008881C258D0400E94F505C7010E9410064D
:10244000CD57DF4F8882C358D040982D923009F085
:10245000D5C0D80154969C91992309F43AC2923080
:1024600009F43DC2B201CE0101960E94CD0A45E0B9
:1024700050E0BE016F5F7F4FC7010E94D60ACE01B8
:1024800001960E94A9092FEF821A920A33E083165F
:10249000910409F0BDCF560189EAA80EB11C912C18
:1024A000D5018D915D01882309F4AEC1FD013197FD
:1024B00010826DE871E0CE0184589F4F0E94FC0AA3
:1024C00081E5F701DE01119601900D928A95E1F701
:1024D000F801819163968FAF639787E0DE01AD5A73
:1024E000BF4F01900D928A95E1F7F80180856B96B8
:1024F0008FAF6B9781859285A385B4856F968CAFDE
:102500009DAFAEAFBFAF6F9785859685A785B08924
:10251000A3968CAF9DAFAEAFBFAFA39781899289D1
:10252000A389B489A7968CAF9DAFAEAFBFAFA79775
:1025300085899689A9969FAF8EAFA9978789908D37
:10254000A18DAC968DAF9EAFAFAFAC97B101CE0170
:1025500084599F4F0E94CD0AD80190968D919C91ED
:10256000E4969FAF8EAFE497B201CE018C589F4F97
:102570000E94CD0AF80180A591A5EC969FAF8EAF81
:10258000EC97F2E09F12C7C064E070E0059709F095
:10259000CBC062E070E0C8C06AE0762EB12CA12CFE
:1025A0000E94BF00A80EB91E7A947110F9CFC50120
:1025B000B1010E943D15683C7105F4F081E0693578
:1025C00072400CF480E0682E712CFDCE5AE0752E1E
:1025D000B12CA12C0E94BF00A80EB91E7A947110D4
:1025E000F9CFC501B1010E943D156238710554F360
:1025F00081E0613273403CF782E0E5CFF8019089D9
:1026000024E0A22EB12C992341F045E0A42EB12C58
:10261000923019F433E0A32EB12CD8011C969C9172
:10262000992309F49EC1882369F0B5E0AB16B10483
:1026300009F05BC1CD57DF4FE881C358D040E2308D
:1026400009F410CFB101CE0101960E94CD0A45E0F8
:1026500050E0BE016F5F7F4FC7010E94E90A0FCFB4
:1026600064E670E080E090E00E94DC02B701CE01F9
:1026700001960E940D0BBE016F5F7F4FCE01845803
:102680009F4F0E947009CE0101960E94A909B101D5
:10269000CE0184589F4F0E944009882309F44EC1FF
:1026A000CE0184589F4FEDCEB201CE0184589F4F8A
:1026B0000E94400981110FC0BE0164587F4FCE01B6
:1026C00001960E94CD0AA501BE016F5F7F4FC70131
:1026D0000E94E90A41C164E670E080E090E00E9457
:1026E000DC02B701CE0101960E940D0BBE016F5FA7
:1026F0007F4FCE0184589F4F0E947009CE010196F2
:102700000E94A909B201CE0184589F4F0E9440093E
:102710008111C6CFD1CFE4968EAD9FADE49761E035
:1027200070E0059709F435CFCE0184589F4F0E9481
:10273000050ACE018C589F4F0E94A909CE018459E9
:102740009F4F0E94A909D80155966D917C91B2E0E6
:102750009B1609F48BC0CE0184589F4F0E94050A36
:10276000F801468D578D628D738DCE0184589F4F31
:102770000E94D909D80190966D917C91CE01845820
:102780009F4F0E94050AC058DF4F88819981C05829
:10279000D0400B9728F580ED90E00E94F401C058DE
:1027A000DF4F88819981C058D040029738F0EE966B
:1027B000EEADFFADEE97309709F06EC01092CF02EC
:1027C000EFECF2E0608186E293E00E94A7018CEBDF
:1027D00090E00E942107CE0184589F4F0E94600A1A
:1027E000C058DF4F88819981C058D040892B39F07B
:1027F000EE96EEADFFADEE97808181114FC0CE0118
:1028000084589F4F0E94A9099394B3E09B1248CE2D
:10281000EBE7CE0ED11CFBE7EF0EF11CCE57DF4FDE
:102820002881C258D0402F5FCE57DF4F2883C2582F
:10283000D04005581F4F233009F07ECD0E9463031E
:1028400086E18093BA0064E670E080E090E00E9448
:10285000DC0280E090E0892B09F43CCD0E947101FC
:10286000882309F437CD0E94000034CD6D5F7F4F7F
:10287000CE0184589F4F0E94050AF80146A157A136
:1028800062A173A1CE0184589F4F0E94D909D8013B
:1028900098966D917C9172CF319694CFBE01645819
:1028A0007F4FCE0101960E94CD0ACE0101960E9473
:1028B000F508CE0101960E94A9096FE472E086E254
:1028C00093E00E940407CE0184589F4F0E9468073E
:1028D00096CF92E0A92EB12C811107C0C3CD8823D9
:1028E00009F4C0CDAA24A394B12CB701CE01845819
:1028F0009F4F0E940D0BC058DF4F88819981C058AF
:10290000D040892B59F06FED71E0EE968EAD9FAD02
:10291000EE970E948517892B09F4C2CECD57DF4F61
:10292000F881C358D040F23009F0BECEB101CE01DB
:1029300084589F4F0E944009811192CEBE01645875
:102940007F4FCE0101960E94CD0AA501BE016F5FA7
:102950007F4FC7010E94D60ACE0101960E94A909A5
:102960009FCE882309F46ECEBDCF8FEC95E00E94F8
:10297000A90987EC95E00E94A90984E595E00E94E9
:10298000A9098CE495E00E94A90989ED94E00E94D0
:10299000A90981ED94E00E94A9098DED95E00C94C0
:1029A000A909BB274A3031F4992322F4BDE290955E
:1029B00081959F4F0C94DD14BB27FB015527AA2757
:1029C000880F991FAA1FA41710F0A41B83955051BC
:1029D000B9F7A05DAA3308F0A95DA193009779F734
:1029E000B111B1931192CB010C94F614DC01FC01EE
:1029F000672F71917723E1F7329704C07C916D9333
:102A000070836291AE17BF07C8F308952F923F926B
:102A10004F925F926F927F928F929F92AF92BF92EE
:102A2000CF92DF92EF92FF920F931F93CF93DF939A
:102A3000CDB7DEB7CA1BDB0B0FB6F894DEBF0FBEF7
:102A4000CDBF09942A88398848885F846E847D8444
:102A50008C849B84AA84B984C884DF80EE80FD8046
:102A60000C811B81AA81B981CE0FD11D0FB6F894BC
:102A7000DEBF0FBECDBFED01089597FB072E16F404
:102A8000009407D077FD09D00E94731507FC05D08C
:102A90003EF4909581959F4F0895709561957F4F75
:102AA0000895A1E21A2EAA1BBB1BFD010DC0AA1F8F
:102AB000BB1FEE1FFF1FA217B307E407F50720F0A7
:102AC000A21BB30BE40BF50B661F771F881F991F22
:102AD0001A9469F760957095809590959B01AC016B
:102AE000BD01CF010895AA1BBB1B51E107C0AA1F5E
:102AF000BB1FA617B70710F0A61BB70B881F991F9F
:102B00005A95A9F780959095BC01CD010895EE0FD7
:102B1000FF1F0590F491E02D09940F931F93CF931D
:102B2000DF938230910510F482E090E0E091E505BA
:102B3000F091E60530E020E0B0E0A0E0309799F4B5
:102B40002115310509F44AC0281B390B2430310501
:102B5000D8F58A819B816115710589F1FB01938309
:102B60008283FE0111C04081518102811381481787
:102B70005907E0F04817590799F4109761F0129639
:102B80000C93129713961C933296CF01DF91CF913D
:102B90001F910F9108950093E5051093E605F4CF7A
:102BA0002115310551F04217530738F0A901DB0117
:102BB0009A01BD01DF01F801C1CFEF01F9CF909378
:102BC000E6058093E505CDCFFE01E20FF31F81936B
:102BD00091932250310939832883D7CF2091E3057F
:102BE0003091E405232B41F420910201309103013F
:102BF0003093E4052093E305209100013091010119
:102C00002115310541F42DB73EB740910401509193
:102C10000501241B350BE091E305F091E405E21773
:102C2000F307A0F42E1B3F0B2817390778F0AC01EF
:102C30004E5F5F4F2417350748F04E0F5F1F5093CC
:102C4000E4054093E305819391939FCFF0E0E0E0AA
:102C50009CCFCF93DF930097E9F0FC01329713826A
:102C60001282A091E505B091E605ED0130E020E08B
:102C70001097A1F420813181820F931F2091E305E9
:102C80003091E4052817390709F061C0F093E40595
:102C9000E093E305DF91CF910895EA01CE17DF07B6
:102CA000E8F54A815B819E0141155105B1F7E901C3
:102CB000FB83EA8349915991C40FD51FEC17FD0797
:102CC00061F4808191810296840F951FE9019983B7
:102CD0008883828193819B838A83F0E0E0E012966F
:102CE0008D919C9113970097B9F52D913C91119777
:102CF000CD010296820F931F2091E3053091E405E8
:102D00002817390739F6309751F51092E6051092D9
:102D1000E505B093E405A093E305BCCFD383C2835C
:102D200040815181840F951FC817D90761F44E5F08
:102D30005F4F88819981480F591F518340838A8151
:102D40009B81938382832115310509F0B0CFF093E5
:102D5000E605E093E5059ECFFD01DC01C0CF1382BF
:102D60001282D7CFB0E0A0E0E8EBF6E10C940815B2
:102D70008C01009751F4CB010E948D158C01C80184
:102D8000CDB7DEB7E0E10C942415FC01E60FF71F88
:102D90009C0122503109E217F30708F49DC0D901C4
:102DA000CD91DC911197C617D70798F0C530D105A2
:102DB00030F3CE0104978617970708F3C61BD70B8D
:102DC0002297C193D1936D937C93CF010E942916D2
:102DD000D6CF5B01AC1ABD0A4C018C0E9D1EA09192
:102DE000E505B091E605512C412CF12CE12C109712
:102DF00031F58091E3059091E4058815990509F076
:102E00005CC04616570608F058C0809100019091AA
:102E10000101009741F48DB79EB740910401509194
:102E20000501841B950BE817F90708F055C0F093CE
:102E3000E405E093E305F90171836083A0CF8D91F0
:102E40009C91119712966C90129713967C90139701
:102E5000A815B90559F56C0142E0C40ED11CCA147D
:102E6000DB0420F1AC014A195B09DA0112961597CF
:102E700080F06282738251834083D9016D937C9389
:102E8000E114F10471F0D7011396FC93EE931297BD
:102E900076CF22968C0F9D1FF90191838083F301D9
:102EA000EFCFF093E605E093E50569CF48165906A4
:102EB00008F42C017D01D3019ACFCB010E948D151E
:102EC0007C01009749F0AE01B8010E947C17C8014F
:102ED0000E942916870153CF10E000E050CFFB017C
:102EE000DC0104C08D910190801921F441505040C3
:102EF000C8F7881B990B0895FB01DC0102C0019003
:102F00000D9241505040D8F70895FB01DC018D919E
:102F1000019080190110D9F3990B0895FB01DC0190
:102F200001900D920020E1F70895FB01DC01415072
:102F3000504048F001900D920020C9F701C01D9249
:102F400041505040E0F7089510E0C4E9D0E004C0DB
:102F5000FE010E9487152196C539D107C9F7F8945B
:022F6000FFCFA1
:102F62000000E7058000FFFFFFFFFFFF0000FF00FA
:102F7200FF0000000000010000000001000001014C
:102F82000000000001000100010000010100010138
:102F92000100000000010100000100010001010127
:102FA2000001000001010100010100010101010114
:102FB20001010A0B0C0708090D0E0F00000000A703
:102FC20001070134010F02650143015701000000AE
:102FD20000C60599050D066F0592057F057005006F
:102FE2000000007A038D043F0C66060D0A0053753B
:102FF20062003035370044726100676F6E005772AD
:103002006974696E672049443A20004175746865A5
:103012006E7469636174652057726974653A200041
:103022004174656D7074696E672049443A20005797
:103032007269746520537563636573733A20004641
:1030420061696C757265005B5741524E5D20436F3A
:10305200756C64206E6F74207265616420626C6F9F
:10306200636B210A0057616974696E6720466F724B
:103072002043617264004361726420466F756E641E
:1030820021005772697474656E2049443A200057D2
:1030920072697465204661696C656400506C656193
:1030A20073652052656D6F76652043617264000A14
:0E30B2004576656E7420496E666F3A20000008
:00000001FF
