:100000000C9495000C94BD000C94BD000C94BD00A4
:100010000C94BD000C94BD000C94BD000C94BD006C
:100020000C94BD000C94BD000C94BD000C94BD005C
:100030000C94BD000C94BD000C94BD000C94BD004C
:100040000C945A0E0C94BD000C94280E0C94020EC5
:100050000C94BD000C94BD000C94BD000C94BD002C
:100060000C94A40E0C94BD005374617274696E6795
:10007000204475656C210000000000240027002A40
:100080000000000000250028002B005B424F4F5469
:100090005D20496E697469616C697A65205A6F6E7A
:1000A000652000496E697469616C697A6174696F71
:1000B0006E20436F6D706C6574650A002068616422
:1000C0002061206D616C66756E6374696F6E2100CE
:1000D0005B4552524F525D205A6F6E653A200000C8
:1000E0000000002300260029000404040404040482
:1000F00004020202020202030303030303010204D7
:100100000810204080010204081020010204081099
:1001100020000000080002010000030407000000A6
:10012000000000000000F10F161511241FBECFEFD4
:10013000D8E0DEBFCDBF27E0AAECB3E001C01D923E
:10014000A335B207E1F713E0A0E0B1E0E4E2F0E3A9
:1001500002C005900D92AA3CB107D9F710E0C4E99E
:10016000D0E004C02197FE010E94E815C339D107F1
:10017000C9F70E946C100C9405180C94000080E4E0
:1001800080937C0080917A00806480937A008091D3
:100190007A0086FDFCCF80917800909179000895D7
:1001A000E0911904F0911A04309729F010926F042D
:1001B0001092910409940895CF93DF93EC01E0919C
:1001C0001704F09118043097F1F090914104809158
:1001D00040049817C0F090E0292F30E02617370729
:1001E00054F4DE01A20FB31F4C91255E3B4FD901A1
:1001F0004C939F5FF1CF1092410460934004CB0178
:10020000DF91CF910994DF91CF910895AF92BF9282
:10021000CF92DF92EF92FF920F931F93CF93DF93D2
:100220006C017B018B01040F151FEB015E01AE1801
:10023000BF08C017D10759F06991D601ED91FC9123
:100240000190F081E02DC6010995892B79F7C50150
:10025000DF91CF911F910F91FF90EF90DF90CF90A2
:10026000BF90AF900895FC01538D448D252F30E051
:10027000842F90E0821B930B541710F0CF960895B3
:1002800001970895FC01918D828D981761F0A28DE0
:10029000AE0FBF2FB11D5D968C91928D9F5F9F73A6
:1002A000928F90E008958FEF9FEF0895FC01918D5C
:1002B000828D981731F0828DE80FF11D858D90E0C9
:1002C00008958FEF9FEF0895FC01918D228D892F66
:1002D00090E0805C9F4F821B91098F73992708954E
:1002E00082E994E00E94640121E0892B09F420E076
:1002F000822F089580E090E0892B29F00E94700100
:1003000081110C9400000895FC01A48DA80FB92F51
:10031000B11DA35ABF4F2C91848D90E001968F732D
:100320009927848FA689B7892C93A089B1898C914C
:10033000837080648C93938D848D981306C002889B
:10034000F389E02D80818F7D80830895EF92FF9265
:100350000F931F93CF93DF93EC0181E0888F9B8DE8
:100360008C8D98131AC0E889F989808185FF15C0A2
:100370009FB7F894EE89FF896083E889F9898081C5
:100380008370806480839FBF81E090E0DF91CF9194
:100390001F910F91FF90EF900895F62E0B8D10E0B6
:1003A0000F5F1F4F0F731127E02E8C8D8E110CC025
:1003B0000FB607FCFACFE889F989808185FFF5CF70
:1003C000CE010E948401F1CFEB8DEC0FFD2FF11DCA
:1003D000E35AFF4FF0829FB7F8940B8FEA89FB89AD
:1003E00080818062CFCF0F931F93CF93DF938C01D7
:1003F000D0E0C0E0F801EC0FFD1F6491662341F0EE
:1004000082E994E00E94A601892B11F02196F2CF97
:10041000CE01DF91CF911F910F910895682F82E94E
:1004200094E00C94A601CF93DF93EC01888D882390
:10043000B9F0AA89BB89E889F9898C9185FD03C047
:10044000808186FD0DC00FB607FCF7CF8C9185FF2C
:10045000F2CF808185FFEDCFCE010E948401E9CFEC
:10046000DF91CF910895833081F028F4813099F0A5
:100470008230A9F008958730A9F08830C9F084301F
:10048000B1F4809180008F7D03C0809180008F77D0
:1004900080938000089584B58F7784BD089584B5D6
:1004A0008F7DFBCF8091B0008F778093B00008954F
:1004B0008091B0008F7DF9CF1F93CF93DF93282FCA
:1004C00030E0F901EF5EFE4F8491F901E350FF4FF8
:1004D000D491F901E751FF4FC491CC23A9F0162F15
:1004E00081110E943302EC2FF0E0EE0FFF1FEF5757
:1004F000FF4FA591B4918FB7F894EC91111108C0FA
:10050000D095DE23DC938FBFDF91CF911F910895AB
:10051000DE2BF8CFCF93DF9390E0FC01E350FF4F49
:10052000249187519F4FFC0184918823D1F090E062
:10053000880F991FFC01E958FF4FA591B491FC0168
:10054000EF57FF4FC591D49161110EC09FB7F8943A
:100550008C91E22FE0958E238C932881E223E8830F
:100560009FBFDF91CF9108958FB7F894EC91E22B64
:10057000EC938FBFF6CF3FB7F8948091130490911E
:100580001404A0911504B091160426B5A89B05C0CB
:100590002F3F19F00196A11DB11D3FBFBA2FA92F02
:1005A000982F8827BC01CD01620F711D811D911DFF
:1005B00042E0660F771F881F991F4A95D1F708956B
:1005C0008F929F92AF92BF92CF92DF92EF92FF9263
:1005D0004B015C010E94BB026B017C010E94BB02CB
:1005E0006C197D098E099F09683E7340810591054C
:1005F000A8F321E0821A9108A108B10888EEC80E7C
:1006000083E0D81EE11CF11C81149104A104B10403
:1006100029F7FF90EF90DF90CF90BF90AF909F9021
:100620008F900895DC01ED91FC910284F385E02D1B
:1006300009950895DC01ED91FC910190F081E02D88
:10064000099508952091EB03260F3327331F21329C
:100650003105ECF420916804FC0190E080E0243046
:1006600069F082E00895A091EB032191AC0145531C
:100670005C4FA40FB52FB11D2C930196861798F3EC
:100680008091EB03680F6093EB0380E0089581E0B5
:1006900008951092680481E08093670410924204E8
:1006A00061E082E10E945C0261E083E10E945C0201
:1006B000E9EBF0E080818E7F808380818D7F808375
:1006C00088E48093B80085E48093BC00089510927C
:1006D00041041092400410926F04109291040E9401
:1006E000490380ED90E090933F0480933E048CEDAD
:1006F00090E090933D0480933C0408950C9467032C
:10070000CF93DF9391E09093CA038823B9F0C0910F
:10071000B800D091BA008091BC008A7B8093BC0065
:1007200060E082E10E945C0260E083E10E945C0282
:100730000E944903D093BA00C093B800DF91CF91D3
:1007400008958F929F92AF92BF92CF92DF92EF92D5
:10075000FF920F931F93CF93DF93D0919104D132E7
:1007600008F0D7C0182FC09190040E94BB026B0103
:100770007C018091680481116BC082E080936804E1
:10078000109367048FEF8093660410926504D093F2
:100790006404A0E7B4E0E4E4F4E080E0D81391C09E
:1007A0001092430480914304CC0FC82BC0934304A0
:1007B00080914204813009F088C0109242040E9466
:1007C000BB026B017C01809143048093BB0080914C
:1007D0006A0490916B04A0916C04B0916D04892B14
:1007E0008A2B8B2BA1F00E94BB0200916A0410910E
:1007F0006B0420916C0430916D046C197D098E0995
:100800009F09061717072807390708F442C0809187
:10081000BC0083FDD8CF85EC8093BC000E94BB0256
:100820006B017C0180916804823009F450C0809192
:1008300066048F3F09F46FC080916604803209F42A
:100840006CC080916604803309F469C084E026C0DE
:1008500080916A0490916B04A0916C04B0916D0436
:10086000892B8A2B8B2B09F484CF0E94BB028090AA
:100870006A0490906B04A0906C04B0906D046C19A5
:100880007D098E099F0986169706A806B90608F005
:1008900070CF809169040E94800385E010926F04FC
:1008A0001092910410926E04DF91CF911F910F91DD
:1008B000FF90EF90DF90CF90BF90AF909F908F9080
:1008C00008959D9191938F5F69CF85EEA5CF80911B
:1008D0006A0490916B04A0916C04B0916D04892B13
:1008E0008A2B8B2B09F49ECF0E94BB0200916A04D5
:1008F00010916B0420916C0430916D046C197D098A
:100900008E099F09061717072807390708F08ACFAD
:10091000C0CF81E0C3CF80E0C1CF82E0BFCF83E012
:10092000BDCF81E080936E0484E2809390041092A6
:100930006F041092910464E170E080E090E00E9406
:10094000E00281E00C94A103CF92DF92EF92FF923C
:100950000F931F93CF93DF93D82FC62F613208F0E8
:1009600098C00E94BB026B017C01809168048111D8
:100970006BC081E080936804809367049FEF90933D
:100980006604109265049C0F909364048093430462
:1009900080914304DD0FD82BD0934304809142040F
:1009A000813009F078C0109242040E94BB026B01B2
:1009B0007C01809143048093BB0080916A049091F4
:1009C0006B04A0916C04B0916D04892B8A2B8B2B46
:1009D000A1F00E94BB0200916A0410916B04209167
:1009E0006C0430916D046C197D098E099F090617FE
:1009F00017072807390708F448C08091BC0083FD19
:100A0000D8CF85EC8093BC000E94BB026B017C01B7
:100A100080916804813009F440C0809165048C178E
:100A200010F4C0916504E4E4F4E0ABE1B4E080E0EC
:100A30008C1355C08C2FDF91CF911F910F91FF9098
:100A4000EF90DF90CF90089580916A0490916B04AD
:100A5000A0916C04B0916D04892B8A2B8B2B09F427
:100A600084CF0E94BB0200916A0410916B04209114
:100A70006C0430916D046C197D098E099F0906176D
:100A800017072807390708F070CF809169040E9482
:100A90008003C0E0CFCF85EEB5CF80916A049091FE
:100AA0006B04A0916C04B0916D04892B8A2B8B2B65
:100AB00009F4AECF0E94BB0200916A0410916B044E
:100AC00020916C0430916D046C197D098E099F0989
:100AD000061717072807390708F09ACFD6CF919144
:100AE0009D938F5FA5CF0895E091410480914004CC
:100AF000E81730F4F0E0E55EFB4F808190E0089568
:100B00008FEF9FEF089590914104809140042FEF63
:100B10003FEF981748F4E92FF0E0E55EFB4F2081A6
:100B200030E09F5F90934104C90108958091400493
:100B300090914104891B990B0895CF92DF92EF9217
:100B4000FF920F931F93CF93DF937C01CB018A0118
:100B500020916E04222389F0EB016B01C40ED51E97
:100B6000CC15DD0569F06991D701ED91FC910190FB
:100B7000F081E02DC7010995F3CF642F0E94220375
:100B8000C801DF91CF911F910F91FF90EF90DF90FF
:100B9000CF900895CF93DF931F92CDB7DEB76983CF
:100BA00020916E042223F9F020919104203258F014
:100BB00021E030E0FC013383228390E080E00F905D
:100BC000DF91CF91089580916F04E82FF0E0E05914
:100BD000FB4F998190838F5F80936F048093910482
:100BE00081E090E0ECCF61E0CE0101960E9422030B
:100BF000F7CF9091910521E020936E04909390049B
:100C000010926F041092910461E070E001C0660FD1
:100C10008A95EAF780E895E00E94CA0581E00C9485
:100C2000A10390E080E008956115710579F0FB0162
:100C300001900020E9F73197AF01461B570BDC010B
:100C4000ED91FC910280F381E02D099490E080E029
:100C50000895BC0182E994E00C9414068F929F924F
:100C6000AF92BF920F931F93CF93DF93CDB7DEB7B1
:100C7000A1970FB6F894DEBF0FBECDBF19A24230C8
:100C800008F44AE08E010F5D1F4F842E912CB12C89
:100C9000A12CA50194010E94B215E62FB901CA0149
:100CA000EA30E4F4E05DD801EE938D01232B242B90
:100CB000252B79F7BD0182E994E00E941406A196E4
:100CC0000FB6F894DEBF0FBECDBFDF91CF911F915D
:100CD0000F91BF90AF909F908F900895E95CE3CF04
:100CE000AF92BF92CF92DF92EF92FF920F931F933A
:100CF000CF93DF938C01D62EC72EE42E5901D0E07E
:100D0000C0E082E0F82EF40E6F2D80E28F1508F41B
:100D100060E284E20E94A4041092410480934004A3
:100D2000811110C061E070E080E090E00E94E0027C
:100D30002196A114B10441F3AC16BD0628F78FEF3C
:100D40009FEF10C0F801828193810E94120380FFFF
:100D5000E9CFF801828193810E941203882369F010
:100D60008DEF9FEFDF91CF911F910F91FF90EF904B
:100D7000DF90CF90BF90AF900895F801828193816A
:100D80000E9412038111ECCFF801828193810E94AD
:100D900012038F3F29F7F801828193810E94120389
:100DA000C82FF801828193810E9412038C0FC1F633
:100DB000F801D481FF24F394FD0E828193810E9477
:100DC0001203853D69F6F801828193810E94120326
:100DD000F812C6CFC2508CEF9FEFEC1618F28BE8DA
:100DE00091E00E94290680E20E940E026F2D70E0C1
:100DF00090E080E040E10E942E06DA52BD2CED2CFE
:100E0000FC2C8E2D8B198C17B0F4F8018281938104
:100E10000E941203F70181937F01D80F80E20E94A4
:100E20000E02F7013197608170E090E080E040E1D0
:100E30000E942E06E6CF8AE00E940E02F80182810F
:100E400093810E9412038D0F29F083E991E00E94A3
:100E5000290686CFF801828193810E9412038C2F8C
:100E600090E080CFCF92DF92EF92FF920F931F938B
:100E7000CF93DF93EC018AE48F8781E0888B198A16
:100E80006E012FE4C20ED11CD6018D919C917E0182
:100E9000BFE0EB0EF11CDC01ED91FC910480F581CB
:100EA000E02D00E030E020E043E0B701099581113A
:100EB00049C0F60180819181DC01ED91FC910680B1
:100EC000F781E02D28EE33E040E4B701099597FD66
:100ED00039C08F858130B1F509891A89102701271A
:100EE000102787EA91E00E94290680E20E940E0204
:100EF000B80190E080E040E10E942E0680EB91E096
:100F00000E94290680E20E940E026B8970E090E048
:100F100080E040E10E942E0689EB91E00E942906C4
:100F20008C89FE01E75AFF4F808380E09C898917F6
:100F300098F4FE01E80FF11D9589EE5AFF4F90835A
:100F40008F5FF4CF80E0DF91CF911F910F91FF90E1
:100F5000EF90DF90CF90089581E0F5CF42E050E030
:100F600068EB71E082E994E00C940601CF93DF9383
:100F7000BC0182E994E00E941406EC010E94AE07D5
:100F80008C0F9D1FDF91CF910895CF93DF930E9427
:100F9000F301EC010E94AE078C0F9D1FDF91CF91F2
:100FA00008958BEB91E00E94B60780914707882354
:100FB00079F0609145077091460780E895E00E94BE
:100FC00014068AEC91E090934607809345070895B4
:100FD000809143078530B1F028F46BED71E08430E7
:100FE00099F008958630A9F0873059F46FEC71E0DC
:100FF00080E895E00E94140681E0809348071092F3
:101000004307089563ED71E080E895E00E941406BF
:10101000F6CF67ED71E080E895E00E94140681E06C
:101020008093470788E690E00E94C507E8CFCF93FA
:10103000DF93FC01448155816081718182E994E0F4
:101040000E940601EC010E94AE078C0F9D1FDF91EC
:10105000CF910895CF93DF93682F70E090E080E008
:101060004AE00E942E06EC010E94AE078C0F9D1FE5
:10107000DF91CF910895CF92DF92EF92FF920F937D
:101080001F93CF93DF93EC01142F6C0128E0C20E65
:10109000D11C86E0F701D60101900D928A95E1F707
:1010A00050E0CE010E94DD171F8380E48F8781E02E
:1010B000888B80E6898B0A8BDE01539686E0F601E9
:1010C00001900D928A95E1F79C2FEC2FFD2F8E2F2A
:1010D000891B811718F48191808FF9CF6E01BFE4CD
:1010E000CB0ED11CF601808191817E01FFE0EF0ED5
:1010F000F11C4AE0410FDC01ED91FC910480F58187
:10110000E02D00E030E020E0B7010995811115C025
:10111000F60180819181DC01ED91FC910680F781DF
:10112000E02D28EE33E040E4B70109958F85882350
:1011300071F08FED91E00E94290680E0DF91CF9160
:101140001F910F91FF90EF90DF90CF90089581E075
:10115000F5CFCF92DF92EF92FF920F931F93CF9331
:10116000DF9300D000D000D01F92CDB7DEB76C0166
:1011700088EF91E00E942906C6010E94170886E0C8
:10118000E6E0F1E0DE01119601900D928A95E1F71B
:101190000091230610E030E020E0CE0101967C01B2
:1011A00040912B0664E276E082ED95E00E943B08D8
:1011B000182F85E092E00E942906812F0E942A08BC
:1011C00080E0113009F069C0D60114964D915C9110
:1011D0001F8190E080E08417950730F4D601ED91EF
:1011E000FC91309709F068C010923B04EBE3F4E007
:1011F0002081120F01968930910569F71F838AE1DA
:1012000092E00E942906812F0E942A0880912306DD
:1012100090E49093E10591E09093E20590EA909339
:10122000E3058093E40580E1FE013796A5EEB5E085
:1012300001900D928A95E1F7809121069091220606
:10124000DC01ED91FC910480F581E02D00E030E0BF
:1012500020E044E161EE75E00995811114C08091B0
:10126000210690912206DC01ED91FC910680F78128
:10127000E02D28EE33E040E461EE75E0099511E0E1
:10128000181619060CF010E089E292E00E94290677
:10129000812F0E942A08812F817027960FB6F8941B
:1012A000DEBF0FBECDBFDF91CF911F910F91FF9099
:1012B000EF90DF90CF900895E80FF91F99CFEF924C
:1012C000FF920F931F93CF93DF93CDB7DEB72D9788
:1012D0000FB6F894DEBF0FBECDBFFC0104811581AF
:1012E0009E012F5F3F4F79010115110511F51982FC
:1012F000F0924607E092450760E0809144070E9423
:101300005C026AE070E080E090E00E94E00261E050
:10131000809144070E945C022D960FB6F894DEBFC0
:101320000FBECDBFDF91CF911F910F91FF90EF9036
:1013300008950C30110510F00CE010E0FC01608104
:101340007181A801C7010E94F617F701E00FF11F94
:101350001082CECFCF93DF93EC01A881B981EB014E
:10136000E881F9811097F1F03097B1F4EC018C81AC
:101370009D81892BC9F08C9190E00BC0DB01149604
:101380008D919C91892B81F0808190E09195819540
:101390009109DF91CF910895BF01CD01DF91CF91E8
:1013A0000C94E617309751F790E080E0F2CFFC0103
:1013B00080819181009711F00C948A1608950F9303
:1013C0001F93CF93DF93EC0188819981009759F0A7
:1013D0002A813B812617370730F081E0DF91CF91DA
:1013E0001F910F9108958B016F5F7F4F0E9413171C
:1013F000009759F0998388831B830A832C813D8150
:10140000232B59F7FC011082E8CF80E0E7CFEF9261
:10141000FF920F931F93CF93DF936115710541F4F2
:1014200080E0DF91CF911F910F91FF90EF90089591
:1014300041155105B1F07B01EC010C811D81040FB8
:10144000151FB8010E94DF09882351F328813981D3
:101450008C819D81B701820F931F0E94EF171D831E
:101460000C8381E0DECFEF92FF920F931F93CF9317
:10147000DF93CDB7DEB728970FB6F894DEBF0FBE67
:10148000CDBF7C01CB014AE08E010F5F1F4FB80139
:101490000E943215F80101900020E9F73197AF0161
:1014A000401B510BB801C7010E94070A28960FB6CE
:1014B000F894DEBF0FBECDBFDF91CF911F910F918A
:1014C000FF90EF900895EF92FF920F931F93CF93A9
:1014D000DF93EC017B018A01BA010E94DF092881B8
:1014E0003981811114C02115310519F0C9010E94FB
:1014F0008A16198218821D821C821B821A82CE01D2
:10150000DF91CF911F910F91FF90EF9008951D8370
:101510000C83B701C9010E94EF17F1CF50E040E002
:101520006AEB71E00C94630ACF93DF9300D0CDB7E0
:10153000DEB789E392E00E94B607809148078823CE
:1015400099F189E497E00E948E0A9091400480917D
:101550004104981781F080E895E00E948305898313
:101560001A8241E050E0BE016F5F7F4F89E497E04F
:101570000E94070AEACF88E492E00E94290640917F
:101580004D0750914E076091490770914A0782E9D3
:1015900094E00E94060186E592E00E94B6070F9053
:1015A0000F90DF91CF910895909140048091410474
:1015B000981739F080E895E00E94830580934307EF
:1015C000F3CF80914307843051F71092470788E5A5
:1015D00092E0E3CFCF93DF93EC01FB0186179707EF
:1015E00049F0608171816115710541F04481558137
:1015F0000E94630ACE01DF91CF910895888199817D
:10160000009711F00E948A16198218821D821C828E
:101610001B821A82EFCFFC01118210821382128288
:10162000158214820C94EA0A0F931F93CF93DF93D1
:10163000EC018A018D589F4F0E94EA0AC758DF4F7C
:1016400019830883DF91CF911F910F9108950F9314
:101650001F93CF93DF93EC018A0185599F4F0E941E
:10166000EA0ACF58DF4F19830883DF91CF911F918A
:101670000F910895FC01118210821382128215824B
:101680001482FB0101900020E9F73197AF01461B5E
:10169000570B0C94630A8F929F92AF92BF92CF9296
:1016A000DF92EF92FF920F931F93CF93DF93CDB70B
:1016B000DEB76C970FB6F894DEBF0FBECDBF5C01EE
:1016C0006B0186E0E6E0F1E0DE01519601900D92BB
:1016D0008A95E1F74B0121E5820E911CD4010C9112
:1016E00010E030E020E0FB01E75AFF4F6E5A7F4FD9
:1016F000CE0141967C014081C6010E943B086CE608
:1017000072E0882309F488C0D4011C9188E792E034
:101710000E94290680E20E940E02612F70E090E094
:1017200080E04AE00E942E0680E4F601878781E08F
:10173000808B80E3818B128B7601FFE4EF0EF11C2E
:10174000D7018D919C914601BFE08B0E911CDC016D
:10175000ED91FC910480F581E02D00E030E020E087
:1017600044E0B4010995811151C0F7018081918154
:10177000DC01ED91FC910680F781E02D28EE33E04D
:1017800040E4B4010995F601878581113FC080E1ED
:101790007096DE01119601900D928A95E1F7BE01D7
:1017A0006F5F7F4FCE0147960E943A0B8F89988DCD
:1017B000D50111969C938E93898D9A8D13969C9347
:1017C0008E9312978B8D9C8D15969C938E93149768
:1017D000188E1F8A1A8E198E1C8E1B8ECE0147966C
:1017E0000E94D709C5016C960FB6F894DEBF0FBEF4
:1017F000CDBFDF91CF911F910F91FF90EF90DF90C0
:10180000CF90BF90AF909F908F9008958CE992E019
:101810000E9429066AEB72E0C5010E943A0BE2CFF2
:10182000EF92FF921F93CF93DF9300D000D000D0B0
:10183000CDB7DEB7DC0114962D913C911597232B83
:1018400009F46AC0ED91FC912081222309F464C05F
:101850007C0180E00E94F90582ED95E00E9432074C
:10186000182F811117C086EC92E00E94B60760ED38
:1018700077E080E090E00E94E002812F26960FB68C
:10188000F894DEBF0FBECDBFDF91CF911F91FF90C7
:10189000EF90089587ED92E00E94B60760ED77E043
:1018A00080E090E00E94E002B701CE0101960E9424
:1018B0000B0BCE0101960E94A908182FCE010196AC
:1018C0000E94D70983EE92E00E9429061123F9F0C5
:1018D00062ED75E0CE0101960E944B0BCE010196A0
:1018E0000E941708CE0101960E94D70982ED95E06B
:1018F0000E943207882309F28DEF92E00E94B6071A
:1019000060ED77E080E090E00E94E002EFCF80EFB2
:1019100092E00E94B607B1CF10E0AFCF5F926F9216
:101920007F928F929F92AF92BF92CF92DF92EF926F
:10193000FF920F931F93CF93DF93CDB7DEB72C9712
:101940000FB6F894DEBF0FBECDBF7C016B01842EB5
:10195000B22E532EFB018081F70184838281938113
:1019600021E020936E0424E22093900410926F04EF
:101970001092910460E00E941A0360E0F7018281F6
:1019800093810E941A036FEFF701828193810E9475
:101990001A03182D100F61E0610FF7018281938106
:1019A0000E941A03612F6095F701828193810E9442
:1019B0001A0364EDF701828193810E941A0380E18A
:1019C00093E00E9429068C0C9D2C911C14EDF701CC
:1019D000828193818C149D0419F5CB2CD52C560152
:1019E000A00EB11CF70182819381AC14BD0409F4EF
:1019F00049C04601F60160810E941A03882339F12B
:101A0000F60181916F01180F80E20E940E02F4012D
:101A1000608170E090E080E040E10E942E06E2CF1D
:101A20003601F60160810E941A03882381F0F601D5
:101A300081916F01180F80E20E940E02F301608114
:101A400070E090E080E040E10E942E06C0CF88E187
:101A500093E00E9429068DEF2C960FB6F894DEBF16
:101A60000FBECDBFDF91CF911F910F91FF90EF90EF
:101A7000DF90CF90BF90AF909F908F907F906F90AE
:101A80005F900895612F61950E941A0360E0F7014D
:101A9000828193810E941A0381E00E94A1038AE05F
:101AA0000E940E0286E0ECE0F1E0DE011796019064
:101AB0000D928A95E1F787E593E00E9429062FB7FA
:101AC000F89460910F04709110048091110490912A
:101AD00012042FBF4AE00E942E068AE00E940E02E6
:101AE0000BE010E067E084E20E94A404109241043D
:101AF0008093400481110FC061E070E080E090E0CD
:101B00000E94E0020150110969F78AE693E00E9401
:101B100029068EEFA1CFF701828193810E941203E3
:101B200080FFEACF89E893E00E9429062FB7F89456
:101B300060910F047091100480911104909112042F
:101B40002FBF4AE00E942E068AE00E940E028E01FC
:101B50000F5F1F4F5E01F7E0AF0EB11C6801F70188
:101B6000828193810E941203F80181938F01EA150B
:101B7000FB05A9F746E050E0BF01C6010E94D0175F
:101B8000892B31F085E993E00E9429068FEF64CF1D
:101B900080E062CF85ED8093BC0080916A049091D3
:101BA0006B04A0916C04B0916D040796A11DB11D4A
:101BB00023E0B695A795979587952A95D1F720911B
:101BC000BC0024FD03C010926804089540916A048B
:101BD00050916B0460916C0470916D04452B462B01
:101BE000472B69F30097A105B10541F025E32A953C
:101BF000F1F700000197A109B109E1CF80916904D3
:101C00000C9480031F920F920FB60F9211242F9302
:101C10003F934F935F936F937F938F939F93AF9374
:101C2000BF93EF93FF9382E994E00E948401FF91B8
:101C3000EF91BF91AF919F918F917F916F915F9144
:101C40004F913F912F910F900FBE0F901F901895BD
:101C50001F920F920FB60F9211242F938F939F9381
:101C6000EF93FF93E091A204F091A3048081E091AF
:101C7000A804F091A90482FD1BC090818091AB045F
:101C80008F5F8F732091AC04821741F0E091AB0419
:101C9000F0E0EE56FB4F958F8093AB04FF91EF91F0
:101CA0009F918F912F910F900FBE0F901F901895BD
:101CB0008081F4CF1F920F920FB60F9211242F93B1
:101CC0003F938F939F93AF93BF9380910F04909115
:101CD0001004A0911104B091120430910E0423E07D
:101CE000230F2D3758F50196A11DB11D20930E0429
:101CF00080930F0490931004A0931104B0931204E6
:101D00008091130490911404A0911504B0911604CD
:101D10000196A11DB11D8093130490931404A09308
:101D20001504B0931604BF91AF919F918F913F918D
:101D30002F910F900FBE0F901F90189526E8230F3C
:101D40000296A11DB11DD2CF1F920F920FB60F9216
:101D500011242F933F934F935F936F937F938F93B0
:101D60009F93AF93BF93EF93FF938091B900887FC8
:101D7000803609F44AC0F0F5883209F4A7C018F596
:101D8000803109F49BC0B8F4882309F4F9C0883085
:101D900009F494C0FF91EF91BF91AF919F918F9102
:101DA0007F916F915F914F913F912F910F900FBE57
:101DB0000F901F901895883109F488C0803251F730
:101DC0008093660414C0803409F49DC040F48033CD
:101DD000B9F38833F9F68093660485ECB0C080359A
:101DE00009F485C0883509F496C0883499F60E94B4
:101DF000CA0DD0CF883909F48CC038F5883729F05E
:101E000050F4883611F0803729F683E08093680417
:101E100010920D0457C0883809F47BC0803919F03E
:101E2000803809F0B7CF80910D04803208F071C07E
:101E3000E0910D0481E08E0F80930D048091BB0032
:101E4000F0E0E351FC4F80833DC0803B39F0E0F48B
:101E5000803A09F479C0883A09F09CCF84E08093F5
:101E600068041092EC031092EB03E0913E04F091B1
:101E70003F0409958091EB0381110FC081E08093AD
:101E8000EB031092CB0309C0803C09F4A6CF883C39
:101E900009F4A3CF883B09F07DCFE091EC0381E00A
:101EA0008E0F8093EC03F0E0E553FC4F808180932C
:101EB000BB009091EC038091EB0329C08091430417
:101EC0008093BB0085EC8093BC0064CF9091650447
:101ED00080916404981758F5E091650481E08E0FB5
:101EE00080936504F0E0EC5BFB4F8081E9CFE091EB
:101EF000650481E08E0F809365048091BB00F0E063
:101F0000EC5BFB4F8083909165048091640498178B
:101F1000C8F285E8D8CFE091650481E08E0F809308
:101F200065048091BB00F0E0EC5BFB4F8083809107
:101F3000670481115CCF81E08093420484EA80933E
:101F4000BC001092680426CF85EC8093BC001092F0
:101F5000680480910D04803230F4E0910D04F0E0CB
:101F6000E351FC4F108260910D0470E0E0913C045D
:101F7000F0913D048DEE93E0099510920D040ACF87
:101F80001092660434CF0F931F93CF93DF93EC012D
:101F9000FC01EF5AFF4F84E08083779610823196E0
:101FA0001082319610826AEB71E0CE0185599F4F05
:101FB0000E943A0BFE01EF58FF4F05E010E011833D
:101FC00000836AEB71E0CE018D589F4F0E943A0B5F
:101FD000C758DF4F19830883DF91CF911F910F916D
:101FE00008950F931F93CF93DF93E2E9F4E01382F8
:101FF000128288EE93E0A0E0B0E084839583A6830C
:10200000B7832FE531E03183208325EC30E035873D
:10201000248724EC30E03787268720EC30E0318BB2
:10202000208B21EC30E0338B228B22EC30E0358B9F
:10203000248B26EC30E0378B268B118E128E138E7C
:10204000148E00E815E0F8011382128284839583D0
:10205000A683B78381E791E091838083C3E4D7E0CF
:1020600088E089831C821D826AEB71E089E497E035
:102070000E943A0B61E089810E948A0261E08981B5
:102080000E945C0280E78093910580E4E2E1F1E048
:10209000A2E9B5E001900D928A95E1F782ED95E015
:1020A0000E94C30F8DE496E00E94C30F88EC96E077
:1020B0000E94C30FECE8F5E083E891E09183808310
:1020C000138302831482F0937F05E0937E05DF91F2
:1020D000CF911F910F910895CF93DF93CDB7DEB7C6
:1020E000C358D1090FB6F894DEBF0FBECDBF7894A8
:1020F00084B5826084BD84B5816084BD85B582600D
:1021000085BD85B5816085BD80916E0081608093BD
:102110006E00109281008091810082608093810026
:102120008091810081608093810080918000816036
:10213000809380008091B10084608093B100809191
:10214000B00081608093B00080917A0084608093B9
:102150007A0080917A00826080937A0080917A0080
:10216000816080937A0080917A00806880937A0001
:102170001092C100E091A204F091A30482E0808358
:10218000E0919E04F0919F041082E091A004F091F0
:10219000A10480E180831092AA04E091A604F0914A
:1021A000A70486E08083E091A404F091A5048081D7
:1021B00080618083E091A404F091A504808188600F
:1021C0008083E091A404F091A504808180688083DD
:1021D000E091A404F091A50480818F7D80830E940A
:1021E000670301E08091910500936E048093900451
:1021F00010926F041092910481E00E94A103182FA5
:1022000062E370E080E090E00E94E0021111EACF0A
:1022100061E082E00E948A0261E083E00E948A021B
:1022200061E084E00E948A0261E085E00E948A0207
:1022300060E08EE00E948A02B2E58B2EB1E09B2E18
:1022400015E5A12E11E0B12E08E5402E01E0502E3B
:102250008CE2E82E86E0F82ED12CC12C11E03C2C2B
:102260008C2D0E94F90580917E0590917F05DC01FF
:10227000ED91FC910190F081E02D099580917E0512
:1022800090917F05DC01ED91FC910280F381E02DBE
:102290000995B8E5B0933E0510923F0580917E0503
:1022A00090917F05DC01ED91FC910480F581E02D9A
:1022B00000E030E020E042E06EE375E0099588231D
:1022C00021F082EA93E00E942906B2E3B0933E0532
:1022D000E5E0E0933F05FFEFF093400510934105E3
:1022E0002AE02093420580917E0590917F05DC01D4
:1022F000ED91FC910480F581E02D00E030E020E0DC
:1023000045E06EE375E00995811110C080917E056E
:1023100090917F05DC01ED91FC910680F781E02D25
:1023200028EE33E040E46EE375E00995F401219076
:102330004F01D501ED915D01CE57DF4FE883C258C3
:10234000D040D2010D912D018BE890E00E94F30165
:10235000832D0E942A08D701AA55B10981E5EFE231
:10236000F5E001900D928A95E1F7F701D586C486D4
:10237000F4E00F9FC00111248E569A4FD701119699
:102380009C938E9312961C93129713961C93CE5780
:10239000DF4FE881C258D040B4E0EB9FC001112468
:1023A0008E569A4FD70115969C938E93149782E080
:1023B00016968C93169717961C93B4E02B9EC0012B
:1023C00011248E569A4FF7019187808723E0228748
:1023D00013873FEFC31AD30A8BE7E80EF11C93E093
:1023E000C916D10409F03BCF6AE070E080E090E0CC
:1023F0000E94E0020E94670386E18093BA0084E9AC
:102400009AE0909318048093170481ED97E09093DD
:102410001A048093190483EA90E00E94C507809112
:1024200048078823D1F069E477E0CE0101960E9445
:102430000B0BCE0101960E94100C182FCE010196B5
:102440000E94D709112349F089E497E00E948E0A7F
:1024500087E08093430710924807809147078823BD
:1024600009F45DC2F1E9CF2EF5E0DF2EA2EDEA2EF0
:10247000A5E0FA2E03E216E0CE57DF4F1882C258CD
:10248000D0404601ABE98A0E911C512C412CEAE068
:102490002E2E312CB12CA12CD401ED91FC91EA0D02
:1024A000FB1D608182E08A0D0E945C02BFEFAB1AC7
:1024B000BB0AE4E0AE16B10479F7D40112968C9110
:1024C000823009F40EC1833009F424C1813001F552
:1024D000EFE1F1E08491EBE0F1E0A490E7EFF0E0D0
:1024E000B490712C612CBB2099F081110E943302B1
:1024F000EB2DF0E0EE0FFF1FE152FF4FA591B491DD
:102500008C91A82291E080E009F490E0692E782E69
:10251000D40113968C9113978615170449F01396DE
:102520006C92F201E755FF4FEC0DFD1DB1E0B08359
:10253000EFEF4E1A5E0AF4E08F0E911C23E0421674
:10254000510409F0A7CF260134EB430E511C1601AC
:102550008CEA280E311C912C812CF401E755FF4F99
:10256000EC0DFD1D8081882399F16AEF70E080E019
:1025700090E00E94E002CE57DF4F8881C258D040E1
:102580000E94F905C7010E943207CD57DF4F8882AC
:10259000C358D040982D923009F0D5C0D801549638
:1025A0009C91992309F4F9C1923009F4FCC1B2015C
:1025B000CE0101960E940B0B45E050E0BE016F5F1B
:1025C0007F4FC7010E94140BCE0101960E94D709CC
:1025D000FFEF8F1A9F0A23E08216910409F0BDCF06
:1025E000560139EAA30EB11C912CD5018D915D01E4
:1025F000882309F46FC1FD01319710826AEB71E005
:10260000CE0184589F4F0E943A0B81E5F701DE010D
:10261000119601900D928A95E1F7F80181916396E8
:102620008FAF639787E0DE01AD5ABF4F01900D92E7
:102630008A95E1F7F80180856B968FAF6B9781855E
:102640009285A385B4856F968CAF9DAFAEAFBFAFBB
:102650006F9785859685A785B089A3968CAF9DAF2A
:10266000AEAFBFAFA39781899289A389B489A7969A
:102670008CAF9DAFAEAFBFAFA79785899689A9965E
:102680009FAF8EAFA9978789908DA18DAC968DAFA6
:102690009EAFAFAFAC97B101CE0184599F4F0E945E
:1026A0000B0BD80190968D919C91E4969FAF8EAFC5
:1026B000E497B201CE018C589F4F0E940B0BF8019A
:1026C00080A591A5EC969FAF8EAFEC97F2E09F129C
:1026D0008AC064E070E0059709F08EC062E070E0A7
:1026E0008BC06AE0762EB12CA12C0E94BF00A80EF0
:1026F000B91E7A947110F9CFC501B1010E949E15DF
:1027000062387105F4F067327240CCF081E0682ED7
:10271000712CFECE5AE0752EB12CA12C0E94BF0068
:10272000A80EB91E7A947110F9CFC501B1010E94AB
:102730009E15623871052CF0613273403CF782E0DF
:10274000E6CF80E0E4CFF801908924E0A22EB12CFE
:10275000992341F045E0A42EB12C923019F433E0D6
:10276000A32EB12CD8011C969C91992309F45AC12F
:10277000882369F0B5E0AB16B10409F01AC1CD5752
:10278000DF4FE881C358D040E23009F410CFB101E7
:10279000CE0101960E940B0B45E050E0BE016F5F39
:1027A0007F4FC7010E94270B0FCFF80126A137A149
:1027B0008217930749F4B201CE0184589F4F0E94BB
:1027C000AA09892B09F42AC1BE0164587F4FCE01A2
:1027D00001960E940B0BA501BE016F5F7F4FC701E1
:1027E0000E94270B17C1E4968EAD9FADE49761E080
:1027F00070E0059709F472CFCE0184589F4F0E9474
:10280000330ACE018C589F4F0E94D709CE018459BC
:102810009F4F0E94D709D80155966D917C91B2E0E7
:102820009B1609F489C0CE0184589F4F0E94330A39
:10283000F801468D578D628D738DCE0184589F4F60
:102840000E94070AD80190966D917C91CE01845820
:102850009F4F0E94330AC058DF4F88819981C0582A
:10286000D0400B9718F580ED90E00E94F301C0581E
:10287000DF4F88819981C058D040029738F0EE969A
:10288000EEADFFADEE97309709F06CC010923B04AF
:10289000EBE3F4E080810E940E028CEB90E00E945A
:1028A000C507CE0184589F4F0E948E0AC058DF4F43
:1028B00088819981C058D040892B39F0EE96EEADD1
:1028C000FFADEE97808181114FC0CE0184589F4F9C
:1028D0000E94D7099394B3E09B1287CEEBE7CE0E0C
:1028E000D11CFBE7EF0EF11CCE57DF4F2881C258F9
:1028F000D0402F5FCE57DF4F2883C258D0400558B5
:102900001F4F233009F0BDCD0E94670386E18093FD
:10291000BA0064E670E080E090E00E94E00280E0AF
:1029200090E0892B09F47BCD0E947001882309F483
:1029300076CD0E94000073CD6D5F7F4FCE0184582D
:102940009F4F0E94330AF80146A157A162A173A1CB
:10295000CE0184589F4F0E94070AD80198966D9126
:102960007C9174CF319696CFBE0164587F4FCE01D3
:1029700001960E940B0BCE0101960E945F09CE01C9
:1029800001960E94D7098BEB93E00E942906CE01A5
:1029900084589F4F0E94170898CF92E0A92EB12C1F
:1029A000811107C004CE882309F401CEAA24A39480
:1029B000B12CB701CE0184589F4F0E944B0BC058D9
:1029C000DF4F88819981C058D040CD57DF4FF881C3
:1029D000C358D040F23009F0E8CED8015E962D9170
:1029E0003C918217930741F4B101CE0184589F4F67
:1029F0000E94AA09892B91F0BE0164587F4FCE0135
:102A000001960E940B0BA501BE016F5F7F4FC701AE
:102A10000E94140BCE0101960E94D709CE01845862
:102A20009F4FD4CD882309F4B2CEC0CF8BE397E07B
:102A30000E94D70983E397E00E94D70980EC96E0D3
:102A40000E94D70988EB96E00E94D70985E496E0BA
:102A50000E94D7098DE396E00E94D70989E497E0A8
:102A60000C94D709BB274A3031F4992322F4BDE2F4
:102A7000909581959F4F0C943E15BB27FB015527E0
:102A8000AA27880F991FAA1FA41710F0A41B8395CB
:102A90005051B9F7A05DAA3308F0A95DA193009742
:102AA00079F7B111B1931192CB010C945715DC0158
:102AB000FC01672F71917723E1F7329704C07C9175
:102AC0006D9370836291AE17BF07C8F308952F927C
:102AD0003F924F925F926F927F928F929F92AF92AE
:102AE000BF92CF92DF92EF92FF920F931F93CF93FB
:102AF000DF93CDB7DEB7CA1BDB0B0FB6F894DEBF92
:102B00000FBECDBF09942A88398848885F846E84B7
:102B10007D848C849B84AA84B984C884DF80EE8001
:102B2000FD800C811B81AA81B981CE0FD11D0FB60A
:102B3000F894DEBF0FBECDBFED01089597FB072EC1
:102B400016F4009407D077FD09D00E94D41507FC35
:102B500005D03EF4909581959F4F089570956195AD
:102B60007F4F0895A1E21A2EAA1BBB1BFD010DC0C9
:102B7000AA1FBB1FEE1FFF1FA217B307E407F5072D
:102B800020F0A21BB30BE40BF50B661F771F881F09
:102B9000991F1A9469F760957095809590959B019F
:102BA000AC01BD01CF010895AA1BBB1B51E107C0B9
:102BB000AA1FBB1FA617B70710F0A61BB70B881FCD
:102BC000991F5A95A9F780959095BC01CD0108955C
:102BD000EE0FFF1F0590F491E02D09940F931F93C2
:102BE000CF93DF938230910510F482E090E0E09182
:102BF0005107F091520730E020E0B0E0A0E03097BC
:102C000099F42115310509F44AC0281B390B2430E9
:102C10003105D8F58A819B816115710589F1FB0128
:102C200093838283FE0111C040815181028113810F
:102C300048175907E0F04817590799F4109761F0C1
:102C400012960C93129713961C933296CF01DF9134
:102C5000CF911F910F910895009351071093520740
:102C6000F4CF2115310551F04217530738F0A9016F
:102C7000DB019A01BD01DF01F801C1CFEF01F9CFFE
:102C80009093520780935107CDCFFE01E20FF31FBF
:102C9000819391932250310939832883D7CF209192
:102CA0004F0730915007232B41F4209102013091BE
:102CB00003013093500720934F072091000130917A
:102CC00001012115310541F42DB73EB740910401B2
:102CD00050910501241B350BE0914F07F0915007EF
:102CE000E217F307A0F42E1B3F0B2817390778F0E3
:102CF000AC014E5F5F4F2417350748F04E0F5F1F42
:102D00005093500740934F07819391939FCFF0E0EA
:102D1000E0E09CCFCF93DF930097E9F0FC0132977E
:102D200013821282A0915107B0915207ED0130E059
:102D300020E01097A1F420813181820F931F209110
:102D40004F07309150072817390709F061C0F093F9
:102D50005007E0934F07DF91CF910895EA01CE1716
:102D6000DF07E8F54A815B819E0141155105B1F706
:102D7000E901FB83EA8349915991C40FD51FEC17F0
:102D8000FD0761F4808191810296840F951FE9010E
:102D900099838883828193819B838A83F0E0E0E03A
:102DA00012968D919C9113970097B9F52D913C91B6
:102DB0001197CD010296820F931F20914F073091FA
:102DC00050072817390739F6309751F510925207F6
:102DD00010925107B0935007A0934F07BCCFD383F5
:102DE000C28340815181840F951FC817D90761F4B0
:102DF0004E5F5F4F88819981480F591F51834083EF
:102E00008A819B81938382832115310509F0B0CF9C
:102E1000F0935207E09351079ECFFD01DC01C0CF34
:102E200013821282D7CFB0E0A0E0E9E1F7E10C9481
:102E300069158C01009751F4CB010E94EE158C01AD
:102E4000C801CDB7DEB7E0E10C948515FC01E60FB3
:102E5000F71F9C0122503109E217F30708F49DC0C7
:102E6000D901CD91DC911197C617D70798F0C530DD
:102E7000D10530F3CE0104978617970708F3C61BD8
:102E8000D70B2297C193D1936D937C93CF010E946E
:102E90008A16D6CF5B01AC1ABD0A4C018C0E9D1E62
:102EA000A0915107B0915207512C412CF12CE12CEB
:102EB000109731F580914F0790915007881599052B
:102EC00009F05CC04616570608F058C08091000112
:102ED00090910101009741F48DB79EB74091040194
:102EE00050910501841B950BE817F90708F055C0B0
:102EF000F0935007E0934F07F90171836083A0CFEF
:102F00008D919C91119712966C90129713967C90CC
:102F10001397A815B90559F56C0142E0C40ED11CF0
:102F2000CA14DB0420F1AC014A195B09DA011296DC
:102F3000159780F06282738251834083D9016D932B
:102F40007C93E114F10471F0D7011396FC93EE9396
:102F5000129776CF22968C0F9D1FF9019183808363
:102F6000F301EFCFF0935207E093510769CF481672
:102F7000590608F42C017D01D3019ACFCB010E94A0
:102F8000EE157C01009749F0AE01B8010E94DD17F3
:102F9000C8010E948A16870153CF10E000E050CF8D
:102FA000FB01DC0104C08D910190801921F4415096
:102FB0005040C8F7881B990B0895FB01DC0102C043
:102FC00001900D9241505040D8F70895FB01DC016B
:102FD0008D91019080190110D9F3990B0895FB018F
:102FE000DC0101900D920020E1F70895FB01DC0166
:102FF0004150504048F001900D920020C9F701C0A7
:103000001D9241505040E0F7089510E0C4E9D0E02F
:1030100004C0FE010E94E8152196C539D107C9F701
:04302000F894FFCF52
:10302400000053078000FFFFFFFFFFFF0000FF00C9
:10303400FF00000000000100000000010000010189
:103044000000000001000100010000010100010175
:103054000100000000010100000100010001010164
:103064000001000001010100010100010101010151
:1030740001010A0B0C0708090D0E0F00000000A641
:1030840001060133011302640142015601000000EC
:1030940000CA059D05110673059605830574050090
:1030A4000000007E0391048E0C7006726561643A20
:1030B400202000636865636B73756D206973206EEF
:1030C4006F74206F6B0A00415451413A20307800EC
:1030D40053414B3A203078000D0A0048616E646C0D
:1030E400652052657175657374004E6F6E6500538B
:1030F4007562003035370044726100676F6E0041BD
:10310400757468656E74696669636174696F6E204D
:103114006661696C65640A0057726974696E672038
:1031240049443A200041757468656E74696361743A
:10313400652057726974653A20004174656D707436
:10314400696E672049443A200057726974652053B8
:103154007563636573733A200048616E646C65201F
:103164005265636569766500496E636F6D696E6764
:103174002049443A20007E00546865204475656CFB
:103184002048617320456E6465642100417574684C
:10319400204661696C656400547279696E672074B5
:1031A4006F20726561642031362062797465732002
:1031B40066726F6D20626C6F636B20005B574152C7
:1031C4004E5D20436F756C64206E6F742072656170
:1031D4006420626C6F636B210A005265616420464F
:1031E40061696C65640057616974696E6720466F34
:1031F400722043617264004361726420466F756E8D
:103204006421005772697474656E2049443A200041
:103214005772697465204661696C656400506C6519
:103224006173652052656D6F766520436172640039
:1032340077726974653A20000A546F6F206D616E6D
:1032440079206461746120746F2073656E642C202E
:1032540049324320646F65736E27742073757070F0
:103264006F727420737563682061206269672070CF
:1032740061636B65740A007761697420666F7220FC
:1032840061636B206174203A200054696D65206F7E
:103294007574207768656E2077616974696E67203C
:1032A400666F722041434B0A007265616479206144
:1032B40074203A2000496E76616C69642041434B66
:1032C4000A005772697465206661696C65642077C9
:1032D400697468206E6F2041434B000A4576656E21
:0A32E4007420496E666F3A20000066
:107E0000112484B714BE81FFF0D085E080938100F7
:107E100082E08093C00088E18093C10086E0809377
:107E2000C20080E18093C4008EE0C9D0259A86E02C
:107E300020E33CEF91E0309385002093840096BBD3
:107E4000B09BFECF1D9AA8958150A9F7CC24DD24C4
:107E500088248394B5E0AB2EA1E19A2EF3E0BF2EE7
:107E6000A2D0813461F49FD0082FAFD0023811F036
:107E7000013811F484E001C083E08DD089C08234E0
:107E800011F484E103C0853419F485E0A6D080C0E4
:107E9000853579F488D0E82EFF2485D0082F10E0AE
:107EA000102F00270E291F29000F111F8ED06801E7
:107EB0006FC0863521F484E090D080E0DECF843638
:107EC00009F040C070D06FD0082F6DD080E0C81688
:107ED00080E7D80618F4F601B7BEE895C0E0D1E017
:107EE00062D089930C17E1F7F0E0CF16F0E7DF06D8
:107EF00018F0F601B7BEE89568D007B600FCFDCFD4
:107F0000A601A0E0B1E02C9130E011968C91119780
:107F100090E0982F8827822B932B1296FA010C0160
:107F200087BEE89511244E5F5F4FF1E0A038BF0790
:107F300051F7F601A7BEE89507B600FCFDCF97BE46
:107F4000E89526C08437B1F42ED02DD0F82E2BD052
:107F50003CD0F601EF2C8F010F5F1F4F84911BD097
:107F6000EA94F801C1F70894C11CD11CFA94CF0C13
:107F7000D11C0EC0853739F428D08EE10CD085E9AC
:107F80000AD08FE07ACF813511F488E018D01DD067
:107F900080E101D065CF982F8091C00085FFFCCF94
:107FA0009093C60008958091C00087FFFCCF809118
:107FB000C00084FD01C0A8958091C6000895E0E648
:107FC000F0E098E1908380830895EDDF803219F02E
:107FD00088E0F5DFFFCF84E1DECF1F93182FE3DFCA
:107FE0001150E9F7F2DF1F91089580E0E8DFEE27F6
:047FF000FF270994CA
:027FFE00040479
:0400000300007E007B
:00000001FF