:100000000C949E000C94C6000C94C6000C94C60080
:100010000C94C6000C94C6000C94C6000C94C60048
:100020000C94C6000C94C6000C94C6000C94C60038
:100030000C94C6000C94C6000C94C6000C94C60028
:100040000C942A100C94C6000C94F80F0C94D20F48
:100050000C94C6000C94C6000C94C6000C94C60008
:100060000C9474100C94C6005374617274696E67BA
:10007000204475656C2100206861642061206D61F9
:100080006C66756E6374696F6E21005B4552524FEA
:10009000525D205A6F6E653A200000000000240077
:1000A00027002A0000000000250028002B0004047F
:1000B0000404040404040202020202020303030310
:1000C00003030102040810204080010204081020EC
:1000D00001020408102000000008000201000003D3
:1000E000040700000000000000005B424F4F545D19
:1000F00020496E697469616C697A65205A6F6E6512
:100100002000496E697469616C697A6174696F6E07
:1001100020436F6D706C6574650A005B4552524FE9
:10012000525D20496E76616C6964204576656E7417
:1001300020547970652100001A129E1511241FBEEB
:10014000CFEFD8E0DEBFCDBF25E0AAE4B2E001C02A
:100150001D92A23FB207E1F712E0A0E0B1E0E6ECA9
:10016000F5E302C005900D92AA34B107D9F710E06B
:10017000CDE9D0E004C02197FE010E94C218CC391D
:10018000D107C9F70E94CD120C94D61A0C94000026
:10019000E2E1F3E0A089B18982E08C93A485B58582
:1001A0001C92A685B78580E18C93108EA489B589B1
:1001B00086E08C93A289B3898C9180618C93A2890B
:1001C000B3898C9188608C93A289B3898C91806863
:1001D0008C930288F389E02D80818F7D8083089540
:1001E000E0919A02F0919B02309729F010920F0350
:1001F00010920E0309940895CF93DF93EC01E091E0
:100200009802F09199023097F1F09091110380914A
:1002100010039817C0F090E0292F30E02617370719
:1002200054F4DE01A20FB31F4C9124563D4FD90167
:100230004C939F5FF1CF1092110360931003CB0199
:10024000DF91CF910994DF91CF9108958F929F9282
:10025000AF92BF92CF92DF92EF92FF920F93CF9324
:10026000DF93EC017B014A018AE48F8781E0888B70
:10027000198A5E012FE4A20EB11CD5018D919C91CB
:100280006E01BFE0CB0ED11CDC01ED91FC9104802E
:10029000F581E02D00E030E020E043E0B601099573
:1002A000811126C0F50180819181DC01ED91FC91E5
:1002B0000680F781E02D28EE33E040E4B601099591
:1002C00097FD16C08F85813099F48C89F401808365
:1002D00080E09C898917C8F4282F30E0FE01E20FE6
:1002E000F31F95892E0D3F1DD9019C938F5FF1CF90
:1002F00080E0DF91CF910F91FF90EF90DF90CF9052
:10030000BF90AF909F908F90089581E0F2CF80E0F2
:1003100008950895AF92BF92CF92DF92EF92FF922D
:100320000F931F93CF93DF936C017B018B01040F1D
:10033000151FEB015E01AE18BF08C017D10759F0B9
:100340006991D601ED91FC910190F081E02DC601FB
:100350000995892B79F7C501DF91CF911F910F91F5
:10036000FF90EF90DF90CF90BF90AF9008950895E9
:10037000FC01538D448D252F30E0842F90E0821BAB
:10038000930B541710F0CF96089501970895FC0130
:10039000918D828D981761F0A28DAE0FBF2FB11D88
:1003A0005D968C91928D9F5F9F73928F90E00895E0
:1003B0008FEF9FEF0895FC01918D828D981731F09A
:1003C000828DE80FF11D858D90E008958FEF9FEFEE
:1003D0000895FC01918D228D892F90E0805C9F4FC4
:1003E000821B91098F739927089582E193E00E94FF
:1003F000E90121E0892B09F420E0822F089580E0B3
:1004000090E0892B29F00E94F50181110C940000E5
:100410000895FC01A48DA80FB92FB11DA35ABF4F99
:100420002C91848D90E001968F739927848FA689F3
:10043000B7892C93A089B1898C91837080648C9347
:10044000938D848D981306C00288F389E02D8081F6
:100450008F7D80830895EF92FF920F931F93CF9328
:10046000DF93EC0181E0888F9B8D8C8D98131AC0EF
:10047000E889F989808185FF15C09FB7F894EE89D6
:10048000FF896083E889F989808183708064808333
:100490009FBF81E090E0DF91CF911F910F91FF907E
:1004A000EF900895F62E0B8D10E00F5F1F4F0F7326
:1004B0001127E02E8C8D8E110CC00FB607FCFACFE1
:1004C000E889F989808185FFF5CFCE010E94090274
:1004D000F1CFEB8DEC0FFD2FF11DE35AFF4FF082B2
:1004E0009FB7F8940B8FEA89FB8980818062CFCF18
:1004F000682F82E193E00C942B020F931F93CF930C
:10050000DF938C01D0E0C0E0F801EC0FFD1F649197
:10051000662341F082E193E00E942B02892B11F0C7
:100520002196F2CFCE01DF91CF911F910F910895C7
:10053000CF93DF93EC01888D8823B9F0AA89BB891A
:10054000E889F9898C9185FD03C0808186FD0DC005
:100550000FB607FCF7CF8C9185FFF2CF808185FF26
:10056000EDCFCE010E940902E9CFDF91CF9108952E
:1005700090E0FC01EA52FF4F2491FC01EE53FF4F43
:100580003491FC01E255FF4FE491EE23C9F02223A0
:1005900039F0233001F1A8F4213019F1223029F18A
:1005A000F0E0EE0FFF1FEC55FF4FA591B4918FB710
:1005B000F894EC91611126C030953E233C938FBF97
:1005C00008952730A9F02830C9F0243049F78091E8
:1005D00080008F7D03C0809180008F7780938000A2
:1005E000DFCF84B58F7784BDDBCF84B58F7DFBCF24
:1005F0008091B0008F778093B000D2CF8091B0000F
:100600008F7DF9CF3E2BDACFCF93DF9390E0FC01C3
:10061000EE53FF4F249182559F4FFC018491882314
:10062000D1F090E0880F991FFC01E656FF4FA5918D
:10063000B491FC01EC55FF4FC591D49161110EC0EE
:100640009FB7F8948C91E22FE0958E238C932881AC
:10065000E223E8839FBFDF91CF9108958FB7F8948D
:10066000EC91E22BEC938FBFF6CF3FB7F8948091DB
:10067000940290919502A0919602B091970226B5AE
:10068000A89B05C02F3F19F00196A11DB11D3FBFCA
:10069000BA2FA92F982F8827BC01CD01620F711D99
:1006A000811D911D42E0660F771F881F991F4A9593
:1006B000D1F708958F929F92AF92BF92CF92DF921F
:1006C000EF92FF924B015C010E9435036B017C01AC
:1006D0000E9435036C197D098E099F09683E73409D
:1006E00081059105A8F321E0821A9108A108B108BB
:1006F00088EEC80E83E0D81EE11CF11C8114910421
:10070000A104B10429F7FF90EF90DF90CF90BF9044
:10071000AF909F908F9008952FB7F89460919002BA
:100720007091910280919202909193022FBF08954F
:10073000DC01ED91FC910284F385E02D099508958B
:10074000DC01ED91FC910190F081E02D0995089577
:1007500020916C02260F3327331F21323105ECF430
:100760002091E202FC0190E080E0243069F082E018
:100770000895A0916C022191AC01445B5D4FA40FE0
:10078000B52FB11D2C930196861798F380916C02BA
:10079000680F60936C0280E0089581E008951092E4
:1007A000E20281E08093E1021092BC0261E082E10A
:1007B0000E94B80261E083E10E94B802E9EBF0E038
:1007C00080818E7F808380818D7F808388E4809389
:1007D000B80085E48093BC00089510921103109234
:1007E000100310920F0310920E030E94CF0380EFAC
:1007F00090E090930D0380930C038CEF90E0909326
:100800000B0380930A0308950C94ED03CF93DF93B9
:1008100091E090934B028823B9F0C091B800D09139
:10082000BA008091BC008A7B8093BC0060E082E1CA
:100830000E94B80260E083E10E94B8020E94CF03E8
:10084000D093BA00C093B800DF91CF9108958F92F2
:100850009F92AF92BF92CF92DF92EF92FF920F934F
:100860001F93CF93DF93D0910E03D13208F0D7C0FE
:10087000182FC09109030E9435036B017C01809100
:10088000E20281116BC082E08093E2021093E102E8
:100890008FEF8093E0021092DF02D093DE02A9EE88
:1008A000B2E0EEEBF2E080E0D81391C01092BD020E
:1008B0008091BD02CC0FC82BC093BD028091BC02B9
:1008C000813009F088C01092BC020E9435036B0190
:1008D0007C018091BD028093BB008091E4029091E5
:1008E000E502A091E602B091E702892B8A2B8B2BBF
:1008F000A1F00E9435030091E4021091E5022091DD
:10090000E6023091E7026C197D098E099F090617EE
:1009100017072807390708F442C08091BC0083FDFF
:10092000D8CF85EC8093BC000E9435036B017C011D
:100930008091E202823009F450C08091E0028F3F42
:1009400009F46FC08091E002803209F46CC080919C
:10095000E002803309F469C084E026C08091E4029B
:100960009091E502A091E602B091E702892B8A2BD3
:100970008B2B09F484CF0E9435038090E402909081
:10098000E502A090E602B090E7026C197D098E099D
:100990009F0986169706A806B90608F070CF8091C1
:1009A000E3020E94060485E010920F0310920E03EA
:1009B0001092E802DF91CF911F910F91FF90EF907D
:1009C000DF90CF90BF90AF909F908F9008959D91B2
:1009D00091938F5F69CF85EEA5CF8091E4029091CE
:1009E000E502A091E602B091E702892B8A2B8B2BBE
:1009F00009F49ECF0E9435030091E4021091E502B4
:100A00002091E6023091E7026C197D098E099F0959
:100A1000061717072807390708F08ACFC0CF81E0EB
:100A2000C3CF80E0C1CF82E0BFCF83E0BDCF81E004
:100A30008093E80284E28093090310920F031092DE
:100A40000E0364E170E080E090E00E945A0381E0D0
:100A50000C942704CF92DF92EF92FF920F931F9393
:100A6000CF93DF93D82FC62F613208F098C00E9431
:100A700035036B017C018091E20281116BC081E042
:100A80008093E2028093E1029FEF9093E002109244
:100A9000DF029C0F9093DE028093BD028091BD0225
:100AA000DD0FD82BD093BD028091BC02813009F0BC
:100AB00078C01092BC020E9435036B017C018091CA
:100AC000BD028093BB008091E4029091E502A09169
:100AD000E602B091E702892B8A2B8B2BA1F00E94B2
:100AE00035030091E4021091E5022091E602309175
:100AF000E7026C197D098E099F0906171707280759
:100B0000390708F448C08091BC0083FDD8CF85EC3C
:100B10008093BC000E9435036B017C018091E2024E
:100B2000813009F440C08091DF028C1710F4C0912D
:100B3000DF02EEEBF2E0ACE9B2E080E08C1355C0EE
:100B40008C2FDF91CF911F910F91FF90EF90DF904D
:100B5000CF9008958091E4029091E502A091E60281
:100B6000B091E702892B8A2B8B2B09F484CF0E944A
:100B700035030091E4021091E5022091E6023091E4
:100B8000E7026C197D098E099F09061717072807C8
:100B9000390708F070CF8091E3020E940604C0E09C
:100BA000CFCF85EEB5CF8091E4029091E502A09180
:100BB000E602B091E702892B8A2B8B2B09F4AECF8A
:100BC0000E9435030091E4021091E5022091E602B3
:100BD0003091E7026C197D098E099F0906171707E6
:100BE0002807390708F09ACFD6CF91919D938F5F50
:100BF000A5CFE091110380911003E81730F4F0E0E5
:100C0000E456FD4F808190E008958FEF9FEF0895A7
:100C100090911103809110032FEF3FEF981748F444
:100C2000E92FF0E0E456FD4F208130E09F5F909384
:100C30001103C90108958091100390911103891B3C
:100C4000990B0895CF92DF92EF92FF920F931F932B
:100C5000CF93DF937C01CB018A012091E80222230C
:100C600089F0EB016B01C40ED51ECC15DD0569F0D2
:100C70006991D701ED91FC910190F081E02DC701C0
:100C80000995F3CF642F0E94A803C801DF91CF918B
:100C90001F910F91FF90EF90DF90CF900895CF9329
:100CA000DF931F92CDB7DEB769832091E80222233C
:100CB000F9F020910E03203258F021E030E0FC01E1
:100CC0003383228390E080E00F90DF91CF910895ED
:100CD00080910F03E82FF0E0E751FD4F9981908359
:100CE0008F5F80930F0380930E0381E090E0ECCF41
:100CF00061E0CE0101960E94A803F7CF90E080E06A
:100D00000895865A9F4FFC01808191E09093E802FC
:100D10008093090310920F0310920E0381E090E07C
:100D20009C0102C0220F331F6A95E2F7B90186E4E5
:100D300094E00E944F0681E00C942704AF92BF928A
:100D4000CF92DF92EF92FF920F931F93CF93DF9397
:100D50008C01D62EC72EF42E5901D0E0C0E082E0DF
:100D6000E82EE40E6E2D80E28E1508F460E284E237
:100D70000E942A051092110380931003811110C064
:100D800061E070E080E090E00E945A032196A11497
:100D9000B10441F3AC16BD0628F78FEF9FEF10C0EA
:100DA000F801828193810E94980380FFE9CFF801C6
:100DB000828193810E949803882369F08DEF9FEFD1
:100DC000DF91CF911F910F91FF90EF90DF90CF9027
:100DD000BF90AF900895F801828193810E9498039B
:100DE0008111ECCFF801828193810E9498038F3F9B
:100DF00029F7F801828193810E949803C82FF80196
:100E0000828193810E9498038C0FC1F6F801D481EE
:100E1000EE24E394ED0E828193810E949803853D38
:100E200069F6F801828193810E949803E812C6CF87
:100E3000C2508CEF9FEFFC1618F2DA52BD2CED2C4D
:100E4000FC2CF801828193812E2D2B192C1738F45C
:100E50000E949803F70181937F01D80FF2CF0E947F
:100E600098038D0F09F0AACFF801828193810E9427
:100E700098038C2F90E0A4CFFB0101900020E9F7AC
:100E80003197AF01461B570BDC01ED91FC910280BD
:100E9000F381E02D0994CF93DF930E947D02EC0152
:100EA00062E471E082E193E00E943C078C0F9D1F99
:100EB000DF91CF9108956115710511F00C943C07F5
:100EC00090E080E00895CF93DF93BC0182E193E04E
:100ED0000E945B07EC0162E471E082E193E00E9412
:100EE0003C078C0F9D1FDF91CF910895BC0182E1DB
:100EF00093E00C945B078F929F92AF92BF920F93F7
:100F00001F93CF93DF93CDB7DEB7A1970FB6F894B9
:100F1000DEBF0FBECDBF19A2423008F44AE08E01F9
:100F20000F5D1F4F842E912CB12CA12CA501940193
:100F30000E945117E62FB901CA01EA30E4F4E05DDE
:100F4000D801EE938D01232B242B252B79F7BD019E
:100F500082E193E00E945B07A1960FB6F894DEBF92
:100F60000FBECDBFDF91CF911F910F91BF90AF907A
:100F70009F908F900895E95CE3CF85E491E00E9413
:100F800063078091E405882341F06091E205709148
:100F9000E30586E494E00C945B078091E0058530DE
:100FA000A1F018F48430B9F10895863031F187301A
:100FB00059F464E571E086E494E00E945B0781E007
:100FC0008093E5051092E005089568E571E086E4F8
:100FD00094E00E945B071092E00560E08091E105DB
:100FE0000E94B8026AE070E080E090E00E945A033C
:100FF00061E08091E1050C94B8026CE571E086E453
:1010000094E00E945B0781E08093E40588E690E02D
:101010000E944B07D7CF60E671E086E494E00E941F
:101020005B07D0CFEF92FF920F931F93CF93DF9385
:1010300000D000D0CDB7DEB782E193E00E94C701B7
:1010400082E193E00E94C7018E010F5F1F4F78017C
:101050008A3341F0F80181938F0182E193E00E948D
:10106000C701F6CFC7010E94D215182F82E193E085
:101070000E94C7018053990B8230910520F4682F9C
:10108000812F0E94B80282E193E00E94C7018A305A
:1010900011F08D30C1F782E193E00E94DB018A30CC
:1010A00021F482E193E00E94C7010F900F900F900E
:1010B0000F90DF91CF911F910F91FF90EF900895C6
:1010C0004F925F926F927F928F929F92AF92BF9258
:1010D000CF92DF92EF92FF920F931F93CF93DF9304
:1010E000EC0110E000E0E981FA81E00FF11F60817E
:1010F00082E0800F0E94B8020F5F1F4F043011057D
:1011000091F79CE0D92E812C912C540108EE13E02C
:10111000F12CE12C20E4C22E84E070E060E0C0926B
:101120007C0090917A00906490937A0090917A007C
:1011300096FDFCCF9091780020917900322F292FD5
:10114000620F731F815059F776956795769567956D
:10115000E616F70608F47B016017710708F48B01A7
:1011600090E080E00E9432169B01AC01C501B40101
:101170000E94AB174B015C01DA94D110CDCFE00E89
:10118000F11EB70190E080E00E9432169B01AC0195
:10119000C501B4010E94AA1720E030E040E251E40A
:1011A0000E9417186B017C0184EF91E0A0E0B0E091
:1011B0008093BD039093BE03A093BF03B093C0037D
:1011C0001092C1031092C2031092C3031092C40381
:1011D0008091B5039091B603A091B703B091B80385
:1011E0008093B9039093BA03A093BB03B093BC035D
:1011F0000E948C036093B5037093B6038093B7038A
:101200009093B80382E193E00E94DB01843611F4ED
:101210000E9412080E948C034B015C0184E691E05D
:101220000E9476074AE061E070E080E090E00E9472
:101230007B078BE691E00E9476074AE0C501B40186
:101240000E947B078DE691E00E9476078091B503AE
:101250009091B603A091B703B091B803A501940192
:10126000281B390B4A0B5B0BCA01B9014AE00E94EB
:101270007B078DE691E00E9476076091B50370913F
:10128000B6038091B7039091B8030091B903109110
:10129000BA032091BB033091BC03601B710B820B1E
:1012A000930B4AE00E947B078FE691E00E9476074D
:1012B000A7019601C701B6010E94BD1861E771E060
:1012C00081111BC046015701E894B7F82FEF3FEF9B
:1012D0004FE75FE7C501B4010E94BD18811167C0E7
:1012E0002FEF3FEF4FE75FE7C501B4010E942D16D6
:1012F00018160CF05CC065E771E082E193E00E9493
:101300003C078DE791E00E94630782E193E00E9431
:10131000DB01843611F40E9412080E948C03609352
:10132000B5037093B6038093B7039093B80320E09E
:1013300030E0A901C701B6010E942D1687FDAAC0A1
:1013400020E030E04AE754E4C701B6010E94B81833
:1013500011E01816B4F020E030E046E153E4C70194
:10136000B6010E942D1687FD95C011E020E030E007
:101370004AEF53E4C701B6010E94B81818160CF0E2
:1013800010E0188381E0113009F480E0DF91CF9103
:101390001F910F91FF90EF90DF90CF90BF90AF9093
:1013A0009F908F907F906F905F904F9008952FEF58
:1013B0003FEF4FE75FE4C701B6010E94B818181667
:1013C0001CF469E771E099CF2FEF3FEF4FE75FEC37
:1013D000C701B6010E942D1687FDF3CF20E030E053
:1013E000A901C701B6010E942D1687FF50C08DE2EA
:1013F0000E947802C701B60190582AE037ED43EA0F
:101400005BE30E94AB172B013C010E9489184B0142
:101410005C010E9432169B01AC01C301B2010E9423
:10142000AA172B013C014AE0C501B4010E947B07C9
:101430008EE20E94780220E030E040E251E4C301F5
:10144000B2010E9493162B013C010E9489184B01A6
:10145000B12CA12C4AE0C501B4010E947B07C50153
:10146000B4010E9432169B01AC01C301B2010E947B
:10147000AA1720E030E040E251E40E9493160E9457
:10148000891890E080E04AE00E947B073ACFC701CC
:10149000B601B3CF12E075CF0F931F93CF93DF93B5
:1014A0008C01EB01FC01808191810097E1F0688162
:1014B000798161157105A9F0428153812C813D81AB
:1014C0004217530770F00E94C01A8C819D81F80169
:1014D000958384831D821C82DF91CF911F910F9190
:1014E00008950E94641988819981F801918380830D
:1014F0008A819B81938382838C819D819583848360
:10150000198218821B821A82E5CFFC0180819181A9
:10151000009711F00C94641908950F931F93CF93C3
:10152000DF93EC0188819981009759F02A813B81F2
:101530002617370730F081E0DF91CF911F910F918F
:1015400008958B016F5F7F4F0E94ED19009759F04E
:10155000998388831B830A832C813D81232B59F730
:10156000FC011082E8CF80E0E7CFEF92FF920F936B
:101570001F93CF93DF936115710541F480E0DF91F4
:10158000CF911F910F91FF90EF9008954115510554
:10159000B1F07B01EC010C811D81040F151FB80116
:1015A0000E948D0A882351F3288139818C819D8185
:1015B000B701820F931F0E94C01A1D830C8381E024
:1015C000DECFEF92FF920F931F93CF93DF93CDB7B0
:1015D000DEB728970FB6F894DEBF0FBECDBF7C01F3
:1015E000CB014AE08E010F5F1F4FB8010E94F0153A
:1015F000F80101900020E9F73197AF01401B510B32
:10160000B801C7010E94B50A28960FB6F894DEBF4C
:101610000FBECDBFDF91CF911F910F91FF90EF9043
:101620000895EF92FF920F931F93CF93DF93EC01F6
:101630007B018A01BA010E948D0A288139818111BA
:1016400014C02115310519F0C9010E9464191982CD
:1016500018821D821C821B821A82CE01DF91CF91DB
:101660001F910F91FF90EF9008951D830C83B70198
:10167000C9010E94C01AF1CF50E040E064E471E07B
:101680000C94110B0F931F93CF93DF9300D0CDB722
:10169000DEB784E891E00E9463078091E50581113F
:1016A0004DC09091100380911103981739F086E492
:1016B00094E00E9408068093E005F3CF8091E00556
:1016C000843049F1883071F18230F1F486EC91E098
:1016D0000E9463078DED91E00E94760710E000E024
:1016E000E091E205F091E305E00FF11F80810E9497
:1016F00078020F5F1F4F0D30110591F762E471E022
:1017000082E193E00E943C070F900F90DF91CF9110
:101710001F910F9108951092E40583E991E00E94D2
:101720006307F2CF81E08093E60584E491E0909333
:10173000E3058093E20587EA91E0F1CF87EE95E03B
:101740000E943C0B9091100380911103981781F037
:1017500086E494E00E94080689831A8241E050E002
:10176000BE016F5F7F4F87EE95E00E94B50AEACF1A
:101770008BEE91E00E9476074091EB055091EC05CD
:101780006091E7057091E80582E193E00E948A018B
:1017900089EF91E0C4CFCF93DF93EC01FB01861773
:1017A000970749F0608171816115710541F04481AD
:1017B00055810E94110BCE01DF91CF910895888150
:1017C0009981009711F00E946419198218821D8274
:1017D0001C821B821A82EFCFFC01118210821382BD
:1017E0001282158214820C94CB0BFC0111821082A0
:1017F0001382128215821482FB0101900020E9F706
:101800003197AF01461B570B0C94110BEF92FF92CF
:101810000F931F93CF93DF93CDB7DEB763970FB6C8
:10182000F894DEBF0FBECDBFF82E8B0164E471E0EB
:10183000CE010E960E94F50B81E0F816C9F092E0F9
:10184000F91609F454C08BE191E00E944B07CE01D8
:101850000E960E94850A63960FB6F894DEBF0FBEFF
:10186000CDBFDF91CF911F910F91FF90EF90089521
:10187000B801CE010E960E94CB0B0A891B89CE01BE
:1018800001967C0101151105B1F51982F092E3056D
:10189000E092E2058BEF91E00E94760710E000E015
:1018A000E091E205F091E305E00FF11F80810E94D5
:1018B00078020F5F1F4F0D30110591F762E471E060
:1018C00082E193E00E943C0760E08091E1050E9484
:1018D000B8026AE070E080E090E00E945A0361E0A4
:1018E0008091E1050E94B8021092E605B0CFB801E0
:1018F0006A5F7F4FBECF0C30110510F00CE010E096
:101900006E857F85A801C7010E94C71AF701E00F05
:10191000F11F1082BBCF6F927F928F929F92AF92F6
:10192000BF92CF92DF92EF92FF920F931F93CF93CC
:10193000DF93CDB7DEB7C657D1090FB6F894DEBF37
:101940000FBECDBF7C018A01490164E471E00E94B1
:10195000F50B81E5F8019E012F5F3F4F6901D90129
:1019600001900D928A95E1F7F801EF5AFF4F8081BF
:1019700063968FAF6397319687E0DE01AD5ABF4F14
:1019800001900D928A95E1F7F801E75AFF4F8081A7
:101990006B968FAF6B97319680816C968FAF6C97FB
:1019A000319686E0DE01A45ABF4F01900D928A95D0
:1019B000E1F7380131E6630E711CD3018C91A396D7
:1019C0008FAFA3975801B2E6AB0EB11CF501808131
:1019D000A4968FAFA4978181A5968FAFA597B501E7
:1019E0006E5F7F4FCE018B599F4F0E94EC0BD5014C
:1019F00018968D919C91AD969FAF8EAFAD97580183
:101A0000BCE6AB0EB11CF5018081AE968FAFAE97F0
:101A10008181AF968FAFAF97B5016E5F7F4FCE01DB
:101A200081599F4F0E94EC0BD50118968D919C9186
:101A3000E7969FAF8EAFE797B1E08B16910439F42C
:101A400064E070E0059759F462E070E008C0AD967C
:101A50008EAD9FADAD9761E070E00597A9F3C7012A
:101A60000E94E10ACE0181599F4F0E94850ACE0152
:101A70008B599F4F0E94850A8A94892809F45EC079
:101A8000D3018C914AE0B60190E00E94F015F60176
:101A900001900020E9F73197AF014C195D09B601BB
:101AA000C7010E94B50AF801EC59FF4F44815581E6
:101AB00060817181C7010E94B50AF801E659FF4FA4
:101AC00060817181C7010E94E10AD70114968D914E
:101AD0009C910B97E0F48BE890E00E947D02F70167
:101AE00084819581029728F00190F081E02D309754
:101AF000D9F510924A02EAE4F2E080810E9478026D
:101B000087E790E00E944B07C7010E943C0BC7018A
:101B1000CA58DF4F0FB6F894DEBF0FBECDBFDF91BE
:101B2000CF911F910F91FF90EF90DF90CF90BF90DA
:101B3000AF909F908F907F906F900895F301608198
:101B400070E06D5F7F4FC7010E94E10AF801E25922
:101B5000FF4F4481558160817181C7010E94B50AA0
:101B6000F801EC58FF4FACCF3196C7CF5F926F9220
:101B70007F928F929F92AF92BF92CF92DF92EF921D
:101B8000FF920F931F93CF93DF93CDB7DEB72C97C0
:101B90000FB6F894DEBF0FBECDBF7C016B01842E63
:101BA000B22E532EFB018081F701848382819381C1
:101BB00021E02093E80224E22093090310920F030E
:101BC00010920E0360E00E94A00360E0F7018281A2
:101BD00093810E94A0036FEFF701828193810E949D
:101BE000A003182D100F61E0610FF701828193812E
:101BF0000E94A003612F6095F701828193810E946A
:101C0000A00364EDF701828193810E94A0038C0CF4
:101C10009D2C911C14EDF701828193818C149D04FD
:101C2000C9F4CB2CD52C5601A00EB11CF701828132
:101C30009381AC14BD0499F14601F60160810E94C4
:101C4000A003882371F0FFEFCF1ADF0AF40180812F
:101C5000180FECCF3601F60160810E94A0038111BC
:101C600017C08DEF2C960FB6F894DEBF0FBECDBF18
:101C7000DF91CF911F910F91FF90EF90DF90CF9068
:101C8000BF90AF909F908F907F906F905F900895DE
:101C9000FFEFCF1ADF0AF3018081180FBCCF612F4D
:101CA00061950E94A00360E0F701828193810E9408
:101CB000A00381E00E94270486E0E6E0F1E0DE0177
:101CC000179601900D928A95E1F70BE010E067E01E
:101CD00084E20E942A05109211038093100381115F
:101CE0000BC061E070E080E090E00E945A03015078
:101CF000110969F78EEFB6CFF701828193810E94B7
:101D0000980380FFEECF8E010F5F1F4F5E01F7E05B
:101D1000AF0EB11C6801F701828193810E94980384
:101D2000F80181938F01EA15FB05A9F746E050E021
:101D3000BF01C6010E94AA1A21E0892B09F420E004
:101D4000822F81958FCF85ED8093BC008091E40236
:101D50009091E502A091E602B091E7020796A11DDD
:101D6000B11D23E0B695A795979587952A95D1F74C
:101D70002091BC0024FD03C01092E202089540911E
:101D8000E4025091E5026091E6027091E702452B72
:101D9000462B472B69F30097A105B10541F025E3D8
:101DA0002A95F1F700000197A109B109E1CF8091CF
:101DB000E3020C9406046F927F928F929F92AF92EF
:101DC000BF92CF92DF92EF92FF920F931F93CF9328
:101DD000DF93CDB7DEB76C970FB6F894DEBF0FBEBA
:101DE000CDBF6C017B0186E0ECE0F1E0DE015196B5
:101DF00001900D928A95E1F73B0121E5620E711C7D
:101E0000D301BC90FB01E75AFF4F108186E0FE0131
:101E10007196A954B10901900D928A95E1F7412F6D
:101E200050E06E5A7F4FC7010E94B71AF70117831F
:101E300080E4878781E0808B80E6818BB28AD7013E
:101E40005396389686E001900D928A95E1F79E2D83
:101E5000F7018E2F891B811718F48191808FF9CF9C
:101E60004701FFE48F0E911CD4018D919C91570185
:101E7000BFE0AB0EB11C4AE0410FDC01ED91FC91DB
:101E80000480F581E02D00E030E020E0B501099507
:101E9000811182C0F40180819181DC01ED91FC917E
:101EA0000680F781E02D28EE33E040E4B501099586
:101EB000F7018785811170C0D3018C9190E49787D9
:101EC00091E0908B90E3918B828BF40180819181E2
:101ED000DC01ED91FC910480F581E02D30E020E003
:101EE00044E0B5010995811153C0F40180819181CD
:101EF000DC01ED91FC910680F781E02D28EE33E0C6
:101F000040E4B5010995F7018785811141C080E161
:101F10007096DE01119601900D928A95E1F7BE014F
:101F20006F5F7F4FCE0147960E94F50B8F89988D8A
:101F3000D60111969C938E93898D9A8D13969C93BE
:101F40008E9312978B8D9C8D15969C938E931497E0
:101F5000188E1F8A1A8E198E1C8E1B8ECE014796E4
:101F60000E94850AC6016C960FB6F894DEBF0FBEBC
:101F7000CDBFDF91CF911F910F91FF90EF90DF9038
:101F8000CF90BF90AF909F908F907F906F9008956B
:101F900083E192E00E9476076BE072E0C6010E9446
:101FA000F50BE0CF1F920F920FB60F9211242F93D3
:101FB0003F934F935F936F937F938F939F93AF93D1
:101FC000BF93EF93FF9382E193E00E940902FF9198
:101FD000EF91BF91AF919F918F917F916F915F91A1
:101FE0004F913F912F910F900FBE0F901F9018951A
:101FF0001F920F920FB60F9211242F938F939F93DE
:10200000EF93FF93E0912203F09123038081E0910D
:102010002803F091290382FD1BC0908180912B033E
:102020008F5F8F7320912C03821741F0E0912B0377
:10203000F0E0EE5EFC4F958F80932B03FF91EF91C4
:102040009F918F912F910F900FBE0F901F90189519
:102050008081F4CF1F920F920FB60F9211242F930D
:102060003F938F939F93AF93BF93809190029091F2
:102070009102A0919202B091930230918F0223E0DD
:10208000230F2D3758F50196A11DB11D20938F0206
:102090008093900290939102A0939202B093930246
:1020A0008091940290919502A0919602B09197022E
:1020B0000196A11DB11D8093940290939502A09367
:1020C0009602B0939702BF91AF919F918F913F91EC
:1020D0002F910F900FBE0F901F90189526E8230F99
:1020E0000296A11DB11DD2CF1F920F920FB60F9273
:1020F00011242F933F934F935F936F937F938F930D
:102100009F93AF93BF93EF93FF938091B900887F24
:10211000803609F44AC0F0F5883209F4A7C018F5F2
:10212000803109F49BC0B8F4882309F4F9C08830E1
:1021300009F494C0FF91EF91BF91AF919F918F915E
:102140007F916F915F914F913F912F910F900FBEB3
:102150000F901F901895883109F488C0803251F78C
:102160008093E00214C0803409F49DC040F48033B1
:10217000B9F38833F9F68093E00285ECB0C080357E
:1021800009F485C0883509F496C0883499F60E9410
:10219000A30ED0CF883909F48CC038F5883729F0E0
:1021A00050F4883611F0803729F683E08093E202FC
:1021B00010928E0257C0883809F47BC0803919F01C
:1021C000803809F0B7CF80918E02803208F071C05C
:1021D000E0918E0281E08E0F80938E028091BB0091
:1021E000F0E0E259FD4F80833DC0803B39F0E0F4E0
:1021F000803A09F479C0883A09F09CCF84E0809352
:10220000E20210926D0210926C02E0910C03F091C8
:102210000D03099580916C0281110FC081E08093BC
:102220006C0210924C0209C0803C09F4A6CF883C95
:1022300009F4A3CF883B09F07DCFE0916D0281E0E6
:102240008E0F80936D02F0E0E45BFD4F8081809300
:10225000BB0090916D0280916C0229C08091BD02FB
:102260008093BB0085EC8093BC0064CF9091DF022B
:102270008091DE02981758F5E091DF0281E08E0F21
:102280008093DF02F0E0E254FD4F8081E9CFE091DE
:10229000DF0281E08E0F8093DF028091BB00F0E0CF
:1022A000E254FD4F80839091DF028091DE02981707
:1022B000C8F285E8D8CFE091DF0281E08E0F8093ED
:1022C000DF028091BB00F0E0E254FD4F80838091FB
:1022D000E10281115CCF81E08093BC0284EA8093AB
:1022E000BC001092E20226CF85EC8093BC001092D5
:1022F000E20280918E02803230F4E0918E02F0E0B2
:10230000E259FD4F108260918E0270E0E0910A0365
:10231000F0910B038EE692E0099510928E020ACF9F
:102320001092E00234CF5F926F927F928F929F92D1
:10233000AF92BF92CF92DF92EF92FF920F931F93D3
:10234000CF93DF9300D000D01F92CDB7DEB78C01C2
:10235000562EFC01EF5AFF4F84E08083399680E7C8
:10236000808358018BE5A80EB11CF5011182108203
:102370006801FDE5CF0ED11CF601118210823801F3
:10238000FFE56F0E711CF301118210827801F2E6F5
:10239000EF0EF11CF7011082118264E471E0C701B5
:1023A00002960E94F50B85E0882E912CF70191860C
:1023B00080867801FCE6EF0EF11CF7011082118295
:1023C00064E471E0C70102960E94F50BF701918663
:1023D00080863B975082CE010196F50191838083E0
:1023E000F60191838083F301918380830F900F9096
:1023F0000F900F900F90DF91CF911F910F91FF9051
:10240000EF90DF90CF90BF90AF909F908F907F9094
:102410006F905F900895CF93DF93EC0164E471E0D7
:102420000E94F50B64E471E0CE010696DF91CF9136
:102430000C94F50BEF92FF920F931F93CF93DF93C2
:10244000E2E1F3E01382128288EE93E0A0E0B0E0D4
:1024500084839583A683B78326E131E0318320838B
:1024600025EC30E03587248724EC30E03787268759
:1024700020EC30E0318B208B21EC30E0338B228B51
:1024800022EC30E0358B248B26EC30E0378B268B2A
:10249000118E128E138E148E06E414E0F80113824E
:1024A000128284839583A683B78388E291E0918327
:1024B0008083EFEAF3E01682178210861186128677
:1024C00013861486158616861786108A118A128A34
:1024D000138A148A158AC0EED5E088E089831C82AD
:1024E0001D821E8264E471E087EE95E00E94F50B88
:1024F00061E089810E94040361E089810E94B80241
:1025000087E5E82E84E0F82E80E7D7018C9360E021
:102510008AE594E00E94931161E080ED94E00E94CE
:10252000931162E086E495E00E949311CCE0ECEB1D
:10253000F5E0DF018C2F1D928A95E9F7CF010E940B
:102540000B12E8ECF5E0DF018C2F1D928A95E9F77C
:10255000CF010E940B12E4EDF5E0DF011D92CA9558
:10256000E9F7CF010E940B128DEE95E0F7019283FF
:102570008183E2E5F4E08AE391E091838083138331
:1025800002831482F0934504E0934404DF91CF91D9
:102590001F910F91FF90EF900895CF93DF93CDB7E8
:1025A000DEB72C970FB6F894DEBF0FBECDBF789480
:1025B00084B5826084BD84B5816084BD85B5826048
:1025C00085BD85B5816085BD80916E0081608093F9
:1025D0006E00109281008091810082608093810062
:1025E0008091810081608093810080918000816072
:1025F000809380008091B10084608093B1008091CD
:10260000B00081608093B00080917A0084608093F4
:102610007A0080917A00826080937A0080917A00BB
:10262000816080937A0080917A00806880937A003C
:102630001092C1001092F1031092F2031092F30372
:102640001092F4031092B1031092B2031092B303EC
:102650001092B4030E948C036B017C014B015C015E
:1026600028EB820E2BE0921EA11CB11C0E948C0351
:102670006C157D058E059F0528F086169706A80621
:10268000B906A0F768EE73E080E090E00E945A037C
:102690000E94C80081E392E00E9476070E948C03AA
:1026A0006B017C014B015C018AE0880E911CA11C2E
:1026B000B11C0E948C036C157D058E059F0528F0CA
:1026C00086169706A806B906A0F781E08093C50391
:1026D00082E492E00E9476070E94C8000E94ED0307
:1026E00001E0809157040093E8028093090310925F
:1026F0000F0310920E0381E00E942704182F62E35B
:1027000070E080E090E00E945A031111EACF61E08E
:1027100082E00E94040361E083E00E94040361E020
:1027200084E00E94040361E085E00E94040360E00D
:102730008EE00E94040349EAC42E44E0D42E57E5FB
:10274000E52E54E0F52E18E562E3B62E75E0A72ECF
:1027500077247A94662463948AEE90E00E947D0246
:10276000D60152966C9170E090E080E04AE00E94C1
:102770007B0762E471E082E193E00E943C0781E51F
:10278000E5EFF3E0D701139601900D928A95E1F7FA
:10279000F6016289683020F4C70103960E94810621
:1027A000D6018D919C91DC01ED91FC910190F0811D
:1027B000E02D0995F60180819181DC01ED91FC917C
:1027C0000280F381E02D0995F701128B138AD6015F
:1027D0008D919C914701B2E18B0E911CDC01ED9132
:1027E000FC910480F581E02D00E030E020E042E043
:1027F000B4010995F701B28AA38A748A658A8AE0CE
:10280000868BD6018D919C91DC01ED91FC91048029
:10281000F581E02D30E020E045E0B401099581111B
:102820000EC0F60180819181DC01ED91FC91068062
:10283000F781E02D28EE33E040E4B4010995B6E7D6
:10284000EB0EF11CE6E7CE0ED11CF9EBEF16F5E02E
:10285000FF0609F081CF0E94ED0386E18093BA0064
:1028600082E49BE090939902809398028DEB97E02D
:1028700090939B0280939A0282E091E00E944B0722
:1028800035E0832E912C8091E5058823C1F067EE19
:1028900075E0CE0101960E94EC0B0E948701182F73
:1028A000CE0101960E94850A112349F087EE95E03A
:1028B0000E943C0B87E08093E0051092E505809133
:1028C000E405882309F4EAC00CEA14E025E6C22EE8
:1028D000DD24D394780122E5E21AF108D801199693
:1028E0008D919C910E946008F801808B91898927C5
:1028F000818B858596850E946008D8015A968C93B5
:102900005A975B969C915B9789275B968C935B9714
:1029100051968C91B12C882309F45EC06AEF70E067
:1029200080E090E00E945A03D80150968C91882351
:10293000B9F1D8011F966C91683018F4C7010E9454
:102940008106A801495F5F4FB801C7010E942601B7
:10295000811129C0B701CE0101960E94DB0EBE0194
:102960006F5F7F4FC80142960E944C0ACE010196CC
:102970000E94850AF801838594850E946008882357
:1029800009F49FC0D8011B96ED91FC9180818823AA
:1029900009F491C0823009F497C085E090E08DC0C1
:1029A000F801918E808E609158047091590430E046
:1029B00020E0A701CE0101960E948B0CBE016F5F43
:1029C0007F4FC601895A9B4F0E944C0ACE01019647
:1029D0000E94850ABB24B394D8015B968C9188230E
:1029E00029F16AEF70E080E090E00E945A03F8015C
:1029F000828D81116CC093A282A260915804709163
:102A0000590421E030E0A701CE0101960E948B0C11
:102A1000BE016F5F7F4FC601835A9B4F0E944C0AD5
:102A2000CE0101960E94850A92E0B92ED8015196F6
:102A30008C915197882321F05B968C9181117BC0FA
:102A4000BB20E1F0B601695A7B4FCE0101960E948E
:102A5000EC0BB601635A7B4FCE0107960E94EC0B3C
:102A6000BE016F5F7F4F8B2D0E94060CCE01079633
:102A70000E94850ACE0101960E94850A0A581F4FBE
:102A8000BCE0CB0ED11CE9E8CE16E1E0DE0609F091
:102A900021CF0E94ED0386E18093BA0080E090E0B0
:102AA000892B09F4F0CE0E94F501882309F4EBCEBE
:102AB0000E940000E8CE84E090E0F801918F808FC2
:102AC00072CF81E090E0F9CF83E090E0F6CF6785A8
:102AD000683018F4C7010E948106A801495F5F4F62
:102AE000B801C7010E942601811187CFB701CE012D
:102AF00001960E94DB0EBE016F5F7F4FC8014296B8
:102B00000E944C0ACE0101960E94850AD8011D96AA
:102B1000ED91FC918081882329F0823049F085E095
:102B200090E002C082E090E0F801918F808F65CF45
:102B300081E090E0F9CF83E0B82E84CF8AED95E074
:102B40000E94850A84ED95E00E94850A8EEC95E04E
:102B50000E94850A88EC95E00E94850A82EC95E047
:102B60000E94850A8CEB95E00E94850A84EB95E033
:102B70000E94850A8AEA95E00E94850A8EE395E024
:102B80000E94850A84E395E00E94850A88EC94E01F
:102B90000E94850A8EEB94E00E94850A87EE95E0FC
:102BA0000C94850AFC0188279927E894219120320A
:102BB000E9F3293010F02E30C8F32B3241F02D32DA
:102BC00039F4689404C00E94FB15820F911D219175
:102BD00020532A30C0F31EF4909581959F4F08959D
:102BE000BB274A3031F4992322F4BDE290958195B8
:102BF0009F4F0C9404167AE0979F902D879F802D0D
:102C0000910D11240895BB27FB015527AA27880F92
:102C1000991FAA1FA41710F0A41B83955051B9F750
:102C2000A05DAA3308F0A95DA193009779F7B111CF
:102C3000B1931192CB010C941D16DC01FC01672F9E
:102C400071917723E1F7329704C07C916D93708383
:102C50006291AE17BF07C8F308950E946F1608F47B
:102C600081E00895E89409C097FB3EF49095809523
:102C7000709561957F4F8F4F9F4F9923A9F0F92F42
:102C800096E9BB279395F695879577956795B795C0
:102C9000F111F8CFFAF4BB0F11F460FF1BC06F5FA6
:102CA0007F4F8F4F9F4F16C0882311F096E911C0B8
:102CB000772321F09EE8872F762F05C0662371F0D9
:102CC00096E8862F70E060E02AF09A95660F771FED
:102CD000881FDAF7880F9695879597F90895990FC9
:102CE0000008550FAA0BE0E8FEEF16161706E807D6
:102CF000F907C0F012161306E407F50798F0621BF7
:102D0000730B840B950B39F40A2661F0232B242BCB
:102D1000252B21F408950A2609F4A140A6958FEFEA
:102D2000811D811D08950E94A6160C9417170E94FC
:102D3000091738F00E94101720F0952311F00C9419
:102D400000170C94061711240C944B170E94281797
:102D500070F3959FC1F3950F50E0551F629FF001EE
:102D6000729FBB27F00DB11D639FAA27F00DB11D07
:102D7000AA1F649F6627B00DA11D661F829F222790
:102D8000B00DA11D621F739FB00DA11D621F839F17
:102D9000A00D611D221F749F3327A00D611D231FED
:102DA000849F600D211D822F762F6A2F11249F573B
:102DB00050409AF0F1F088234AF0EE0FFF1FBB1F3E
:102DC000661F771F881F91505040A9F79E3F5105FD
:102DD00080F00C9400170C944B175F3FE4F3983E7F
:102DE000D4F3869577956795B795F795E7959F5FA7
:102DF000C1F7FE2B880F911D9695879597F9089539
:102E000097F99F6780E870E060E008959FEF80EC9D
:102E1000089500240A941616170618060906089540
:102E200000240A9412161306140605060895092EA6
:102E30000394000C11F4882352F0BB0F40F4BF2B15
:102E400011F460FF04C06F5F7F4F8F4F9F4F089555
:102E500057FD9058440F551F59F05F3F71F047954B
:102E6000880F97FB991F61F09F3F79F08795089530
:102E7000121613061406551FF2CF4695F1DF08C04F
:102E8000161617061806991FF1CF8695710561056C
:102E900008940895E894BB2766277727CB0197F914
:102EA0000895A1E21A2EAA1BBB1BFD010DC0AA1F8B
:102EB000BB1FEE1FFF1FA217B307E407F50720F0A3
:102EC000A21BB30BE40BF50B661F771F881F991F1E
:102ED0001A9469F760957095809590959B01AC0167
:102EE000BD01CF0108952F923F924F925F926F9252
:102EF0007F928F929F92AF92BF92CF92DF92EF928A
:102F0000FF920F931F93CF93DF93CDB7DEB7CA1B0A
:102F1000DB0B0FB6F894DEBF0FBECDBF09942A8835
:102F2000398848885F846E847D848C849B84AA84DD
:102F3000B984C884DF80EE80FD800C811B81AA816A
:102F4000B981CE0FD11D0FB6F894DEBF0FBECDBF35
:102F5000ED0108955058BB27AA270E94C2170C9470
:102F600017170E94091738F00E94101720F039F443
:102F70009F3F19F426F40C9406170EF4E095E7FB36
:102F80000C940017E92F0E94281758F3BA1762070C
:102F900073078407950720F079F4A6F50C944A1777
:102FA0000EF4E0950B2EBA2FA02D0B01B901900164
:102FB0000C01CA01A0011124FF27591B99F0593FA8
:102FC00050F4503E68F11A16F040A22F232F342FF0
:102FD0004427585FF3CF469537952795A795F0403E
:102FE0005395C9F77EF41F16BA0B620B730B840B53
:102FF000BAF09150A1F0FF0FBB1F661F771F881F0B
:10300000C2F70EC0BA0F621F731F841F48F4879562
:1030100077956795B795F7959E3F08F0B0CF939554
:10302000880F08F09927EE0F9795879508950E94CD
:103030002B180C9417170E94101758F00E940917AC
:1030400040F029F45F3F29F00C94001751110C94C3
:103050004B170C9406170E94281768F39923B1F3B5
:10306000552391F3951B550BBB27AA2762177307AE
:10307000840738F09F5F5F4F220F331F441FAA1F42
:10308000A9F335D00E2E3AF0E0E832D091505040FE
:10309000E695001CCAF72BD0FE2F29D0660F771FAC
:1030A000881FBB1F261737074807AB07B0E809F092
:1030B000BB0B802DBF01FF2793585F4F3AF09E3F17
:1030C000510578F00C9400170C944B175F3FE4F314
:1030D000983ED4F3869577956795B795F7959F5F5A
:1030E000C9F7880F911D9695879597F90895E1E0A6
:1030F000660F771F881FBB1F621773078407BA0705
:1031000020F0621B730B840BBA0BEE1F88F7E0955F
:1031100008950E94301788F09F5798F0B92F99278B
:10312000B751B0F0E1F0660F771F881F991F1AF0B2
:10313000BA95C9F714C0B13091F00E944A17B1E0B6
:1031400008950C944A17672F782F8827B85F39F0B5
:10315000B93FCCF3869577956795B395D9F73EF44B
:1031600090958095709561957F4F8F4F9F4F0895F3
:103170000E946F1608F48FEF08950E946F16880B57
:10318000990B0895EE0FFF1F0590F491E02D09941F
:103190000F931F93CF93DF938230910510F482E059
:1031A00090E0E091F005F091F10530E020E0B0E032
:1031B000A0E0309799F42115310509F44AC0281B85
:1031C000390B24303105D8F58A819B816115710551
:1031D00089F1FB0193838283FE0111C040815181FB
:1031E0000281138148175907E0F04817590799F4ED
:1031F000109761F012960C93129713961C933296C7
:10320000CF01DF91CF911F910F9108950093F005A9
:103210001093F105F4CF2115310551F042175307F2
:1032200038F0A901DB019A01BD01DF01F801C1CF2E
:10323000EF01F9CF9093F1058093F005CDCFFE011A
:10324000E20FF31F81939193225031093983288330
:10325000D7CF2091EE053091EF05232B41F420913B
:103260000201309103013093EF052093EE05209188
:103270000001309101012115310541F42DB73EB710
:103280004091040150910501241B350BE091EE059E
:10329000F091EF05E217F307A0F42E1B3F0B281760
:1032A000390778F0AC014E5F5F4F2417350748F0BF
:1032B0004E0F5F1F5093EF054093EE05819391935E
:1032C0009FCFF0E0E0E09CCFCF93DF930097E9F051
:1032D000FC01329713821282A091F005B091F105A2
:1032E000ED0130E020E01097A1F420813181820FC0
:1032F000931F2091EE053091EF052817390709F04B
:1033000061C0F093EF05E093EE05DF91CF91089552
:10331000EA01CE17DF07E8F54A815B819E0141157E
:103320005105B1F7E901FB83EA8349915991C40F33
:10333000D51FEC17FD0761F4808191810296840FFF
:10334000951FE90199838883828193819B838A8376
:10335000F0E0E0E012968D919C9113970097B9F5FB
:103360002D913C911197CD010296820F931F2091D0
:10337000EE053091EF052817390739F6309751F5EA
:103380001092F1051092F005B093EF05A093EE05B1
:10339000BCCFD383C28340815181840F951FC8174E
:1033A000D90761F44E5F5F4F88819981480F591F9B
:1033B000518340838A819B819383828321153105C8
:1033C00009F0B0CFF093F105E093F0059ECFFD0139
:1033D000DC01C0CF13821282D7CFB0E0A0E0E3EFD0
:1033E000F9E10C9475178C01009751F4CB010E9400
:1033F000C8188C01C801CDB7DEB7E0E10C94911775
:10340000FC01E60FF71F9C0122503109E217F30778
:1034100008F49DC0D901CD91DC911197C617D7074B
:1034200098F0C530D10530F3CE0104978617970781
:1034300008F3C61BD70B2297C193D1936D937C934E
:10344000CF010E946419D6CF5B01AC1ABD0A4C01B2
:103450008C0E9D1EA091F005B091F105512C412CD0
:10346000F12CE12C109731F58091EE059091EF054C
:103470008815990509F05CC04616570608F058C033
:103480008091000190910101009741F48DB79EB7A2
:103490004091040150910501841B950BE817F90731
:1034A00008F055C0F093EF05E093EE05F901718344
:1034B0006083A0CF8D919C91119712966C9012977A
:1034C00013967C901397A815B90559F56C0142E045
:1034D000C40ED11CCA14DB0420F1AC014A195B09EB
:1034E000DA011296159780F06282738251834083CD
:1034F000D9016D937C93E114F10471F0D701139617
:10350000FC93EE93129776CF22968C0F9D1FF901B4
:1035100091838083F301EFCFF093F105E093F00501
:1035200069CF4816590608F42C017D01D3019ACFC2
:10353000CB010E94C8187C01009749F0AE01B80188
:103540000E94B71AC8010E946419870153CF10E086
:1035500000E050CFFB01DC0104C08D910190801987
:1035600021F441505040C8F7881B990B0895FB0186
:10357000DC0102C001900D9241505040D8F70895EF
:10358000FB01DC0101900D920020E1F70895FB01A1
:10359000DC014150504048F001900D920020C9F7E5
:1035A00001C01D9241505040E0F7089510E0CDE970
:1035B000D0E004C0FE010E94C2182196CE39D10786
:0635C000C9F7F894FFCFEB
:1035C6000000F20580000000FF00FF00FFFFFFFF84
:1035D600FFFF000000002B028A01B8019802E901F2
:1035E600C701DB01000000004F0622067E06B70178
:1035F6001B060806F9050000000004041705B60DB1
:103606009E060D0A0048616E646C652052657175F0
:10361600657374005375620030353700447261007B
:10362600676F6E00564D4450455F003A323A007C53
:10363600006E616E00696E66006F7666005F564DBD
:103646004450450048616E646C6520526563656947
:10365600766500546865204475656C204861732062
:10366600456E64656421004576656E742052656317
:103676006965766564202D20436C656172696E67A5
:10368600204461746100436F6D6D756E696361748A
:10369600696F6E204661696C7572652100466169C5
:1036A6006C656420446174613A2000496E636F6DF5
:1036B600696E672049443A20007E0048616E646C5A
:1036C600696E6720446174613A20004661696C75D1
:1036D6007265005B5741524E5D20436F756C6420E6
:1036E6006E6F74207265616420626C6F636B210A71
:1036F60000564D4450565F317C315F564D4450560E
:0A3706000A00564D4450525F0000C7
:00000001FF
