:020000040000FA
:100000000C9474000C949C000C949C000C949C0028
:100010000C949C000C949C000C949C000C949C00F0
:100020000C949C000C949C000C949C000C949C00E0
:100030000C949C000C949C000C949C000C949C00D0
:100040000C946C0D0C949C000C943A0D0C94140DB3
:100050000C949C000C949C000C949C000C949C00B0
:100060000C94B60D0C949C000000000025002800A4
:100070002B000000000023002600290000000008DB
:10008000000201000003040700000000000000005F
:1000900000000000240027002A00010204081020AC
:1000A000408001020408102001020408102004040A
:1000B0000404040404040202020202020303030310
:1000C0000303206861642061206D616C66756E6356
:1000D00074696F6E21005B4552524F525D205A6F1A
:1000E0006E653A200000F40E11241FBECFEFD8E059
:1000F000DEBFCDBF26E0A4EEB2E001C01D92AD3759
:10010000B207E1F712E0A0E0B1E0ECE5FBE202C0EB
:1001100005900D92A43EB107D9F710E0C4E7D0E0F6
:1001200004C02197FE010E949813C337D107C9F775
:100130000E946A0F0C94AC150C940000AF92BF9211
:10014000CF92DF92EF92FF920F931F93CF93DF93A3
:100150006C017B018B01040F151FEB015E01AE18D2
:10016000BF08C017D10759F06991D601ED91FC91F4
:100170000190F081E02DC6010995892B79F7C50121
:10018000DF91CF911F910F91FF90EF90DF90CF9073
:10019000BF90AF9008950895E0915E03F0915F03E2
:1001A000309729F01092590310925803099408953A
:1001B000CF93DF93EC01E0915C03F0915D03309706
:1001C000F1F090915B0380915A039817C0F090E092
:1001D000292F30E02617370754F4DE01A20FB31F92
:1001E0004C9129573C4FD9014C939F5FF1CF10920E
:1001F0005B0360935A03CB01DF91CF910994DF91A8
:10020000CF910895FC01538D448D252F30E0842F2C
:1002100090E0821B930B541710F0CF96089501972E
:100220000895FC01918D828D981761F0A28DAE0F1B
:10023000BF2FB11D5D968C91928D9F5F9F73928FA2
:1002400090E008958FEF9FEF0895FC01918D828DCE
:10025000981731F0828DE80FF11D858D90E008959B
:100260008FEF9FEF0895FC01918D228D892F90E0F3
:10027000805C9F4F821B91098F73992708958DEAA7
:1002800093E00E94330121E0892B09F420E0822FC2
:10029000089580E090E0892B29F00E943F018111B0
:1002A0000C9400000895FC01A48DA80FB92FB11D76
:1002B000A35ABF4F2C91848D90E001968F7399279C
:1002C000848FA689B7892C93A089B1898C9183707A
:1002D00080648C93938D848D981306C00288F38973
:1002E000E02D80818F7D80830895EF92FF920F93A0
:1002F0001F93CF93DF93EC0181E0888F9B8D8C8DD2
:1003000098131AC0E889F989808185FF15C09FB7C5
:10031000F894EE89FF896083E889F9898081837088
:10032000806480839FBF81E090E0DF91CF911F9137
:100330000F91FF90EF900895F62E0B8D10E00F5F58
:100340001F4F0F731127E02E8C8D8E110CC00FB62E
:1003500007FCFACFE889F989808185FFF5CFCE01C6
:100360000E945301F1CFEB8DEC0FFD2FF11DE35AED
:10037000FF4FF0829FB7F8940B8FEA89FB89808149
:100380008062CFCF0F931F93CF93DF938C01D0E088
:10039000C0E0F801EC0FFD1F6491662341F08DEA87
:1003A00093E00E947501892B11F02196F2CFCE01C6
:1003B000DF91CF911F910F910895682F8DEA93E0FF
:1003C0000C947501CF93DF93EC01888D8823B9F0ED
:1003D000AA89BB89E889F9898C9185FD03C0808150
:1003E00086FD0DC00FB607FCF7CF8C9185FFF2CFCD
:1003F000808185FFEDCFCE010E945301E9CFDF91CF
:10040000CF910895833081F028F4813099F08230C3
:10041000A9F008958730A9F08830C9F08430B1F48C
:10042000809180008F7D03C0809180008F778093C2
:100430008000089584B58F7784BD089584B58F7D3D
:10044000FBCF8091B0008F778093B00008958091AA
:10045000B0008F7DF9CFCF93DF93282F30E0F901E3
:10046000E458FF4F8491F901E656FF4FD491F9010A
:10047000E255FF4FC491CC23A1F081110E940202EA
:10048000EC2FF0E0EE0FFF1FEE58FF4FA591B49157
:10049000EC91ED2381E090E009F480E0DF91CF91D1
:1004A000089580E090E0FACF1F93CF93DF93282F39
:1004B00030E0F901E458FF4F8491F901E656FF4F0F
:1004C000D491F901E255FF4FC491CC23A9F0162F26
:1004D00081110E940202EC2FF0E0EE0FFF1FE8599D
:1004E000FF4FA591B4918FB7F894EC91111108C00A
:1004F000D095DE23DC938FBFDF91CF911F910895BC
:10050000DE2BF8CFCF93DF9390E0FC01E656FF4F50
:10051000249182559F4FFC0184918823D1F090E073
:10052000880F991FFC01E057FF4FA591B491FC0182
:10053000E859FF4FC591D49161110EC09FB7F8944F
:100540008C91E22FE0958E238C932881E223E8831F
:100550009FBFDF91CF9108958FB7F894EC91E22B74
:10056000EC938FBFF6CF8E3008F08E50877080648A
:1005700080937C0080917A00806480937A008091DF
:100580007A0086FDFCCF80917800909179000895E3
:100590003FB7F89480914F0390915003A09151037D
:1005A000B091520326B5A89B05C02F3F19F00196C4
:1005B000A11DB11D3FBFBA2FA92F982F8827BC01BD
:1005C000CD01620F711D811D911D42E0660F771FE5
:1005D000881F991F4A95D1F708958F929F92AF92E5
:1005E000BF92CF92DF92EF92FF924B015C010E948B
:1005F000C8026B017C010E94C8026C197D098E093A
:100600009F09683E734081059105A8F321E0821A95
:100610009108A108B10888EEC80E83E0D81EE11C3D
:10062000F11C81149104A104B10429F7FF90EF900B
:10063000DF90CF90BF90AF909F908F900895DC0196
:10064000ED91FC910284F385E02D09950895DC017C
:10065000ED91FC910190F081E02D0995089564EFF2
:1006600071E080E090E00C94ED0220912503260FCC
:100670003327331F21323105ECF42091A703FC010D
:1006800090E080E0243069F082E00895A091250395
:100690002191AC014B5F5C4FA40FB52FB11D2C9382
:1006A0000196861798F380912503680F60932503C0
:1006B00080E0089581E008951092A70381E080937F
:1006C00086031092810361E082E10E94540261E09E
:1006D00083E10E945402E9EBF0E080818E7F808309
:1006E00080818D7F808388E48093B80085E4809347
:1006F000BC00089510925B0310925A0310925903A4
:10070000109258030E945C038CEC90E09093570386
:100710008093560388ED90E09093550380935403A3
:100720000895CF93DF9391E0909304038823B9F069
:10073000C091B800D091BA008091BC008A7B8093B0
:10074000BC0060E082E10E94540260E083E10E940C
:1007500054020E945C03D093BA00C093B800DF91AA
:10076000CF910895CF92DF92EF92FF920F931F9354
:10077000CF93DF93D82FC62F613208F098C00E9424
:10078000C8026B017C018091A70381116BC081E0DD
:100790008093A703809386039FEF90938503109225
:1007A00084039C0F90938303809382038091820340
:1007B000DD0FD82BD093820380918103813009F023
:1007C00078C0109281030E94C8026B017C01809165
:1007D00082038093BB008091A9039091AA03A0910A
:1007E000AB03B091AC03892B8A2B8B2BA1F00E9419
:1007F000C8020091A9031091AA032091AB03309184
:10080000AC036C197D098E099F0906171707280785
:10081000390708F448C08091BC0083FDD8CF85EC2F
:100820008093BC000E94C8026B017C018091A703E9
:10083000813009F440C0809184038C1710F4C0917A
:100840008403E1E6F3E0A7E8B3E080E08C1355C051
:100850008C2FDF91CF911F910F91FF90EF90DF9040
:10086000CF9008958091A9039091AA03A091AB0322
:10087000B091AC03892B8A2B8B2B09F484CF0E9477
:10088000C8020091A9031091AA032091AB033091F3
:10089000AC036C197D098E099F09061717072807F5
:1008A000390708F070CF8091A8030E949103C0E03F
:1008B000CFCF85EEB5CF8091A9039091AA03A091E7
:1008C000AB03B091AC03892B8A2B8B2B09F4AECFF1
:1008D0000E94C8020091A9031091AA032091AB03C2
:1008E0003091AC036C197D098E099F090617170713
:1008F0002807390708F09ACFD6CF91919D938F5F43
:10090000A5CFE0915B0380915A03E81730F4F0E043
:10091000E957FC4F808190E008958FEF9FEF089595
:1009200090915B0380915A032FEF3FEF981748F4A3
:10093000E92FF0E0E957FC4F208130E09F5F909372
:100940005B03C901089580915A0390915B03891B51
:10095000990B0895CF92DF92EF92FF920F931F931E
:10096000CF93DF937C01CB018A012091490322239D
:1009700089F0EB016B01C40ED51ECC15DD0569F0C5
:100980006991D701ED91FC910190F081E02DC701B3
:100990000995F3CF642F0E943503C801DF91CF91F1
:1009A0001F910F91FF90EF90DF90CF900895CF931C
:1009B000DF931F92CDB7DEB76983209149032223CD
:1009C000F9F020915803203258F021E030E0FC018A
:1009D0003383228390E080E00F90DF91CF910895E0
:1009E00080915903E82FF0E0EC51FD4F99819083FD
:1009F0008F5F809359038093580381E090E0ECCFA0
:100A000061E0CE0101960E943503F7CFCF92DF92CD
:100A1000EF92FF920F931F93CF93DF93D0915803E0
:100A200081E0D13208F09CC0C09148030E94C80206
:100A30006B017C018091A70381116CC082E08093DF
:100A4000A70381E0809386038FEF80938503109244
:100A50008403D0938303A4EEB2E0E1E6F3E080E008
:100A6000D8138DC01092820380918203CC0FC82BC3
:100A7000C093820380918103813009F084C0109279
:100A800081030E94C8026B017C01809182038093E4
:100A9000BB008091A9039091AA03A091AB03B091F0
:100AA000AC03892B8A2B8B2BA1F00E94C8020091EA
:100AB000A9031091AA032091AB033091AC036C19E8
:100AC0007D098E099F09061717072807390708F4BB
:100AD00042C08091BC0083FDD8CF85EC8093BC00E0
:100AE0000E94C8026B017C018091A703823009F447
:100AF0004CC0809185038F3F09F469C080918503C4
:100B0000803209F466C080918503803309F463C0A4
:100B100084E026C08091A9039091AA03A091AB0321
:100B2000B091AC03892B8A2B8B2B09F483CF0E94C5
:100B3000C8020091A9031091AA032091AB03309140
:100B4000AC036C197D098E099F0906171707280742
:100B5000390708F06FCF8091A8030E94910385E0C8
:100B6000109259031092580310924903DF91CF91CC
:100B70001F910F91FF90EF90DF90CF9008959D917E
:100B800091938F5F6DCF85EEA9CF8091A90390914E
:100B9000AA03A091AB03B091AC03892B8A2B8B2BBA
:100BA00009F4A2CF0E94C8020091A9031091AA03E0
:100BB0002091AB033091AC036C197D098E099F091C
:100BC000061717072807390708F08ECFC4CF80E033
:100BD000C7CF82E0C5CF83E0C3CF90E080E0089527
:100BE000CF93DF93EC018A810E942B029C838B833D
:100BF000DF91CF910895CF93DF93EC018A810E941A
:100C00002B022B813C812817390731F09C838B8381
:100C100081E0DF91CF91089580E0FBCFCF93DF9308
:100C2000EC018A810E94B3028436910584F08732F8
:100C3000924084F481E090E02B813C8128173907B1
:100C400061F09C838B8381E0DF91CF91089590E0E8
:100C500080E0F2CF82E090E0EFCF80E0F5CFCF935D
:100C6000DF93EC018A810E94B3028436910554F02F
:100C70008732924054F481E090E09C838B83DF9133
:100C8000CF91089590E080E0F8CF82E090E0F5CF3A
:100C900090915A0380915B03981739F08BEA94E0A6
:100CA0000E9490048093BC04F3CF089561157105F0
:100CB00079F0FB0101900020E9F73197AF01461B65
:100CC000570BDC01ED91FC910280F381E02D09943A
:100CD00090E080E00895BC018DEA93E00C94560604
:100CE0008F929F92AF92BF920F931F93CF93DF93F8
:100CF000CDB7DEB7A1970FB6F894DEBF0FBECDBF5C
:100D000019A2423008F44AE08E010F5D1F4F842E75
:100D1000912CB12CA12CA50194010E947613E62FF1
:100D2000B901CA01EA30E4F4E05DD801EE938D0127
:100D3000232B242B252B79F7BD018DEA93E00E940C
:100D40005606A1960FB6F894DEBF0FBECDBFDF9159
:100D5000CF911F910F91BF90AF909F908F9008956A
:100D6000E95CE3CF8091BC04853031F463E771E046
:100D70008BEA94E00C945606843031F46091BD0403
:100D80008BEA94E00C94D704833041F46EEB74E06A
:100D90008BEA94E00E9456061092BD04089542E04A
:100DA00050E067E771E08DEA93E00C949E00CF93EA
:100DB000DF9321E02093BD04FC01C481D5812097FD
:100DC00029F41092BE04DF91CF910895CB30D10564
:100DD00010F0CBE0D0E0FC0160817181AE018EEBC0
:100DE00094E00E949D15C254DB4F1882ECCFBC01E9
:100DF000990F880B990B40E10C9470066F927F92CB
:100E00008F929F92AF92BF92CF92DF92EF92FF921A
:100E10000F931F93CF93DF9300D000D000D0CDB7B6
:100E2000DEB78C01B62EA72E742E690186E0E5E1AF
:100E3000F1E0DE01119601900D928A95E1F7F12C17
:100E4000E12C66E084E20E94B20310925B0380937F
:100E50005A03811112C061E070E080E090E00E94CE
:100E6000ED028FEFE81AF80AC114D10451F3CE1441
:100E7000DF0438F78FEF9FEF10C0F8018281938174
:100E80000E941F0380FFE7CFF801828193810E94B7
:100E90001F03882339F18DEF9FEFF12CE12C98E0AF
:100EA000992E980E692DF0E2F91508F460E284E2BB
:100EB0000E94B20310925B0380935A03811149C0D0
:100EC00061E070E080E090E00E94ED028FEFE81AB0
:100ED000F80AC114D10431F3CE14DF0418F78FEFF0
:100EE0009FEF47C0F801828193810E941F03811107
:100EF000D2CFF801828193810E941F038F3F59F660
:100F0000F801828193810E941F03682E81E0809303
:100F1000490384E2809348031092590310925803C6
:100F2000CE0101967C014E0197E0890E911CF701DC
:100F300061917F01F801828193810E9427038E14C1
:100F40009F04A9F7F801828193810E940605862DEE
:100F5000A4CFF801828193810E941F0380FFB0CF4C
:100F6000F801828193810E941F038823B9F08DEFDD
:100F70009FEF26960FB6F894DEBF0FBECDBFDF9170
:100F8000CF911F910F91FF90EF90DF90CF90BF9086
:100F9000AF909F908F907F906F900895F80182811D
:100FA00093810E941F038111E2CFF8018281938116
:100FB0000E941F038F3FD9F6F801828193810E941E
:100FC0001F03F82EF801828193810E941F038F0D69
:100FD00071F6F801E480DD24D394DE0C82819381E4
:100FE0000E941F03853D19F6F801828193810E94BA
:100FF0001F03D812BCCFFA94FA948CEF9FEF7F14A2
:1010000008F4B7CF8AE791E00E946B0680E20E9465
:10101000DD018D2D82958F7090E00E94F7068D2D59
:101020008F7090E00E94F706F6EDEF0E9B2CCB2C14
:10103000DA2C8C2D89198F15E0F4F80182819381C7
:101040000E941F035601F60181936F01E80E80E2B2
:101050000E94DD01F501808182958F7090E00E94F1
:10106000F706F601319780818F7090E00E94F706B5
:10107000E0CF8AE00E94DD01F801828193810E9425
:101080001F038E0D29F082E891E00E946B066FCF5E
:10109000F801828193810E941F038F2D90E069CF18
:1010A0000F931F93CF93DF93EC0188819981009771
:1010B00059F02A813B812617370730F081E0DF9114
:1010C000CF911F910F9108958B016F5F7F4F0E9409
:1010D000C314009759F0998388831B830A832C815A
:1010E0003D81232B59F7FC011082E8CF80E0E7CF48
:1010F000EF92FF920F931F93CF93DF9361157105CA
:1011000041F480E0DF91CF911F910F91FF90EF901C
:10111000089541155105B1F07B01EC010C811D8151
:10112000040F151FB8010E945008882351F328812D
:1011300039818C819D81B701820F931F0E94961582
:101140001D830C8381E0DECFEF92FF920F931F93FC
:10115000CF93DF93CDB7DEB728970FB6F894DEBFF5
:101160000FBECDBF7C01CB014AE08E010F5F1F4F48
:10117000B8010E940A13F80101900020E9F73197A5
:10118000AF01401B510BB801C7010E947808289697
:101190000FB6F894DEBF0FBECDBFDF91CF911F9188
:1011A0000F91FF90EF900895CF93DF93EC0188812A
:1011B0009981009711F00E943A14198218821D82B9
:1011C0001C821B821A82DF91CF910895EF92FF92C9
:1011D0000F931F93CF93DF93EC017B018A01BA0138
:1011E0000E94500881110BC0CE010E94D408CE018C
:1011F000DF91CF911F910F91FF90EF9008951D8384
:101200000C83B701888199810E949615F0CFCF9306
:10121000DF93EC01FB018617970749F0608171812C
:101220006115710541F0448155810E94E608CE01A7
:10123000DF91CF9108950E94D408F9CFFC0111826B
:10124000108213821282158214820C9407090F9364
:101250001F93CF93DF93EC018A010E9407091F833C
:101260000E83DF91CF911F910F910895FC011182A0
:1012700010821382128215821482FB0101900020D9
:10128000E9F73197AF01461B570B0C94E6080F9313
:101290001F93CF93DF93EC018B0169E771E00E940C
:1012A0003609B801CE010E94070985E090E09F83CE
:1012B0008E83DF91CF911F910F910895FC01808162
:1012C0009181009711F00C943A140895EF92FF92D7
:1012D0000F931F93CF93DF9300D000D000D0CDB7F2
:1012E000DEB77A01FC0102811381CE0101960E94D2
:1012F0001E09A701BE016F5F7F4FC8010E94270929
:10130000CE0101960E945E0926960FB6F894DEBFC4
:101310000FBECDBFDF91CF911F910F91FF90EF9046
:101320000895EF92FF920F931F93CF93DF9300D016
:1013300000D000D0CDB7DEB77A01FC010081118169
:10134000CE0101960E941E09A701BE016F5F7F4F6B
:10135000C8010E942709CE0101960E945E092696C7
:101360000FB6F894DEBF0FBECDBFDF91CF911F91B6
:101370000F91FF90EF9008955F926F927F928F92FE
:101380009F92AF92BF92CF92DF92EF92FF920F9314
:101390001F93CF93DF93CDB7DEB7A2970FB6F89424
:1013A000DEBF0FBECDBF7C015B01542E3C0125E6A4
:1013B000620E711CD3010C9186E0EFE0F1E0DE01DA
:1013C000519601900D928A95E1F7F701E359FF4F8D
:1013D000108186E0FE017196D7011C9601900D9256
:1013E0008A95E1F76701B4E0CB0ED11C412F50E0A4
:1013F000B7016A597F4FC6010E948D15F701138707
:1014000080E483A381E084A380E685A306A3D701BB
:1014100097963C9686E001900D928A95E1F7F60149
:1014200080E0181721F0919190A78F5FFACF4701C4
:10143000F3E68F0E911CD4018D919C916701B3E26C
:10144000CB0ED11C4AE0410FDC01ED91FC910480F0
:10145000F581E02D00E030E020E0B6010995811132
:1014600017C0F40180819181DC01ED91FC9106802F
:10147000F781E02D28EE33E040E4B6010995F7014D
:1014800083A1882309F48AC086E991E00E946B0653
:1014900063ED71E0CE0147960E9436098B8C9C8CDF
:1014A000CC24C394D12C8114910429F4D12CC12CC7
:1014B00088248394912C69E771E0CE014D960E94B7
:1014C00036090B8D1C8DC016D10620F580169106AD
:1014D00008F48401EF89F88DE00FF11F90801082ED
:1014E0006F89788D6C0D7D1D6115710509F4B1C092
:1014F000FB0101900020E9F73197AF01461B570B24
:10150000CE014D960E94E6088F89988D080F191F0D
:10151000D8019C92CE0147960E945E09B2E0AB16BC
:10152000B10409F09BC0C7018E579F4F0E942F0640
:1015300001E010E0009731F005E010E0019711F4B0
:1015400002E010E0BE01635E7F4FCE0101960E9473
:101550001E09A801BE016F5F7F4FC7010E94660987
:10156000CE0101960E945E09CE014D960E945E0951
:10157000A2960FB6F894DEBF0FBECDBFDF91CF911C
:101580001F910F91FF90EF90DF90CF90BF90AF90A1
:101590009F908F907F906F905F900895D3011C91E2
:1015A0008FEA91E00E946B0680E20E94DD01612FCC
:1015B00070E090E080E04AE00E94700680E4F7016D
:1015C00083A381E084A380E385A316A3D4018D9136
:1015D0009C91DC01ED91FC910480F581E02D00E00F
:1015E00030E020E044E0B601099581112BC0F40100
:1015F00080819181DC01ED91FC910680F781E02DE5
:1016000028EE33E040E4B6010995F70183A181118A
:1016100019C080E1B496DE01119601900D928A9571
:10162000E1F785ED91E00E946B06BE016F5F7F4F91
:101630008DEA93E00E9456060E94CF06BE016F5FBE
:101640007F4F28CF86EE91E00E946B0664E072E047
:1016500021CFCE014D960E94D40856CF5520D9F106
:10166000F70100811181B801CE0101960E941E0987
:10167000D80116968D919C9198878F83BE016F5FDC
:101680007F4FCE0147960E941E0986E092E00E949D
:101690006B064B8D5C8D6F89788D8DEA93E00E948F
:1016A0009E000E94CF06BE01695E7F4FCE0141962B
:1016B0000E941E0945E050E0BE016F5E7F4FC701EA
:1016C0000E949109CE0141960E945E09CE01479683
:1016D0000E945E0945CFC70184589F4F0E942F0684
:1016E00004E010E0009779F003E010E0019759F072
:1016F000C70189589F4F0E94F00505E010E0892B33
:1017000011F401E010E0BE01635E7F4FCE0101964F
:101710000E941E09A801BE016F5F7F4FC7010E9492
:1017200091091ECF5F926F927F928F929F92AF929C
:10173000BF92CF92DF92EF92FF920F931F93CF93BE
:10174000DF93CDB7DEB72C970FB6F894DEBF0FBE90
:10175000CDBF7C016B01842EB22E532EFB01808104
:10176000F70184838281938121E02093490324E25D
:1017700020934803109259031092580360E00E948E
:10178000270360E0F701828193810E9427036FEFB6
:10179000F701828193810E942703182D100F61E0C9
:1017A000610FF701828193810E942703612F609569
:1017B000F701828193810E94270364EDF701828102
:1017C00093810E94270381E192E00E946B068C0CBA
:1017D0009D2C911C14EDF701828193818C149D0442
:1017E00049F5CB2CD52C5601A00EB11CF7018281F6
:1017F0009381CA14DB0409F455C04601F6016081E7
:101800000E942703882399F1F60181916F01180F37
:1018100080E20E94DD01F401808182958F7090E06A
:101820000E94F706F601319780818F7090E00E9448
:10183000F706DCCF3601F60160810E94270388237A
:10184000B1F0F60181916F01180F80E20E94DD0175
:10185000F301808182958F7090E00E94F706F60177
:10186000319780818F7090E00E94F706B4CF89E1B4
:1018700092E00E946B068DEF2C960FB6F894DEBFB7
:101880000FBECDBFDF91CF911F910F91FF90EF90D1
:10189000DF90CF90BF90AF909F908F907F906F9090
:1018A0005F900895612F61950E94270360E0F70122
:1018B000828193810E942703F701828193810E9494
:1018C00006058AE00E94DD0186E0EBE1F1E0DE0141
:1018D000179601900D928A95E1F788E592E00E94B3
:1018E0006B062FB7F89460914B0370914C03809175
:1018F0004D0390914E032FBF4AE00E9470068AE08C
:101900000E94DD010BE010E067E084E20E94B20378
:1019100010925B0380935A0381110FC061E070E065
:1019200080E090E00E94ED020150110969F78BE61A
:1019300092E00E946B068EEF9FCFF7018281938128
:101940000E941F0380FFEACF8AE892E00E946B06A4
:101950002FB7F89460914B0370914C0380914D0325
:1019600090914E032FBF4AE00E9470068AE00E94C9
:10197000DD018E010F5F1F4F6E01F7E0CF0ED11C0E
:101980005801F701828193810E941F03F80181931E
:101990008F01CE16DF06A9F746E050E0B601C5017B
:1019A0000E948015892B31F086E992E00E946B0637
:1019B0008FEF62CF80E060CF85ED8093BC00809197
:1019C000A9039091AA03A091AB03B091AC03079631
:1019D000A11DB11D23E0B695A795979587952A95EA
:1019E000D1F72091BC0024FD03C01092A7030895F5
:1019F0004091A9035091AA036091AB037091AC038D
:101A0000452B462B472B69F30097A105B10541F003
:101A100025E32A95F1F700000197A109B109E1CF6B
:101A20008091A8030C9491031F920F920FB60F920E
:101A300011242F933F934F935F936F937F938F93D3
:101A40009F93AF93BF93EF93FF938DEA93E00E9430
:101A50005301FF91EF91BF91AF919F918F917F9132
:101A60006F915F914F913F912F910F900FBE0F900B
:101A70001F9018951F920F920FB60F9211242F935B
:101A80008F939F93EF93FF93E091BD03F091BE037B
:101A90008081E091C303F091C40382FD1BC090815B
:101AA0008091C6038F5F8F732091C703821741F027
:101AB000E091C603F0E0E355FC4F958F8093C60399
:101AC000FF91EF919F918F912F910F900FBE0F90EB
:101AD0001F9018958081F4CF1F920F920FB60F922E
:101AE00011242F933F938F939F93AF93BF93809134
:101AF0004B0390914C03A0914D03B0914E03309154
:101B00004A0323E0230F2D3758F50196A11DB11D7F
:101B100020934A0380934B0390934C03A0934D036F
:101B2000B0934E0380914F0390915003A0915103C5
:101B3000B09152030196A11DB11D80934F03909364
:101B40005003A0935103B0935203BF91AF919F9163
:101B50008F913F912F910F900FBE0F901F9018956E
:101B600026E8230F0296A11DB11DD2CF1F920F921E
:101B70000FB60F9211242F933F934F935F936F9360
:101B80007F938F939F93AF93BF93EF93FF93809136
:101B9000B900887F803609F44AC0F0F5883209F42C
:101BA000A7C018F5803109F49BC0B8F4882309F464
:101BB000F9C0883009F494C0FF91EF91BF91AF91C3
:101BC0009F918F917F916F915F914F913F912F9155
:101BD0000F900FBE0F901F901895883109F488C0A0
:101BE000803251F78093850314C0803409F49DC07E
:101BF00040F48033B9F38833F9F68093850385EC9C
:101C0000B0C0803509F485C0883509F496C08834A1
:101C100099F60E94DC0CD0CF883909F48CC038F5D5
:101C2000883729F050F4883611F0803729F683E0A0
:101C30008093A7031092470357C0883809F47BC0EC
:101C4000803919F0803809F0B7CF8091470380328E
:101C500008F071C0E091470381E08E0F8093470345
:101C60008091BB00F0E0E95DFC4F80833DC0803B8C
:101C700039F0E0F4803A09F479C0883A09F09CCF51
:101C800084E08093A7031092260310922503E0912D
:101C90005603F091570309958091250381110FC0D8
:101CA00081E0809325031092050309C0803C09F46C
:101CB000A6CF883C09F4A3CF883B09F07DCFE09103
:101CC000260381E08E0F80932603F0E0EB5FFC4F4C
:101CD00080818093BB00909126038091250329C0C9
:101CE000809182038093BB0085EC8093BC0064CF1D
:101CF0009091840380918303981758F5E0918403B1
:101D000081E08E0F80938403F0E0EF59FC4F8081D7
:101D1000E9CFE091840381E08E0F8093840380916A
:101D2000BB00F0E0EF59FC4F8083909184038091D9
:101D300083039817C8F285E8D8CFE091840381E047
:101D40008E0F809384038091BB00F0E0EF59FC4F2D
:101D500080838091860381115CCF81E08093810331
:101D600084EA8093BC001092A70326CF85EC809371
:101D7000BC001092A70380914703803230F4E091B9
:101D80004703F0E0E95DFC4F10826091470370E08B
:101D9000E0915403F091550387E293E00995109286
:101DA00047030ACF1092850334CFDC01A259BF4FFD
:101DB00026E0EFE0F1E001900D922A95E1F7FC01B9
:101DC000EC58FF4F21E0208333962FE331E031833D
:101DD0002083359627E331E0318320838E579F4F50
:101DE000FC01318320830895EF92FF921F93CF93DC
:101DF000DF93EDEAF3E01382128288EE93E0A0E035
:101E0000B0E084839583A683B78327E431E03183F0
:101E1000208325EC30E03587248724EC30E03787B9
:101E2000268720EC30E0318B208B21EC30E0338BA7
:101E3000228B22EC30E0358B248B26EC30E0378B84
:101E4000268B118E128E138E148ECBEAD4E01B8259
:101E50001A828C839D83AE83BF8389E591E0998349
:101E600088838CECE82E84E0F82E84E0F7018083F0
:101E700011E0128382E1E1E2F1E0AFECB4E0019025
:101E80000D928A95E1F781EE94E00E94D50E89E6E5
:101E900095E00E94D50E81EF95E00E94D50EF701E6
:101EA00011831093CB04ECEBF4E011821687E7EB7F
:101EB000F4E08BE691E091838083D383C283148224
:101EC000F093AA04E093A904DF91CF911F91FF90B2
:101ED000EF900895CF93DF93CDB7DEB7C05ED10901
:101EE0000FB6F894DEBF0FBECDBF789484B5826084
:101EF00084BD84B5816084BD85B5826085BD85B5AE
:101F0000816085BD80916E00816080936E0010922B
:101F100081008091810082608093810080918100A6
:101F20008160809381008091800081608093800037
:101F30008091B10084608093B1008091B000816095
:101F40008093B00080917A00846080937A008091C1
:101F50007A00826080937A0080917A008160809319
:101F60007A0080917A00806880937A001092C10094
:101F7000E091BD03F091BE0382E08083E091B9035C
:101F8000F091BA031082E091BB03F091BC038FEC97
:101F900080831092C503E091C103F091C20386E0F3
:101FA0008083E091BF03F091C003808180618083D2
:101FB000E091BF03F091C003808188608083E0914D
:101FC000BF03F091C003808180688083E091BF03EC
:101FD000F091C00380818F7D80831FB7F89480913A
:101FE0005303811127C0E8EBF0E08491E4EAF0E0CC
:101FF0009491E82FF0E0EE0FFF1FE057FF4FA591FF
:10200000B491EC91E92321F461E08AE00E9454024A
:1020100061E08AE00E9482028CB580618CBD8CB543
:1020200080648CBD61E08DE00E94820261E08BE003
:102030000E948202809153038F5F809353031FBFDE
:102040008091A9049091AA04DC01ED91FC9101908A
:10205000F081E02D09958091A9049091AA04DC01FA
:10206000ED91FC910280F381E02D099594E190932C
:10207000690481E080936A0490936B0480936C04FC
:1020800083EA92E00E946B068091A9049091AA04D1
:10209000DC01ED91FC910480F581E02D00E030E061
:1020A00020E044E069E674E00995811110C0809158
:1020B000A9049091AA04DC01ED91FC910680F781BE
:1020C000E02D28EE33E040E469E674E0099582E310
:1020D0008093690485E080936A049EEF90936B047B
:1020E00091E090936C0480936D048091A904909189
:1020F000AA04DC01ED91FC910480F581E02D00E063
:1021000030E020E045E069E674E00995811110C0F7
:102110008091A9049091AA04DC01ED91FC910680C4
:10212000F781E02D28EE33E040E469E674E009959C
:1021300010925B0310925A031092590310925803A5
:102140000E945C038CEC90E09093570380935603BD
:1021500088ED90E0909355038093540386E180933B
:10216000BA0088E496E090935D0380935C0382EB71
:1021700096E090935F0380935E0381E6EAE4F4E0E7
:10218000DE01AE59BF4F01900D928A95E1F7E090C4
:102190000201D0900501F09008019091CC0481E6F5
:1021A000FE01EE59FF4FDE01119601900D928A95C6
:1021B000E1F781E6FE013196A5EFB5E001900D92C1
:1021C0008A95E1F79093560602E010E010936706B7
:1021D0000093660660E08F2D0E948202F0926A06EC
:1021E00081E090E090936C0680936B06D0926F062E
:1021F000109371060093700610927206E0927506B5
:1022000010937706009376061092780669E771E0DE
:10221000CE0185539F4F0E9436097E01B3ECEB0E31
:10222000F11CBE0165537F4FC7010E944709F09220
:10223000F205E092F105C7010E945E09CE018553C7
:102240009F4F0E945E0969E771E0CE0185539F4F61
:102250000E943609BE0165537F4FC7010E9447099E
:10226000F092F405E092F305C7010E945E09CE01E9
:1022700085539F4F0E945E096AE070E080E090E025
:102280000E94ED026EEA72E08DEA93E00E9456062B
:102290000E94CF060E94CF0640E0842E40E0942E9C
:1022A0003AE4632E7724739423E0A22EB12C6AEFD4
:1022B00070E080E090E00E94ED0288E696E00E94E7
:1022C000FB05D12CC12C81110EC08DE696E00E9439
:1022D0000E06CC24C394D12C811105C0B1E0AB1AF9
:1022E000B10829F78BC164E670E080E090E00E94BD
:1022F000ED026092140670921506109216068091F7
:10230000540690915506DC01ED91FC910480F58115
:10231000E02D00E030E020E043E064E176E0099564
:10232000811163C18091540690915506DC01ED91B5
:10233000FC910680F781E02D28EE33E040E464E173
:1023400076E0099597FD51C180911406813009F01E
:102350004CC100911606109117061027012710276F
:1023600086EC92E00E946B0680E20E94DD01B801DB
:1023700084E0769567958A95E1F76F70772790E00E
:1023800080E040E10E9470060F701127B80190E0D4
:1023900080E040E10E9470068FEC92E00E946B06A4
:1023A00080E20E94DD018091180682958F7090E096
:1023B0000E94F706809118068F7090E00E94F70641
:1023C00088E791E00E946B068091190680935E0673
:1023D00080E090911906891760F4282F30E0F90108
:1023E000EB50FA4F95A1295A394FF90190838F5F2D
:1023F000F0CF40E0B60181EF95E00E94BC0940E0DB
:10240000B60181EF95E00E94BC0969E771E0CE0159
:1024100085529F4F0E9436090091F1051091F205F7
:10242000B801CE018D529F4F0E941E09F80186818E
:102430009781C752DF4F99838883C95DD04000914F
:10244000F3051091F405B801CE0185539F4F0E940A
:102450001E09D80116968D919C91CF52DF4F99831A
:102460008883C15DD0400091F1051091F205B8015B
:10247000C7010E941E09F80186819781D70117962E
:102480009C938E93169702E010E0059711F001E0FF
:1024900010E0C7010E945E09B801CE0185529F4F2E
:1024A0000E94A4086091660670916706CE0185526D
:1024B0009F4F0E94A408BE016D527F4FC7010E942A
:1024C0001E09D70114964D915C9115976D917C91E1
:1024D000CE0185529F4F0E947808C7010E945E0975
:1024E000C752DF4F68817981C95DD040CE018552E6
:1024F0009F4F0E94A408C152DF4F88819981CF5D10
:10250000D0400B9758F586ED90E00E94C201C15271
:10251000DF4F88819981CF5DD040029748F0C55246
:10252000DF4FE881F981CB5DD040309709F05FC083
:1025300010926003E0E6F3E080810E94DD0182EC0E
:1025400090E00E94C2010E94CF0650E040E069E79F
:1025500071E0CE0185529F4F0E94E608CE0185535F
:102560009F4F0E945E09CE018D529F4F0E945E09CF
:10257000C152DF4F88819981CF5DD040892BC9F14D
:10258000C552DF4FE881F981CB5DD040808188233F
:1025900081F1BE0165527F4FC7010E941E09C7012C
:1025A0000E94D706C7010E945E090E94CF0687EDF0
:1025B00092E00E946B06C152DF4F48815981CF5D86
:1025C000D040C552DF4F68817981CB5DD0408DEA24
:1025D00093E00E949E000E94CF060E94CF06CE018B
:1025E00085529F4F0E945E0979CE41E009CF319616
:1025F000A3CFCE0185529F4F0E945E0981149104A2
:1026000009F452CE0E943F01882309F44BCE0E9468
:10261000000046CEBB274A3031F4992322F4BDE2B4
:10262000909581959F4F0C941613BB27FB0155275E
:10263000AA27880F991FAA1FA41710F0A41B83951F
:102640005051B9F7A05DAA3308F0A95DA193009796
:1026500079F7B111B1931192CB010C942F13DC01D6
:10266000FC01672F71917723E1F7329704C07C91C9
:102670006D9370836291AE17BF07C8F308952F92D0
:102680003F924F925F926F927F928F929F92AF9202
:10269000BF92CF92DF92EF92FF920F931F93CF934F
:1026A000DF93CDB7DEB7CA1BDB0B0FB6F894DEBFE6
:1026B0000FBECDBF09942A88398848885F846E840C
:1026C0007D848C849B84AA84B984C884DF80EE8056
:1026D000FD800C811B81AA81B981CE0FD11D0FB65F
:1026E000F894DEBF0FBECDBFED010895A1E21A2E12
:1026F000AA1BBB1BFD010DC0AA1FBB1FEE1FFF1FA6
:10270000A217B307E407F50720F0A21BB30BE40BF5
:10271000F50B661F771F881F991F1A9469F760953C
:102720007095809590959B01AC01BD01CF010895F6
:10273000EE0FFF1F0590F491E02D09940F931F9366
:10274000CF93DF938230910510F482E090E0E09126
:102750007B06F0917C0630E020E0B0E0A0E030970E
:1027600099F42115310509F44AC0281B390B24308E
:102770003105D8F58A819B816115710589F1FB01CD
:1027800093838283FE0111C04081518102811381B4
:1027900048175907E0F04817590799F4109761F066
:1027A00012960C93129713961C933296CF01DF91D9
:1027B000CF911F910F91089500937B0610937C0693
:1027C000F4CF2115310551F04217530738F0A90114
:1027D000DB019A01BD01DF01F801C1CFEF01F9CFA3
:1027E00090937C0680937B06CDCFFE01E20FF31F12
:1027F000819391932250310939832883D7CF209137
:10280000790630917A06232B41F420910B01309107
:102810000C0130937A0620937906209109013091BA
:102820000A012115310541F42DB73EB740910D0144
:1028300050910E01241B350BE0917906F0917A0638
:10284000E217F307A0F42E1B3F0B2817390778F087
:10285000AC014E5F5F4F2417350748F04E0F5F1FE6
:1028600050937A0640937906819391939FCFF0E03D
:10287000E0E09CCFCF93DF930097E9F0FC01329723
:1028800013821282A0917B06B0917C06ED0130E0AC
:1028900020E01097A1F420813181820F931F2091B5
:1028A000790630917A062817390709F061C0F0934C
:1028B0007A06E0937906DF91CF910895EA01CE1769
:1028C000DF07E8F54A815B819E0141155105B1F7AB
:1028D000E901FB83EA8349915991C40FD51FEC1795
:1028E000FD0761F4808191810296840F951FE901B3
:1028F00099838883828193819B838A83F0E0E0E0DF
:1029000012968D919C9113970097B9F52D913C915A
:102910001197CD010296820F931F20917906309175
:102920007A062817390739F6309751F510927C0648
:1029300010927B06B0937A06A0937906BCCFD3831E
:10294000C28340815181840F951FC817D90761F454
:102950004E5F5F4F88819981480F591F5183408393
:102960008A819B81938382832115310509F0B0CF41
:10297000F0937C06E0937B069ECFFD01DC01C0CF87
:1029800013821282D7CFB0E0A0E0E9ECF4E10C941E
:1029900041138C01009751F4CB010E949E138C01CE
:1029A000C801CDB7DEB7E0E10C945D13FC01E60F82
:1029B000F71F9C0122503109E217F30708F49DC06C
:1029C000D901CD91DC911197C617D70798F0C53082
:1029D000D10530F3CE0104978617970708F3C61B7D
:1029E000D70B2297C193D1936D937C93CF010E9413
:1029F0003A14D6CF5B01AC1ABD0A4C018C0E9D1E59
:102A0000A0917B06B0917C06512C412CF12CE12C3D
:102A1000109731F58091790690917A06881599057D
:102A200009F05CC04616570608F058C080910901AD
:102A300090910A01009741F48DB79EB740910D0126
:102A400050910E01841B950BE817F90708F055C04B
:102A5000F0937A06E0937906F90171836083A0CF41
:102A60008D919C91119712966C90129713967C9071
:102A70001397A815B90559F56C0142E0C40ED11C95
:102A8000CA14DB0420F1AC014A195B09DA01129681
:102A9000159780F06282738251834083D9016D93D0
:102AA0007C93E114F10471F0D7011396FC93EE933B
:102AB000129776CF22968C0F9D1FF9019183808308
:102AC000F301EFCFF0937C06E0937B0669CF4816C5
:102AD000590608F42C017D01D3019ACFCB010E9445
:102AE0009E137C01009749F0AE01B8010E948D153C
:102AF000C8010E943A14870153CF10E000E050CF84
:102B0000FB01DC0104C08D910190801921F441503A
:102B10005040C8F7881B990B0895FB01DC0102C0E7
:102B200001900D9241505040D8F70895FB01DC010F
:102B300001900D920020E1F70895FB01DC01415066
:102B4000504048F001900D920020C9F701C01D923D
:102B500041505040E0F70895F894FFCF1213140E3F
:102B60000F1005060700007D068000FFFFFFFFFF36
:102B7000FF0000FFFF00000000FF00FF0001000653
:102B8000000600060007000200050006000900001C
:102B90000000000E062F0600000000FB05F00500F7
:102BA00000000075019E000201E2013301110125C0
:102BB0000100000000D704AA04ED05CB00A3049097
:102BC000048104000000007A032F03920BFE0630FC
:102BD0003537000D0A00726561643A202000636891
:102BE00065636B73756D206973206E6F74206F6BF6
:102BF0000A0041757468656E746966696361746919
:102C00006F6E206661696C65640A00547279696E42
:102C10006720746F20726561642031362062797498
:102C200065732066726F6D20626C6F636B2000337A
:102C30000052656164696E6720426C6F636B20347B
:102C40003A005B5741524E5D20436F756C64206EB5
:102C50006F74207265616420626C6F636B210A007F
:102C6000340052656D6F76696E673A20007772693D
:102C700074653A20000A546F6F206D616E7920648C
:102C800061746120746F2073656E642C2049324337
:102C900020646F65736E277420737570706F727423
:102CA0002073756368206120626967207061636BBF
:102CB00065740A007761697420666F722061636BC6
:102CC000206174203A200054696D65206F7574206E
:102CD0007768656E2077616974696E6720666F72C8
:102CE0002041434B0A007265616479206174203A87
:102CF0002000496E76616C69642041434B0A0053A1
:102D0000414D436F6E6669670A00496E6974696177
:102D10006C697A6174696F6E20436F6D706C657455
:102D20006500415451413A2030780053414B3A20DC
:102D30003078004576656E7420496E666F3A2000E3
:107E0000112484B714BE81FFF0D085E080938100F7
:107E100082E08093C00088E18093C10086E0809377
:107E2000C20080E18093C4008EE0C9D0259A86E02C
:107E300020E33CEF91E0309385002093840096BBD3
:107E4000B09BFECF1D9AA8958150A9F7CC24DD24C4
:107E500088248394B5E0AB2EA1E19A2EF3E0BF2EE7
:107E6000A2D0813461F49FD0082FAFD0023811F036
:107E7000013811F484E001C083E08DD089C08234E0
:107E800011F484E103C0853419F485E0A6D080C0E4
:107E9000853579F488D0E82EFF2485D0082F10E0AE
:107EA000102F00270E291F29000F111F8ED06801E7
:107EB0006FC0863521F484E090D080E0DECF843638
:107EC00009F040C070D06FD0082F6DD080E0C81688
:107ED00080E7D80618F4F601B7BEE895C0E0D1E017
:107EE00062D089930C17E1F7F0E0CF16F0E7DF06D8
:107EF00018F0F601B7BEE89568D007B600FCFDCFD4
:107F0000A601A0E0B1E02C9130E011968C91119780
:107F100090E0982F8827822B932B1296FA010C0160
:107F200087BEE89511244E5F5F4FF1E0A038BF0790
:107F300051F7F601A7BEE89507B600FCFDCF97BE46
:107F4000E89526C08437B1F42ED02DD0F82E2BD052
:107F50003CD0F601EF2C8F010F5F1F4F84911BD097
:107F6000EA94F801C1F70894C11CD11CFA94CF0C13
:107F7000D11C0EC0853739F428D08EE10CD085E9AC
:107F80000AD08FE07ACF813511F488E018D01DD067
:107F900080E101D065CF982F8091C00085FFFCCF94
:107FA0009093C60008958091C00087FFFCCF809118
:107FB000C00084FD01C0A8958091C6000895E0E648
:107FC000F0E098E1908380830895EDDF803219F02E
:107FD00088E0F5DFFFCF84E1DECF1F93182FE3DFCA
:107FE0001150E9F7F2DF1F91089580E0E8DFEE27F6
:047FF000FF270994CA
:027FFE00040479
:00000001FF
