:100000000C9475000C949D000C949D000C949D0024
:100010000C949D000C949D000C949D000C949D00EC
:100020000C949D000C949D000C949D000C949D00DC
:100030000C949D000C949D000C949D000C949D00CC
:100040000C94890A0C949D000C94570A0C94310A64
:100050000C949D000C949D000C949D000C949D00AC
:100060000C94D30A0C949D0000000000240027008B
:100070002A0000000000250028002B0000000000DE
:1000800023002600290004040404040404040202DA
:100090000202020203030303030301020408102007
:1000A0004080010204081020010204081020000012
:1000B0000008000201000003040700000000000027
:1000C0000000206861642061206D616C66756E635C
:1000D00074696F6E21005B4552524F525D205A6F1A
:1000E0006E653A200000230CF91311241FBECFEFD8
:1000F000D8E0DEBFCDBF26E0A2E7B2E001C01D928E
:10010000AF34B207E1F712E0A0E0B1E0E0EDFDE2CC
:1001100002C005900D92A237B107D9F710E0C4E7ED
:10012000D0E004C02197FE010E94C714C337D10755
:10013000C9F70E94960C0C94DB160C940000E09119
:10014000C102F091C202309729F010923703109249
:10015000360309940895CF93DF93EC01E091BF0239
:10016000F091C0023097F1F09091390380913803FB
:100170009817C0F090E0292F30E02617370754F485
:10018000DE01A20FB31F4C912C533D4FD9014C936C
:100190009F5FF1CF1092390360933803CB01DF9159
:1001A000CF910994DF91CF91089580E480937C00F2
:1001B00080917A00806480937A0080917A0086FD35
:1001C000FCCF80917800909179000895AF92BF9212
:1001D000CF92DF92EF92FF920F931F93CF93DF9313
:1001E0006C017B018B01040F151FEB015E01AE1842
:1001F000BF08C017D10759F06991D601ED91FC9164
:100200000190F081E02DC6010995892B79F7C50190
:10021000DF91CF911F910F91FF90EF90DF90CF90E2
:10022000BF90AF9008950895FC01538D448D252F04
:1002300030E0842F90E0821B930B541710F0CF9680
:10024000089501970895FC01918D828D981761F0B2
:10025000A28DAE0FBF2FB11D5D968C91928D9F5FC9
:100260009F73928F90E008958FEF9FEF0895FC01A8
:10027000918D828D981731F0828DE80FF11D858D5B
:1002800090E008958FEF9FEF0895FC01918D228DEE
:10029000892F90E0805C9F4F821B91098F73992773
:1002A00008958AE393E00E94450121E0892B09F437
:1002B00020E0822F089580E090E0892B29F00E94B1
:1002C000510181110C9400000895FC01A48DA80F28
:1002D000B92FB11DA35ABF4F2C91848D90E0019688
:1002E0008F739927848FA689B7892C93A089B189A8
:1002F0008C91837080648C93938D848D981306C049
:100300000288F389E02D80818F7D80830895EF92AC
:10031000FF920F931F93CF93DF93EC0181E0888FBF
:100320009B8D8C8D98131AC0E889F989808185FF8F
:1003300015C09FB7F894EE89FF896083E889F98931
:1003400080818370806480839FBF81E090E0DF9133
:10035000CF911F910F91FF90EF900895F62E0B8D86
:1003600010E00F5F1F4F0F731127E02E8C8D8E1141
:100370000CC00FB607FCFACFE889F989808185FFA8
:10038000F5CFCE010E946501F1CFEB8DEC0FFD2F73
:10039000F11DE35AFF4FF0829FB7F8940B8FEA8963
:1003A000FB8980818062CFCF0F931F93CF93DF9320
:1003B0008C01D0E0C0E0F801EC0FFD1F64916623D2
:1003C00041F08AE393E00E948701892B11F0219686
:1003D000F2CFCE01DF91CF911F910F910895CF936E
:1003E000DF93EC01888D8823B9F0AA89BB89E8895D
:1003F000F9898C9185FD03C0808186FD0DC00FB603
:1004000007FCF7CF8C9185FFF2CF808185FFEDCF80
:10041000CE010E946501E9CFDF91CF91089583302D
:1004200081F028F4813099F08230A9F00895873066
:10043000A9F08830C9F08430B1F4809180008F7DBC
:1004400003C0809180008F7780938000089584B5E9
:100450008F7784BD089584B58F7DFBCF8091B000E8
:100460008F778093B00008958091B0008F7DF9CF91
:100470001F93CF93DF93282F30E0F901E255FF4F10
:100480008491F901E656FF4FD491F901EA57FF4FE5
:10049000C491CC23A9F0162F81110E940F02EC2FDA
:1004A000F0E0EE0FFF1FEE58FF4FA591B4918FB70C
:1004B000F894EC91111108C0D095DE23DC938FBF26
:1004C000DF91CF911F910895DE2BF8CFCF93DF936B
:1004D00090E0FC01E656FF4F24918A579F4FFC01A4
:1004E00084918823D1F090E0880F991FFC01E8598E
:1004F000FF4FA591B491FC01EE58FF4FC591D491E7
:1005000061110EC09FB7F8948C91E22FE0958E2375
:100510008C932881E223E8839FBFDF91CF910895D8
:100520008FB7F894EC91E22BEC938FBFF6CF3FB7E7
:10053000F8948091BB029091BC02A091BD02B09151
:10054000BE0226B5A89B05C02F3F19F00196A11D3C
:10055000B11D3FBFBA2FA92F982F8827BC01CD010D
:10056000620F711D811D911D42E0660F771F881F6C
:10057000991F4A95D1F708958F929F92AF92BF929B
:10058000CF92DF92EF92FF924B015C010E949702A3
:100590006B017C010E9497026C197D098E099F09ED
:1005A000683E734081059105A8F321E0821A910805
:1005B000A108B10888EEC80E83E0D81EE11CF11C2A
:1005C00081149104A104B10429F7FF90EF90DF900A
:1005D000CF90BF90AF909F908F900895DC01ED91E8
:1005E000FC910284F385E02D09950895DC01ED91DD
:1005F000FC910190F081E02D0995089564EF71E080
:1006000080E090E00C94BC0220919302260F3327E7
:10061000331F21323105ECF420910A03FC0190E0F4
:1006200080E0243069F082E00895A0919302219146
:10063000AC014D585D4FA40FB52FB11D2C93019601
:10064000861798F380919302680F6093930280E07D
:10065000089581E0089510920A0381E080930903D0
:100660001092E40261E082E10E94380261E083E1DD
:100670000E943802E9EBF0E080818E7F80838081E8
:100680008D7F808388E48093B80085E48093BC00EC
:100690000895109239031092380310923703109284
:1006A00036030E942B038FE990E0909335038093EB
:1006B00034038BEA90E090933303809332030895E0
:1006C0000C944903CF93DF9391E0909372028823B7
:1006D000B9F0C091B800D091BA008091BC008A7B7B
:1006E0008093BC0060E082E10E94380260E083E118
:1006F0000E9438020E942B03D093BA00C093B80026
:10070000DF91CF9108958F929F92AF92BF92CF9237
:10071000DF92EF92FF920F931F93CF93DF93D091CD
:100720003603D13208F0D7C0182FC09131030E9490
:1007300097026B017C0180910A0381116BC082E0FA
:1007400080930A03109309038FEF8093080310929C
:100750000703D0930603A1E1B3E0E6EEF2E080E008
:10076000D81391C01092E5028091E502CC0FC82BFE
:10077000C093E5028091E402813009F088C01092B4
:10078000E4020E9497026B017C018091E502809354
:10079000BB0080910C0390910D03A0910E03B091CA
:1007A0000F03892B8A2B8B2BA1F00E9497020091BB
:1007B0000C0310910D0320910E0330910F036C195F
:1007C0007D098E099F09061717072807390708F4BE
:1007D00042C08091BC0083FDD8CF85EC8093BC00E3
:1007E0000E9497026B017C0180910A03823009F418
:1007F00050C0809108038F3F09F46FC080910803B7
:10080000803209F46CC080910803803309F469C018
:1008100084E026C080910C0390910D03A0910E03FB
:10082000B0910F03892B8A2B8B2B09F484CF0E9464
:10083000970280900C0390900D03A0900E03B0904F
:100840000F036C197D098E099F0986169706A80665
:10085000B90608F070CF80910B030E94620385E017
:10086000109237031092360310921003DF91CF914C
:100870001F910F91FF90EF90DF90CF90BF90AF90BE
:100880009F908F9008959D9191938F5F69CF85EE92
:10089000A5CF80910C0390910D03A0910E03B09110
:1008A0000F03892B8A2B8B2B09F49ECF0E94970272
:1008B00000910C0310910D0320910E0330910F0352
:1008C0006C197D098E099F09061717072807390734
:1008D00008F08ACFC0CF81E0C3CF80E0C1CF82E0F3
:1008E000BFCF83E0BDCFCF92DF92EF92FF920F9305
:1008F0001F93CF93DF93D82FC62F613208F098C093
:100900000E9497026B017C0180910A0381116BC0E8
:1009100081E080930A03809309039FEF909308037B
:10092000109207039C0F909306038093E502809139
:10093000E502DD0FD82BD093E5028091E4028130EF
:1009400009F078C01092E4020E9497026B017C01CA
:100950008091E5028093BB0080910C0390910D0380
:10096000A0910E03B0910F03892B8A2B8B2BA1F042
:100970000E94970200910C0310910D0320910E0329
:1009800030910F036C197D098E099F09061717070F
:100990002807390708F448C08091BC0083FDD8CFF0
:1009A00085EC8093BC000E9497026B017C018091D2
:1009B0000A03813009F440C0809107038C1710F4BA
:1009C000C0910703E6EEF2E0A4ECB2E080E08C1305
:1009D00055C08C2FDF91CF911F910F91FF90EF9019
:1009E000DF90CF90089580910C0390910D03A0911A
:1009F0000E03B0910F03892B8A2B8B2B09F484CF24
:100A00000E94970200910C0310910D0320910E0398
:100A100030910F036C197D098E099F09061717077E
:100A20002807390708F070CF80910B030E946203FA
:100A3000C0E0CFCF85EEB5CF80910C0390910D0330
:100A4000A0910E03B0910F03892B8A2B8B2B09F4F5
:100A5000AECF0E94970200910C0310910D032091DC
:100A60000E0330910F036C197D098E099F0906173B
:100A700017072807390708F09ACFD6CF91919D9391
:100A80008F5FA5CFE091390380913803E81730F4E8
:100A9000F0E0EC53FD4F808190E008958FEF9FEFE1
:100AA000089590913903809138032FEF3FEF981705
:100AB00048F4E92FF0E0EC53FD4F208130E09F5FD8
:100AC00090933903C90108958091380390913903B7
:100AD000891B990B0895CF92DF92EF92FF920F93AB
:100AE0001F93CF93DF937C01CB018A0120911003E8
:100AF000222389F0EB016B01C40ED51ECC15DD0558
:100B000069F06991D701ED91FC910190F081E02DA0
:100B1000C7010995F3CF642F0E940403C801DF9138
:100B2000CF911F910F91FF90EF90DF90CF9008959C
:100B3000CF93DF931F92CDB7DEB769832091100367
:100B40002223F9F020913603203258F021E030E0E2
:100B5000FC013383228390E080E00F90DF91CF91FE
:100B6000089580913703E82FF0E0EF5EFC4F998104
:100B700090838F5F809337038093360381E090E00A
:100B8000ECCF61E0CE0101960E940403F7CF909173
:100B9000490421E02093100390933103109237030E
:100BA0001092360361E070E001C0660F8A95EAF7A3
:100BB00088E394E00E94980581E00C94830390E020
:100BC00080E008959091380380913903981739F0A7
:100BD00088E394E00E94510580933B06F3CF08958B
:100BE0006F927F928F929F92AF92BF92CF92DF923D
:100BF000EF92FF920F931F93CF93DF9300D000D01B
:100C000000D0CDB7DEB78C01B62EA72E742E6901A9
:100C100086E0EFE0F1E0DE01119601900D928A95F9
:100C2000E1F7F12CE12C66E084E20E94730410925B
:100C3000390380933803811112C061E070E080E0D5
:100C400090E00E94BC028FEFE81AF80AC114D104A8
:100C500051F3CE14DF0438F78FEF9FEF10C0F80187
:100C6000828193810E94EE0280FFE7CFF8018281AA
:100C700093810E94EE02882339F18DEF9FEFF12CD2
:100C8000E12C98E0992E980E692DF0E2F91508F400
:100C900060E284E20E947304109239038093380367
:100CA000811147C061E070E080E090E00E94BC02EA
:100CB0008FEFE81AF80AC114D10431F3CE14DF041F
:100CC00018F78FEF9FEF45C0F801828193810E9452
:100CD000EE028111D2CFF801828193810E94EE024F
:100CE0008F3F59F6F801828193810E94EE02682EAF
:100CF00081E08093100384E28093310310923703E4
:100D000010923603CE0101967C014E0197E0890EC8
:100D1000911CF70161917F01F801828193810E940A
:100D2000F602E814F904A9F781E00E948303862DF6
:100D3000A6CFF801828193810E94EE0280FFB2CF9C
:100D4000F801828193810E94EE028823B9F08DEF31
:100D50009FEF26960FB6F894DEBF0FBECDBFDF9192
:100D6000CF911F910F91FF90EF90DF90CF90BF90A8
:100D7000AF909F908F907F906F900895F80182813F
:100D800093810E94EE028111E2CFF801828193816A
:100D90000E94EE028F3FD9F6F801828193810E9472
:100DA000EE02F82EF801828193810E94EE028F0DEF
:100DB00071F6F801E480DD24D394DE0C8281938106
:100DC0000E94EE02853D19F6F801828193810E940E
:100DD000EE02D812BCCFFA94FA948CEF9FEF7F14F6
:100DE00008F4B7CFF6EDEF0E9B2CCB2CDA2CF801E4
:100DF000828193812C2D29192F1538F40E94EE023F
:100E0000F60181936F01E80EF2CF0E94EE028E0D83
:100E100009F09DCFF801828193810E94EE028F2D0F
:100E200090E097CF6115710579F0FB0101900020EA
:100E3000E9F73197AF01461B570BDC01ED91FC91AF
:100E40000280F381E02D099490E080E008958F9274
:100E50009F92AF92BF920F931F93CF93DF93CDB723
:100E6000DEB7A1970FB6F894DEBF0FBECDBF19A2B3
:100E7000423008F44AE08E010F5D1F4F842E912C02
:100E8000B12CA12CA50194010E949114E62FB90167
:100E9000CA01EA30E4F4E05DD801EE938D01232B22
:100EA000242B252B79F7BD018AE393E00E941207DA
:100EB000A1960FB6F894DEBF0FBECDBFDF91CF91E4
:100EC0001F910F91BF90AF909F908F900895E95C14
:100ED000E3CFBC018AE393E00C94120780913B06B8
:100EE000853031F461E971E088E394E00C941207F5
:100EF000843031F460913C0688E394E00C949805CA
:100F0000833041F46DE376E088E394E00E941207B9
:100F100010923C06089542E050E065E971E08AE3F2
:100F200093E00C94E600CF93DF93FC01448155815C
:100F3000608171818AE393E00E94E600EC010E94E7
:100F40008B078C0F9D1FDF91CF910895CF92DF9279
:100F5000EF92FF92CF93DF936C01990FEE08FF0899
:100F6000F7FE1DC06DE28AE393E00E948701EC0169
:100F700066277727CB016C197D098E099F094AE006
:100F80000E942707C80FD91F0E948B078C0F9D1F37
:100F9000DF91CF91FF90EF90DF90CF9008954AE0DE
:100FA000C701B6010E942707EC01EECFCF93DF9374
:100FB00021E020933C06FC01C481D581209729F4CF
:100FC00010923D06DF91CF910895CB30D10510F0FE
:100FD000CBE0D0E0FC0160817181AE018DE396E051
:100FE0000E94CC16C35CD94F1882ECCF0F931F938D
:100FF000CF93DF93EC0188819981009759F02A8182
:101000003B812617370730F081E0DF91CF911F91A8
:101010000F9108958B016F5F7F4F0E94F21500972B
:1010200059F0998388831B830A832C813D81232B6C
:1010300059F7FC011082E8CF80E0E7CFEF92FF92F2
:101040000F931F93CF93DF936115710541F480E0F7
:10105000DF91CF911F910F91FF90EF90089541156F
:101060005105B1F07B01EC010C811D81040F151FAE
:10107000B8010E94F607882351F3288139818C81B9
:101080009D81B701820F931F0E94C5161D830C839B
:1010900081E0DECFEF92FF920F931F93CF93DF9308
:1010A000CDB7DEB728970FB6F894DEBF0FBECDBF21
:1010B0007C01CB014AE08E010F5F1F4FB8010E94F7
:1010C0001114F80101900020E9F73197AF01401B9E
:1010D000510BB801C7010E941E0828960FB6F8945C
:1010E000DEBF0FBECDBFDF91CF911F910F91FF905B
:1010F000EF900895CF93DF93EC0188819981009759
:1011000011F00E946915198218821D821C821B82AF
:101110001A82DF91CF910895EF92FF920F931F9360
:10112000CF93DF93EC017B018A01BA010E94F6079D
:1011300081110BC0CE010E947A08CE01DF91CF91C0
:101140001F910F91FF90EF9008951D830C83B701BD
:10115000888199810E94C516F0CFCF93DF93EC016F
:10116000FB018617970749F0608171816115710550
:1011700041F0448155810E948C08CE01DF91CF91CE
:1011800008950E947A08F9CFFC011182108213821F
:101190001282158214820C94AD080F931F93CF9383
:1011A000DF93EC018A0189579F4F0E94AD08C35716
:1011B000DF4F19830883DF91CF911F910F9108951D
:1011C0000F931F93CF93DF93EC018A0181589F4FB8
:1011D0000E94AD08CB57DF4F19830883DF91CF9171
:1011E0001F910F910895FC011182108213821282C7
:1011F00015821482FB0101900020E9F73197AF01BD
:10120000461B570B0C948C08FC0180819181009740
:1012100011F00C94691508955F926F927F928F92EE
:101220009F92AF92BF92CF92DF92EF92FF920F9375
:101230001F93CF93DF93CDB7DEB72C970FB6F894FB
:10124000DEBF0FBECDBF7C016B01842EB22E532EAC
:10125000FB018081F70184838281938121E02093C7
:10126000100324E2209331031092370310923603C7
:1012700060E00E94F60260E0F701828193810E94A3
:10128000F6026FEFF701828193810E94F602182D1A
:10129000100F61E0610FF701828193810E94F602D5
:1012A000612F6095F701828193810E94F60264EDBF
:1012B000F701828193810E94F6028C0C9D2C911C77
:1012C00014EDF701828193818C149D04C9F4CB2C19
:1012D000D52C5601A00EB11CF70182819381AC146C
:1012E000BD0499F14601F60160810E94F60288234F
:1012F00071F0FFEFCF1ADF0AF4018081180FECCFF5
:101300003601F60160810E94F602811117C08DEF4F
:101310002C960FB6F894DEBF0FBECDBFDF91CF91F4
:101320001F910F91FF90EF90DF90CF90BF90AF9003
:101330009F908F907F906F905F900895FFEFCF1AEE
:10134000DF0AF3018081180FBCCF612F61950E94E5
:10135000F60260E0F701828193810E94F60281E04B
:101360000E94830386E0E5E1F1E0DE01179601903B
:101370000D928A95E1F70BE010E067E084E20E94AD
:101380007304109239038093380381110BC061E01C
:1013900070E080E090E00E94BC020150110969F702
:1013A0008EEFB6CFF701828193810E94EE0280FF1B
:1013B000EECF8E010F5F1F4F5E01F7E0AF0EB11C45
:1013C0006801F701828193810E94EE02F801819306
:1013D0008F01EA15FB05A9F746E050E0BF01C60101
:1013E0000E94AF1621E0892B09F420E0822F81951D
:1013F0008FCF85ED8093BC0080910C0390910D03FD
:10140000A0910E03B0910F030796A11DB11D23E01B
:10141000B695A795979587952A95D1F72091BC0009
:1014200024FD03C010920A03089540910C035091CB
:101430000D0360910E0370910F03452B462B472B34
:1014400069F30097A105B10541F025E32A95F1F76D
:1014500000000197A109B109E1CF80910B030C9421
:1014600062031F920F920FB60F9211242F933F9396
:101470004F935F936F937F938F939F93AF93BF939C
:10148000EF93FF938AE393E00E946501FF91EF9150
:10149000BF91AF919F918F917F916F915F914F918C
:1014A0003F912F910F900FBE0F901F9018951F9294
:1014B0000F920FB60F9211242F938F939F93EF9358
:1014C000FF93E0914A03F0914B038081E091500338
:1014D000F091510382FD1BC09081809153038F5F77
:1014E0008F7320915403821741F0E0915303F0E091
:1014F000E65CFC4F958F80935303FF91EF919F9192
:101500008F912F910F900FBE0F901F901895808193
:10151000F4CF1F920F920FB60F9211242F933F9387
:101520008F939F93AF93BF938091B7029091B8022E
:10153000A091B902B091BA023091B60223E0230F14
:101540002D3758F50196A11DB11D2093B602809349
:10155000B7029093B802A093B902B093BA028091F7
:10156000BB029091BC02A091BD02B091BE02019657
:10157000A11DB11D8093BB029093BC02A093BD023C
:10158000B093BE02BF91AF919F918F913F912F91E8
:101590000F900FBE0F901F90189526E8230F02960C
:1015A000A11DB11DD2CF1F920F920FB60F92112421
:1015B0002F933F934F935F936F937F938F939F935B
:1015C000AF93BF93EF93FF938091B900887F8036EC
:1015D00009F44AC0F0F5883209F4A7C018F5803143
:1015E00009F49BC0B8F4882309F4F9C0883009F4E1
:1015F00094C0FF91EF91BF91AF919F918F917F9197
:101600006F915F914F913F912F910F900FBE0F906F
:101610001F901895883109F488C0803251F7809363
:10162000080314C0803409F49DC040F48033B9F33A
:101630008833F9F68093080385ECB0C0803509F44F
:1016400085C0883509F496C0883499F60E94F90956
:10165000D0CF883909F48CC038F5883729F050F498
:10166000883611F0803729F683E080930A031092C0
:10167000B50257C0883809F47BC0803919F080382A
:1016800009F0B7CF8091B502803208F071C0E091C7
:10169000B50281E08E0F8093B5028091BB00F0E02F
:1016A000EB56FD4F80833DC0803B39F0E0F4803A3B
:1016B00009F479C0883A09F09CCF84E080930A034A
:1016C0001092940210929302E0913403F09135034A
:1016D00009958091930281110FC081E0809393025C
:1016E0001092730209C0803C09F4A6CF883C09F42B
:1016F000A3CF883B09F07DCFE091940281E08E0F6B
:1017000080939402F0E0ED58FD4F80818093BB0000
:10171000909194028091930229C08091E502809378
:10172000BB0085EC8093BC0064CF9091070380914F
:101730000603981758F5E091070381E08E0F809318
:101740000703F0E0EA51FD4F8081E9CFE091070304
:1017500081E08E0F809307038091BB00F0E0EA5197
:10176000FD4F808390910703809106039817C8F27C
:1017700085E8D8CFE091070381E08E0F80930703BF
:101780008091BB00F0E0EA51FD4F80838091090316
:1017900081115CCF81E08093E40284EA8093BC00F5
:1017A00010920A0326CF85EC8093BC0010920A03A6
:1017B0008091B502803230F4E091B502F0E0EB5652
:1017C000FD4F10826091B50270E0E0913203F0911C
:1017D000330385E992E009951092B5020ACF109281
:1017E000080334CF0F931F93CF93DF93EC01FC01D9
:1017F000EF59FF4F84E08083789681E080833396B1
:101800001082319610823196108267E971E0CE0124
:1018100081589F4F0E94F308FE01EB57FF4F05E0F0
:1018200010E01183008367E971E0CE0189579F4F73
:101830000E94F308C357DF4F19830883DF91CF91CC
:101840001F910F9108951F93CF93DF93EAE3F3E085
:101850001382128288EE93E0A0E0B0E08483958347
:10186000A683B78325E631E03183208325EC30E081
:101870003587248724EC30E03787268720EC30E05A
:10188000318B208B21EC30E0338B228B22EC30E04B
:10189000358B248B26EC30E0378B268B118E128E05
:1018A000138E148EC8E3D4E01B821A828C839D832E
:1018B000AE83BF8387E791E09983888311E010931B
:1018C0004A06EBE3F6E01182168780E7809349042D
:1018D00080E4EBE1F1E0AAE4B4E001900D928A9596
:1018E000E1F78BE894E00E94F20B8AE195E00E9418
:1018F000F20B89EA95E00E94F20B109238061092E2
:10190000390610923A0610938A04E4E4F4E089E878
:1019100091E091838083D383C2831482F093370450
:10192000E0933604DF91CF911F910895CF93DF9319
:10193000CDB7DEB7C45BD1090FB6F894DEBF0FBEDA
:10194000CDBF789484B5826084BD84B5816084BD48
:1019500085B5826085BD85B5816085BD80916E004D
:10196000816080936E00109281008091810082607E
:1019700080938100809181008160809381008091BB
:1019800080008160809380008091B10084608093AA
:10199000B1008091B00081608093B00080917A00A6
:1019A000846080937A0080917A00826080937A00CC
:1019B00080917A00816080937A0080917A008068BB
:1019C00080937A001092C100E0914A03F0914B039A
:1019D00082E08083E0914603F09147031082E0911A
:1019E0004803F091490380E1808310925203E09113
:1019F0004E03F0914F0386E08083E0914C03F09119
:101A00004D03808180618083E0914C03F0914D0310
:101A1000808188608083E0914C03F0914D03808148
:101A200080688083E0914C03F0914D0380818F7D2D
:101A300080830E94490301E08091490400931003D0
:101A400080933103109237031092360381E00E9495
:101A50008303182F80918A048823A1F088E991E0FC
:101A6000112321F0143021F487EB91E00E946907E3
:101A70006091490470E090E080E040E10E94270717
:101A80000E948B0762E370E080E090E00E94BC025D
:101A90001111D2CF61E082E00E94660261E083E032
:101AA0000E94660261E084E00E94660261E085E0D7
:101AB0000E94660260E08EE00E946602F0E08F2ED7
:101AC000F1E09F2EA3E0AA2EA1E0BA2EB6E0CB2E25
:101AD000B1E0DB2E15EFE12E14E0F12E412C512C5C
:101AE000320105E0302E11E0842D0E94C70580915F
:101AF000360490913704DC01ED91FC910190F08166
:101B0000E02D09958091360490913704DC01ED9128
:101B1000FC910280F381E02D0995B2E3B093F603C6
:101B20003092F703EEEFE093F8031093F90330924D
:101B3000FA038091360490913704DC01ED91FC9119
:101B40000480F581E02D00E030E020E045E066EF24
:101B500073E00995811110C080913604909137048B
:101B6000DC01ED91FC910680F781E02D28EE33E059
:101B700040E466EF73E00995F40121904F01D5012F
:101B8000ED915D01CE55DF4FE883C25AD040D601BA
:101B90000D916D0182ED91E00E9469074AE0C30159
:101BA000B2010E9427070E948B07D701AA56B109EC
:101BB00081E6E7EDF3E001900D928A95E1F7F701F8
:101BC000518A408A2785F4E00F9FC0011124865B6B
:101BD0009B4FD70111969C938E9312961C9312974C
:101BE00013962C93139714961C93CE55DF4FE881D0
:101BF000C25AD040B4E0EB9FC0011124865B9B4FDA
:101C0000D70116969C938E931597E2E01796EC9366
:101C1000179718962C93189719961C931997F4E018
:101C20002F9EC0011124865B9B4F1B969C938E9325
:101C30001A9733E01C963C931C971D962C931D9786
:101C40001E961C934FEF441A540A640A740A5FE804
:101C5000E50EF11C83E0481651046104710409F09B
:101C600043CF6AE070E080E090E00E94BC020E94F6
:101C7000490386E18093BA0082EE95E09093C0021A
:101C80008093BF028EE697E09093C2028093C102D8
:101C90006AEE71E08AE393E00E9412070E948B07CC
:101CA0000E948B077BE8272E74E0372EEAEE4E2E3B
:101CB000E4E05E2EA9E4B4E0CE55DF4FB983A883FB
:101CC000C25AD040C755DF4F19821882C95AD04036
:101CD000C955DF4F19821882C75AD04080918A04B3
:101CE000882361F082E092E00E946907C955DF4FC6
:101CF00088819981C75AD0400E94A6076AEF70E098
:101D000080E090E00E94BC02CE55DF4F088119812F
:101D1000C25AD04004551F4F812C912C5401D12C14
:101D2000C12C77247394F12CE12CD801ED91FC9116
:101D3000EE0DFF1D608182E08E0D0E943802F801D9
:101D40008381882391F00190F081E02DEE0DFF1D3D
:101D5000608170E090E080E04AE00E94270769E13E
:101D600070E080E090E00E94BC02FFEFEF1AFF0AF3
:101D700024E0E216F104C9F6D80112968C91823063
:101D800009F459C1833009F48DC1813009F03EC096
:101D9000ECEBF0E08491E8EAF0E0E490E4E9F0E0D4
:101DA000F490FF2009F440C181110E940F02EF2D31
:101DB000F0E0EE0FFF1FE458FF4FA591B4918C9116
:101DC000E82291E080E009F490E0CB55DF4F988362
:101DD000C55AD040CA55DF4F8883C65AD040D80173
:101DE00013968C91882391F080E292E00E9469071B
:101DF000CB55DF4F88819981C55AD0400E94A607F4
:101E000069E170E080E090E00E94BC02D801149685
:101E10008C911497CB55DF4FE881F981C55AD0409A
:101E20008E171F0619F1CB55DF4FF881C55AD040E8
:101E30001496FC93D2015A968C91882359F082E132
:101E400092E00E9469074AE0C501B4010E94270799
:101E50000E948B07F601E254FF4FCE55DF4F2881D9
:101E60003981C25AD040E20FF31F70823FEFC31A8C
:101E7000D30A0B5F1F4F4FEF841A940AA40AB40AC7
:101E800053E0C516D10409F04ECFCE55DF4F888000
:101E90009980C25AD04084EA880E911CCE55DF4FFB
:101EA000A880B980C25AD04091E6A90EB11CCE5587
:101EB000DF4FA881B981C25AD040A65BBF4FC5553C
:101EC000DF4FB983A883CB5AD040CE55DF4FE8818E
:101ED000F981C25AD040EF53FF4FC355DF4FF9830A
:101EE000E883CD5AD04039E4632E34E0732ECC55CC
:101EF000DF4F1882C45AD040C755DF4F288139813F
:101F0000C95AD04022543F4FC155DF4F39832883EF
:101F1000CF5AD0402FE8C955DF4F48815981C75A61
:101F2000D040249FC001259F900D1124DC01A75BA8
:101F3000BB4FCF54DF4FB983A883C15BD040CE5590
:101F4000DF4FE881F981C25AD040EB59FF4FCD54A1
:101F5000DF4FF983E883C35BD040C155DF4FE88191
:101F6000F981CF5AD040E60DF71D8081882309F40E
:101F700035C164E670E080E090E00E94BC02C95583
:101F8000DF4F8881C75AD0400E94C7058AE4D1013B
:101F90005F968C935F9781E090968C939097919643
:101FA0001C92F20180819181DC01ED91FC91048011
:101FB000F581E02D00E030E020E043E0B501099537
:101FC0008111F1C0F20180819181DC01ED91FC91E0
:101FD0000680F781E02D28EE33E040E4B501099555
:101FE00097FDE1C0F101878D813009F0DCC084A14B
:101FF000D2011A968C9380E0F10194A1891708F020
:1020000089C0282F30E0CF54DF4FE881F981C15BD0
:10201000D040E20FF31FE959FF4F9081280D391D81
:10202000D9019C938F5FE8CFCB55DF4F198218827F
:10203000C55AD040D4CE5AE0652EF12CE12C0E9436
:10204000D500E80EF91E6A946110F9CFC7016AE065
:1020500070E00E947D147B01F8018381882369F080
:1020600080E292E00E946907C7010E94A60769E129
:1020700070E080E090E00E94BC0280E0F2E8EF16A1
:10208000F1043CF081E027E2E21622E0F2060CF4D3
:1020900082E0482F50E0CB55DF4F59834883C55A23
:1020A000D040B4CE4AE0642EF12CE12C0E94D50041
:1020B000E80EF91E6A946110F9CFC7016AE070E07A
:1020C0000E947D147B01D80113968C91882369F0BE
:1020D00080E292E00E946907C7010E94A60769E1B9
:1020E00070E080E090E00E94BC0280E0B2E8EB1675
:1020F000F1043CF081E0E1E2EE16E3E0FE060CF4D0
:1021000082E0282F30E0CB55DF4F39832883C55A32
:10211000D0407CCE86E0EBE5F1E0DE01AA56BF4F71
:1021200001900D928A95E1F7F2010281128586E015
:10213000FE01EA56FF4FD101189601900D928A9543
:10214000E1F7412F50E0B401C1010E94BC16D1015A
:1021500017961C93179780E45F968C935F9781E0A6
:1021600090968C93909780E691968C939197929607
:102170000C9386E0C555DF4FE881F981CB5AD040FA
:10218000CD54DF4FA881B981C35BD04001900D923F
:102190008A95E1F7F10180E0181709F4D6C0919112
:1021A00090A78F5FF9CFC355DF4F68817981CD5AF2
:1021B000D040CE0101960E94C40845E050E0BE0127
:1021C0006F5F7F4FC1010E94E008CE0101960E941F
:1021D000040981E0F301E151FE4F8083CC55DF4FCC
:1021E000B881C45AD040BF5FCC55DF4FB883C45AC2
:1021F000D040EFEF6E1A7E0AB33009F0AECE88E31E
:10220000E82E86E0F82E0CEE14E0D7018D917D01CA
:10221000882309F468C24801BEE18B0E911C380185
:10222000E6E26E0E711C6801FBE1CF0ED11CCC55AD
:10223000DF4F1882C45AD040580121E6A21AB108D3
:10224000D6018D916D01882309F43FC267E971E0E1
:10225000CE0180579F4F0E94F30881E6F501DE0111
:10226000119601900D928A95E1F7F8018191A3965C
:102270008FAFA39787E0DE01AD59BF4F01900D925C
:102280008A95E1F7F8018085AB968FAFAB97C801CF
:1022900009969E0125593F4FA801485E5F4F65E0B2
:1022A000FC01D90101900D926A95E1F705962B5F2B
:1022B0003F4F4817590799F7D80158968C9158976E
:1022C000EB968FAFEB9759968D919C915A97ED961F
:1022D0009FAF8EAFED975B968D919D91AC91C3585A
:1022E000DF4F88839983AA83CD57D040B401CE01B4
:1022F00080589F4F0E94C408F80184A195A1CA5735
:10230000DF4F99838883C658D040B301CE018857E8
:102310009F4F0E94C408D8019C968D919C91C257F2
:10232000DF4F99838883CE58D040CC55DF4FB8819A
:10233000C45AD040B23009F03EC164E070E0059765
:1023400009F044C162E070E041C1F20180819181F5
:102350004AE0410FDC01ED91FC910480F581E02D14
:1023600000E030E020E0B50109958111B7C0F2012D
:1023700080819181DC01ED91FC910680F781E02D57
:1023800028EE33E040E4B5010995F101878D811114
:10239000A5C0D20112968C91129790E4978F91E08C
:1023A00090A390E391A382A38D919C91DC01ED9188
:1023B000FC910480F581E02D30E020E044E0B5019F
:1023C00009958111C9C0F20180819181DC01ED91F3
:1023D000FC910680F781E02D28EE33E040E4B50162
:1023E0000995F101878D8111B7C080E1B096DE01BA
:1023F000119601900D928A95E1F7D2015A968C912F
:10240000882369F085E492E00E946907BE016F5F4E
:102410007F4F8AE393E00E9412070E948B07BE0160
:102420006F5F7F4FCE0180579F4F0E94F308CC56BD
:10243000DF4FE880F980C459D040CC24C394D12C1C
:10244000E114F10421F06701EE24E394F12C67E933
:1024500071E0CE0184569F4F0E94F308CC56DF4FA7
:1024600008811981C459D040E016F10688F5C016DC
:10247000D10608F48601C057DF4FE881F981C059C1
:10248000D040E00FF11FD0801082C057DF4F68812D
:102490007981C059D0406E0D7F1D6115710509F419
:1024A00062C0FB0101900020E9F73197AF01461BA4
:1024B000570BCE0184569F4F0E948C08C057DF4FA8
:1024C00088819981C059D040080F191FF801D08226
:1024D000CE0180579F4F0E94040907C063E272E05B
:1024E000CE0184569F4F0E94F30880918A0488236E
:1024F00049F086E592E00E946907CE0184569F4F1D
:102500000E949307CC55DF4FF881C45AD040F23077
:1025100081F5D20159968C9104E010E0882331F0C6
:1025200005E010E0823011F403E010E0BE016456D3
:102530007F4FCE0101960E94C408A801BE016F5FC3
:102540007F4FC1010E94CD08CE0101960E9404096F
:10255000CE0184569F4F3BCE85E292E00E946907F0
:1025600063E472E0BDCFCE0184569F4F0E947A088B
:10257000A5CFF201848904E010E0882331F005E062
:1025800010E0823011F403E010E0D2011F968C912C
:10259000811102C001E010E0BE0164567F4FCE0100
:1025A00001960E94C408A801BE016F5F7F4FC10160
:1025B0000E94E008C9CFCA57DF4F88819981C65869
:1025C000D04061E070E0059709F4BCCECE018057A1
:1025D0009F4F0E944A08CE0188579F4F0E940409CE
:1025E000CE0180589F4F0E940409F801618D728DC1
:1025F000CC55DF4FF881C45AD040F23009F4BCC04A
:10260000CE0180579F4F0E944A08D80192964D9163
:102610005C9193975E966D917C91CE0180579F4F10
:102620000E941E08F80164A175A1CE0180579F4F3A
:102630000E944A08CC56DF4F88819981C459D04006
:102640000B9768F586ED90E00E94D401CC56DF4FE1
:1026500088819981C459D040029748F0C057DF4F14
:10266000E881F981C059D040309709F09DC010929F
:10267000C302E3ECF2E060818AE393E00E94870109
:1026800082EC90E00E94D4010E948B0750E040E071
:1026900067E971E0CE0180579F4F0E948C08CC56AD
:1026A000DF4F88819981C459D040892B49F0C057A8
:1026B000DF4FE881F981C059D0408081811176C017
:1026C000CE0180579F4F0E940409CC55DF4FF881FF
:1026D000C45AD040FF5FCC55DF4FF883C45AD04076
:1026E000F33009F0ADCD01571F4F2BE336E02E1527
:1026F0003F0509F08ACDC955DF4F48815981C75A36
:10270000D0404F5F5F4FC955DF4F59834883C75A49
:10271000D040C755DF4F88819981C95AD040815731
:102720009F4FC755DF4F99838883C95AD0409FE890
:10273000290E311CCE55DF4FA881B981C25AD04035
:10274000A157BF4FCE55DF4FB983A883C25AD0409F
:10275000BFE84B0E511C4330510509F0BFCA80E061
:1027600090E0892B09F49ECA0E945101882309F444
:1027700099CA0E94000096CA6D5F7F4FCE018057B4
:102780009F4F0E944A08D8019A964D915C919B9761
:1027900096966D917C91CE0180579F4F0E941E08A6
:1027A000F80164A575A541CF319665CFBE0160578C
:1027B0007F4FCE0101960E94C408CE0101960E946F
:1027C000D607CE0101960E9404090E948B0784E679
:1027D00092E00E946907CE0180579F4F0E949307A5
:1027E0000E948B07F70131971082F6013197108212
:1027F00067CF80E396E00E94040988E296E00E9499
:10280000040981EA95E00E94040989E995E00E94A3
:10281000040982E195E00E9404098AE095E00C94A5
:102820000409BB274A3031F4992322F4BDE2909584
:1028300081959F4F0C941D14BB27FB015527AA2798
:10284000880F991FAA1FA41710F0A41B839550513D
:10285000B9F7A05DAA3308F0A95DA193009779F7B5
:10286000B111B1931192CB010C943614DC01FC012F
:10287000672F71917723E1F7329704C07C916D93B4
:1028800070836291AE17BF07C8F308952F923F92ED
:102890004F925F926F927F928F929F92AF92BF9270
:1028A000CF92DF92EF92FF920F931F93CF93DF931C
:1028B000CDB7DEB7CA1BDB0B0FB6F894DEBF0FBE79
:1028C000CDBF09942A88398848885F846E847D84C6
:1028D0008C849B84AA84B984C884DF80EE80FD80C8
:1028E0000C811B81AA81B981CE0FD11D0FB6F8943E
:1028F000DEBF0FBECDBFED01089597FB072E16F486
:10290000009407D077FD09D00E94B31407FC05D0CE
:102910003EF4909581959F4F0895709561957F4FF6
:102920000895A1E21A2EAA1BBB1BFD010DC0AA1F10
:10293000BB1FEE1FFF1FA217B307E407F50720F028
:10294000A21BB30BE40BF50B661F771F881F991FA3
:102950001A9469F760957095809590959B01AC01EC
:10296000BD01CF010895AA1BBB1B51E107C0AA1FDF
:10297000BB1FA617B70710F0A61BB70B881F991F20
:102980005A95A9F780959095BC01CD010895EE0F59
:10299000FF1F0590F491E02D09940F931F93CF939F
:1029A000DF938230910510F482E090E0E0914D06D3
:1029B000F0914E0630E020E0B0E0A0E0309799F4CE
:1029C0002115310509F44AC0281B390B2430310583
:1029D000D8F58A819B816115710589F1FB0193838B
:1029E0008283FE0111C04081518102811381481709
:1029F0005907E0F04817590799F4109761F01296BB
:102A00000C93129713961C933296CF01DF91CF91BE
:102A10001F910F91089500934D0610934E06F4CF29
:102A20002115310551F04217530738F0A901DB0198
:102A30009A01BD01DF01F801C1CFEF01F9CF9093F9
:102A40004E0680934D06CDCFFE01E20FF31F81931A
:102A500091932250310939832883D7CF20914B0697
:102A600030914C06232B41F420910B0130910C0145
:102A700030934C0620934B062091090130910A01B6
:102A80002115310541F42DB73EB740910D0150910C
:102A90000E01241B350BE0914B06F0914C06E2171A
:102AA000F307A0F42E1B3F0B2817390778F0AC0171
:102AB0004E5F5F4F2417350748F04E0F5F1F50934E
:102AC0004C0640934B06819391939FCFF0E0E0E05A
:102AD0009CCFCF93DF930097E9F0FC0132971382EC
:102AE0001282A0914D06B0914E06ED0130E020E03B
:102AF0001097A1F420813181820F931F20914B0602
:102B000030914C062817390709F061C0F0934C0644
:102B1000E0934B06DF91CF910895EA01CE17DF07CE
:102B2000E8F54A815B819E0141155105B1F7E90144
:102B3000FB83EA8349915991C40FD51FEC17FD0718
:102B400061F4808191810296840F951FE901998338
:102B50008883828193819B838A83F0E0E0E01296F0
:102B60008D919C9113970097B9F52D913C911197F8
:102B7000CD010296820F931F20914B0630914C0697
:102B80002817390739F6309751F510924E061092F2
:102B90004D06B0934C06A0934B06BCCFD383C283A3
:102BA00040815181840F951FC817D90761F44E5F8A
:102BB0005F4F88819981480F591F518340838A81D3
:102BC0009B81938382832115310509F0B0CFF09367
:102BD0004E06E0934D069ECFFD01DC01C0CF13826F
:102BE0001282D7CFB0E0A0E0E8EFF5E10C944814F2
:102BF0008C01009751F4CB010E94CD148C01C801C7
:102C0000CDB7DEB7E0E10C946414FC01E60FF71FCA
:102C10009C0122503109E217F30708F49DC0D90145
:102C2000CD91DC911197C617D70798F0C530D10523
:102C300030F3CE0104978617970708F3C61BD70B0E
:102C40002297C193D1936D937C93CF010E94691514
:102C5000D6CF5B01AC1ABD0A4C018C0E9D1EA09113
:102C60004D06B0914E06512C412CF12CE12C1097C1
:102C700031F580914B0690914C068815990509F025
:102C80005CC04616570608F058C080910901909123
:102C90000A01009741F48DB79EB740910D01509104
:102CA0000E01841B950BE817F90708F055C0F09347
:102CB0004C06E0934B06F90171836083A0CF8D91A0
:102CC0009C91119712966C90129713967C90139783
:102CD000A815B90559F56C0142E0C40ED11CCA14FF
:102CE000DB0420F1AC014A195B09DA011296159751
:102CF00080F06282738251834083D9016D937C930B
:102D0000E114F10471F0D7011396FC93EE9312973E
:102D100076CF22968C0F9D1FF90191838083F3015A
:102D2000EFCFF0934E06E0934D0669CF4816590653
:102D300008F42C017D01D3019ACFCB010E94CD1460
:102D40007C01009749F0AE01B8010E94BC16C80191
:102D50000E946915870153CF10E000E050CFFB01BE
:102D6000DC0104C08D910190801921F44150504044
:102D7000C8F7881B990B0895FB01DC0102C0019084
:102D80000D9241505040D8F70895FB01DC010190AD
:102D90000D920020E1F70895FB01DC014150504005
:102DA00048F001900D920020C9F701C01D924150DA
:102DB0005040E0F7089510E0C4E7D0E004C0FE0101
:102DC0000E94C7142196C537D107C9F7F894FFCFE1
:102DD0000A0B0C0708090D0E0F00004F06800000BB
:102DE00000FFFF00000000FF00FF000000000001E6
:102DF00000000000010000010100000000010001CE
:102E000000010000010100010101000000000101BA
:102E100000000100010001010100010000010101A9
:102E20000001010001010101010101FFFFFFFFFF9E
:102E3000FF000000008701E6001401EF01450123B7
:102E40000137010000000098056B05DF05130164E0
:102E50000551054205000000006003FE020C09F068
:102E600005303537000D0A00493243206465766924
:102E7000636520666F756E6420617420616464729E
:102E800065737320307800556E6B6E6F77206572B6
:102E9000726F722061742061646472657373203094
:102EA00078005B424F4F545D20496E697469616CD4
:102EB000697A65205A6F6E652000496E6974696190
:102EC0006C697A6174696F6E20436F6D706C6574A4
:102ED0006500436865636B696E67205A6F6E653A7B
:102EE000200053656E736F72205472697070656450
:102EF0003A200033005B5741524E5D20436F756CA2
:102F000064206E6F74207265616420626C6F636B05
:102F1000210A00340052656164696E6720426C6F5B
:102F2000636B20343A0043617264205365726961B7
:102F30006C3A20004576656E7420496E666F3A20C3
:022F400000008F
:00000001FF
